:020000040800F2
:10000000C80C0020955A0008B9070008BB07000873
:10001000BF070008C3070008C7070008000000006A
:10002000000000000000000000000000CB070008F6
:10003000CD07000800000000CF070008D107000826
:10004000AF5A0008AF5A0008AF5A000841570008DD
:10005000AF5A0008AF5A0008AF5A0008AF5A00085C
:10006000AF5A0008AF5A0008AF5A0008AF5A00084C
:10007000AF5A0008AF5A0008AF5A0008AF5A00083C
:10008000AF5A0008AF5A0008AF5A0008AF5A00082C
:10009000AF5A0008AF5A0008AF5A0008AF5A00081C
:1000A000AF5A0008AF5A0008AF5A0008AF5A00080C
:1000B000AF5A0008AF5A00082D840008AF5A000854
:1000C000AF5A0008AF5A0008AF5A0008AF5A0008EC
:1000D000AF5A0008095A0008AF5A0008AF5A000882
:1000E000AF5A0008AF5A0008AF5A0008AF5A0008CC
:1000F000AF5A0008AF5A0008AF5A0008AF5A0008BC
:10010000AF5A0008AF5A0008AF5A0008AF5A0008AB
:10011000AF5A0008AF5A0008AF5A0008AF5A00089B
:10012000AF5A0008AF5A0008AF5A0008AF5A00088B
:1001300000F002F800F06BF80AA090E8000C82448E
:100140008344AAF10107DA4501D100F060F8AFF26B
:10015000090EBAE80F0013F0010F18BFFB1A43F0A5
:100160000103184700C0000020C000000A444FF0FF
:10017000000C10F8013B13F0070408BF10F8014B06
:100180001D1108BF10F8015B641E05D010F8016B4B
:10019000641E01F8016BF9D113F0080F1EBF10F8AF
:1001A000014BAD1C0C1B09D16D1E58BF01F801CBD2
:1001B000FAD505E014F8016B01F8016B6D1EF9D555
:1001C0009142D6D37047000000230024002500266A
:1001D000103A28BF78C1FBD8520728BF30C148BFAA
:1001E0000B607047642908F0F586752908F0F286DF
:1001F000782908F02B87632909F08A80732909F090
:100200008F80002070471FB51FBD10B510BD09F0CD
:10021000C1F81146FFF7F7FF00F0F5F809F0DFF835
:1002200003B4FFF7F2FF03BC05F094FB38B50124DB
:10023000E420FE49488148806C21FC48A0F88E10DB
:10024000A0F87A1040F21310F84908818880A021A4
:10025000F648A0F88C10A0F87C104FF49670F34983
:10026000C880E821F148A0F88A10A0F87E104FF469
:100270009871A0F88810A0F880104FF4B271A0F81F
:100280008610A0F882109C20E84988814FF4BB7149
:10029000E648A0F884105E20E449C882C881252081
:1002A000888208820C204882982008835C21DF48DD
:1002B000A0F8901000BF1EE00A2C0DDA1020DB4AD7
:1002C0007832009032F81410783A32F81400012392
:1002D000224604F0AFFF0CE01020D44A78320090A0
:1002E00032F81410783A32F814000223224604F04F
:1002F000A1FF601CC4B20D2CDEDB38BD2DE9F04F30
:100300008FB083468A4614464FF0000900BF74E060
:10031000484609F0C3FEC64AC64BCDE9020109F0C2
:10032000D1FE07460022C44B09F0ECFC054609F05B
:10033000E9FBCDE90601C14951F8240009F097FE17
:10034000CDE90401DDE9062309F0BCFECDE90A018F
:10035000584609F08CFECDE90801DDE90A2309F0D1
:1003600021FCCDE90C0109F055FEC4EB0411B44A9F
:1003700002EB011121F81900484609F08FFE0546ED
:10038000AB4AAC4B09F09EFE0022AB4BCDE900011D
:1003900009F0B8FCCDE9020109F066FB0022A94B87
:1003A000CDE9040109F08CFF07468846A34951F8BE
:1003B000240009F05CFE3A464346CDE9060109F007
:1003C00081FECDE90A01504609F051FECDE9080150
:1003D000DDE90A2309F0E6FBCDE90C0109F01AFE7C
:1003E00081B2C4EB0410964A02EB0010783020F87A
:1003F000191009F1010000F0FF09B9F13C0F87DB8A
:100400000FB0BDE8F08F0EB50020029005F038FA6D
:100410004FF4A06005F05EFB4FF4E13005F0A8FA60
:1004200001F071F905F02DF9874800688749B0FBA4
:10043000F1F0C4B2864841682046884700227821FE
:10044000A020FFF75BFF01229621A020FFF756FFB7
:100450000222B421A020FFF751FF4FF478407D49DC
:10046000088047F6FF707C4908800846008801F044
:1004700018F97AA018210B463C22CDE90010002182
:10048000084604F08FFF9622F021A02004F0F3FD2F
:10049000FFF7CCFE73A018210B46C822CDE900104F
:1004A0004FF4CD715A2004F07DFF71A018210B4646
:1004B000C822CDE900104FF4DC71642004F072FF13
:1004C0006E48807840B28DF808006C48407840B2A1
:1004D0008DF80900694800780C2823DB67494878C3
:1004E00009F0DCFD80460022654B09F00BFC064656
:1004F0000022644B09F0E6FD04460D465F49097889
:100500000C3901EB810009F0B2FD824622462B46F0
:1005100009F048FBCDE9000109F04CFD40B28DF82F
:100520000A0021E05549487809F0B8FD80460022CC
:10053000534B09F0E7FB06460022524B09F0C2FD7F
:1005400004460D464D49097801EB810009F08FFD05
:10055000824622462B4609F025FBCDE9000109F031
:1005600029FD40B28DF80A001DE118200090434893
:10057000828804234FF4CD715A2004F05BFE0020E2
:100580001821CDE900103D48827902234FF4CD7146
:10059000962004F099FE182000903848C279022372
:1005A0004FF4CD71BA2004F045FE00201821CDE9AA
:1005B00000103248027802234FF4DC71642004F00A
:1005C00083FE00201821CDE900102C484278022338
:1005D0004FF4DC71882004F077FE00201821CDE96B
:1005E00000102648827802234FF4DC71AC2004F01E
:1005F0006BFE9DF80800401C40B28DF8080047F6DD
:10060000FF70144908809DF90800401E0C4978319C
:1006100031F810309DF90800401E783931F810206B
:10062000F021A02004F0B1FC2EE00000980400208E
:100630004AD8124DFB21094000003E400000002036
:10064000C80100200000F03F0C00002040420F00D5
:10065000D40000202000002022000020536865659F
:1006600070000000202020202D20202D20200000C0
:1006700020203A20203A202000000000960500208B
:1006800000004E40000014409DF808003C2844D172
:100690009DF80900401C40B28DF809009DF9091031
:1006A000491E414830F811309DF90900401E3E496D
:1006B000783931F81020F021A02004F066FC9DF874
:1006C00009003C2820D19DF80A00401C40B28DF85A
:1006D0000A009DF90A10491E3348F03030F81130F5
:1006E0009DF90A00401E3049783131F81020F02180
:1006F000A02004F04AFC9DF90A003C2190FBF1F295
:1007000001FB12008DF80A009DF909003C2190FBC5
:10071000F1F201FB12008DF809009DF908003C215F
:1007200090FBF1F201FB12008DF808004FF47840C5
:100730001E4908809DF908101B48F03830F8113028
:1007400008461B4931F81020F021A02004F01DFCC0
:100750001F20164908809DF90910134830F8113000
:10076000783830F81120F021A02004F00EFC002091
:100770000E4908809DF90A100B48F03030F811300E
:10078000783830F81120F021A02004F0FEFB094851
:10079000006808B9012000E00020064908604FF415
:1007A0007A7005F0AAF8E0E630030020200000206F
:1007B000C801002094812142704700BFFEE700BFBE
:1007C000FEE700BFFEE700BFFEE7704770477047D7
:1007D000704700000CB50020019000906C48006844
:1007E00040F480306A49086000BF6948006800F43E
:1007F000003000900198401C0190009818B90198B1
:10080000B0F5A06FF1D16248006800F4003010B17B
:100810000120009001E0002000900098012843D1C1
:100820005C48006840F010005A49086008460068BB
:1008300020F0030008600846006840F002000860ED
:100840005348406852494860084640684860084636
:10085000406840F4806048600846406820F47C109E
:1008600048600846406840F4E81048600846006860
:1008700040F08070086000BF4548006800F00070DC
:100880000028F9D04248406820F003004049486001
:100890000846406840F00200486000BF3C4840689D
:1008A00000F00C000828F9D10CBD10B5FFF792FF3D
:1008B00010BD10B53648006840F0010034490860AA
:1008C0000846406834490840314948600846006895
:1008D000324908402E4908600846006820F480200C
:1008E00008600846406820F4FE0048604FF41F008E
:1008F0008860FFF7DAFF4FF000602949086010BDFB
:1009000010B5002100200022214B5B6803F00C0190
:1009100021B1042906D0082928D107E0214B224C17
:10092000236027E01F4B204C236023E0184B5B68BB
:1009300003F47010164B5B6803F48032022303EB60
:10094000904022B9194B4343174C23600DE0104BE4
:100950005B6803F4003323B1144B4343124C236010
:1009600003E0104B4343104C236003E00D4B0E4C4F
:10097000236000BF00BF064B5B68C3F303130C4C3E
:10098000E15C094B1B68CB40074C236010BD0000A5
:1009900000100240002002400000FFF8FFFFF6FEBA
:1009A00008ED00E000127A000C00002000093D0074
:1009B00010000020F74908807047F649891C08801C
:1009C000704708B5F348801C00880090BDF800000F
:1009D00008BDF04A1080921C1180704710B5044683
:1009E0002046FFF7E7FF052004F063FFFFF7E9FF6C
:1009F00010BDE9480089E74908807047E549891C2E
:100A00000880704730B5014601F01F04C1F345135B
:100A1000CA0AE50205EB43151544A8B230BD00BF74
:100A2000011EA0F10102D0B2FAD1704710B5034601
:100A30000C46D948808849F24131884205D0D648D1
:100A4000808845F21031884214D1D3494889FFF794
:100A5000B1FF1812FFF7B1FFD8B2FFF7AEFFCE49D2
:100A60008889FFF7A7FF2012FFF7A7FFE0B2FFF783
:100A7000A4FFABE0C848808846F6040188421DD137
:100A8000C5488079012804D1C3480088401EC01A97
:100A900083B2C1494889FFF78DFF1812FFF78DFF18
:100AA000D8B2FFF78AFFBC498889FFF783FF20127D
:100AB000FFF783FFE0B2FFF780FF87E0B64880884A
:100AC00041F66311884247D1B3488079A8B9B2484A
:100AD0000088401EC01A83B2AF494889FFF76AFFF9
:100AE0000020FFF76AFF0020FFF767FF1812FFF7EB
:100AF00064FFD8B2FFF761FF16E0A7494889FFF706
:100B000059FF1812FFF759FFD8B2FFF756FFA24955
:100B10000988491EC1F30F20FFF74FFF9E4909784E
:100B2000491EC8B2FFF749FF9B498889FFF742FF7A
:100B30002012FFF742FFE0B2FFF73FFF96494988D6
:100B4000491EC1F30F20FFF738FF93498978491EEA
:100B5000C8B2FFF732FF39E08F48808845F2105164
:100B6000884220D18C494889FFF724FF1812FFF7EB
:100B700024FF89494989491C88B2FFF71BFFD8B275
:100B8000FFF71BFF84498889FFF714FF2012FFF746
:100B900014FF81498989491C88B2FFF70BFFE0B235
:100BA000FFF70BFF12E07C488079012804D17A48D6
:100BB0000088401EC01A83B2774948891946FFF75A
:100BC00008FF754988892146FFF703FF10BD2DE90D
:100BD000F04105460E4600240027A0466E480088D6
:100BE000A84203DD6C484088B04202DC0020BDE82A
:100BF000F08131462846FFF719FF6748808849F29F
:100C00004131884211D06448808846F60401884208
:100C10000BD06148808845F21031884205D05E488B
:100C2000808841F66311884203D12E20FFF7C2FE6F
:100C30000DE05948808845F21051884204D14FF4A4
:100C40003850FFF7B7FE02E02220FFF7B3FE52480C
:100C5000808849F22031884202D10220FFF7DFFE6E
:100C6000FFF7AFFE04464C48808841F66311884286
:100C700001D12046BBE70220FFF7D1FEFFF7A1FE1E
:100C800004464548808849F2413188420BD04248A9
:100C9000808845F21031884205D03F48808845F26F
:100CA000105188420AD10220FFF7B9FEFFF789FEF2
:100CB0008046E7B24FF6FF7000EA07273648808883
:100CC00049F22531884216D03348808844F23551A4
:100CD000884210D030488088091F88420BD02E48A7
:100CE00080884BF20551884205D02B4880884CF211
:100CF0000551884201D1204679E72748808849F28A
:100D0000413188420BD02448808845F21031884216
:100D100005D02148808845F21051884207D1E01261
:100D2000C002B91240EA411040EAE8205FE72046DD
:100D3000FFF768FE5BE700B51748808849F241314C
:100D4000884211D01448808846F6040188420BD0AE
:100D50001148808845F21031884205D00E488088BD
:100D600041F66311884203D12920FFF723FE0FE0EB
:100D70000948808845F21051884204D14FF424502C
:100D8000FFF718FE04E040F273110720FFF721FE81
:100D900000BD0000FE07006C8805002000B5FD487E
:100DA000808849F24131884211D0FA48808846F65D
:100DB000040188420BD0F748808845F21031884200
:100DC00005D0F448808841F66311884203D1282079
:100DD000FFF7F0FD0EE0EF48808845F210518842A1
:100DE00004D14FF42050FFF7E5FD03E00021072078
:100DF000FFF7EFFD00BD70B5044600230026E5486F
:100E0000807901280BD1E348808846F604018842A6
:100E100005D0E048808841F66311884208D1DD485A
:100E20008079F0B9DB48808841F66311884218D197
:100E3000082C15D2DFE804F00406080A0C0E101284
:100E400006240DE007240BE0042409E0052407E054
:100E5000012405E0002403E0032401E0022400BF94
:100E600000BFCC48808849F24131884217D0C94838
:100E7000808846F60401884211D0C648808845F231
:100E8000103188420BD0C348808845F21051884207
:100E900005D0C048808841F6631188427ED1082C75
:100EA0001CD2DFE804F00406090C0F12151800BF6D
:100EB00014E043F0800311E043F040030EE043F000
:100EC000C0030BE043F0200308E043F0600305E0BB
:100ED00043F0A00302E043F0E00300BF00BFAD48D1
:100EE000808845F21051884202D14FF4585600E0F4
:100EF0003626A848808845F2103188420DD0A54892
:100F0000808845F21051884207D0A248808841F677
:100F10006311884201D043F008039E48808846F65A
:100F20000401884201D143F0020319463046FFF71D
:100F300050FD9848808841F6631188421DD003F027
:100F4000200068B19348008892494988884214DAA1
:100F50009048058840888F490880084645800CE005
:100F60008C4800888B494988884206DD8948058875
:100F7000408888490880084645808648808845F230
:100F80001051884254D183494889FFF713FD00204E
:100F9000FFF713FD7F494989491C00E077E088B2DB
:100FA000FFF708FD0020FFF708FD7A494989891CF1
:100FB00088B2FFF7FFFC77490988491EC1F30F206B
:100FC000FFF7FBFC73494989C91C88B2FFF7F2FCA3
:100FD00070490978491EC8B2FFF7EFFC6D4988894E
:100FE000FFF7E8FC0020FFF7E8FC6A498989491C03
:100FF00088B2FFF7DFFC0020FFF7DFFC6549898935
:10100000891C88B2FFF7D6FC62494988491EC1F3A2
:101010000F20FFF7D2FC5F498989C91C88B2FFF70E
:10102000C9FC5C498978491EC8B2FFF7C6FC55E087
:1010300058494889FFF7BEFC0020FFF7BEFC00209E
:10104000FFF7BBFC53490988491EC1F30F20FFF786
:10105000B4FC50490978491EC8B2FFF7AEFC4D49AF
:101060008889FFF7A7FC0020FFF7A7FC0020FFF707
:10107000A4FC48494988491EC1F30F20FFF79DFC95
:1010800044498978491EC8B2FFF797FC26E0082C2E
:101090001CD2DFE804F004070A0D0F12151843F004
:1010A000300313E043F0100310E043F020030DE0A1
:1010B00000BF0BE043F0380308E043F0280305E0ED
:1010C00043F0180302E043F0080300BF00BF03260B
:1010D00043F4805319463046FFF77BFC70BD30B5B2
:1010E00004460D4629462046FFF7A0FCFFF781FC89
:1010F000294800882949088030BD30B503460C4690
:1011000015462448808849F24131884205D021485B
:10111000808845F21031884214D11E494889FFF772
:1011200049FC1812FFF749FCD8B2FFF746FC1949F1
:101130008889FFF73FFC2012FFF73FFCE0B2FFF782
:101140003CFC93E01348808845F21051884227D137
:1011500010494889FFF72EFC1812FFF72EFC0D49A5
:101160004989491C88B2FFF725FCD8B2FFF725FC56
:1011700008498889FFF71EFC2012FFF71EFC05496D
:101180008989491C88B2FFF715FCE0B2FFF715FC0E
:101190006CE0000088050020200000200008006CA2
:1011A000FC48808841F66311884228D1F94880794B
:1011B00020B9F8480088401EC01A83B2F549488912
:1011C000FFF7F8FB1812FFF7F8FBD8B2FFF7F5FBB3
:1011D0001812FFF7F2FBD8B2FFF7EFFBED49888951
:1011E000FFF7E8FB2012FFF7E8FBE0B2FFF7E5FBB3
:1011F0002012FFF7E2FBE0B2FFF7DFFB36E0E54845
:10120000808846F6040188421DD1E2488079012891
:1012100004D1E0480088401EC01A83B2DD494889E5
:10122000FFF7C8FB1812FFF7C8FBD8B2FFF7C5FBE2
:10123000D8498889FFF7BEFB2012FFF7BEFBE0B25A
:10124000FFF7BBFB12E0D3488079012804D1D148D5
:101250000088401EC01A83B2CE4948891946FFF75C
:10126000B8FBCC4988892146FFF7B3FBC948008900
:10127000C9490880881C058030BD2DE9F047044627
:10128000BE20FFF797FB0520FFF797FB204608F0ED
:1012900005FF07464FF06632C04B08F013FF0546C6
:1012A00008F0B8FE1FFA80F94846FFF786FB0120D8
:1012B000FFF783FBFF20FFF780FB0020FFF77DFB9C
:1012C0000020FFF77AFBBDE8F08710B50446002C3C
:1012D00066D1B0498871F02008804FF4A070488032
:1012E0000846808849F2413188420BD0A94880885D
:1012F00046F60401884205D0A648808845F21031A0
:1013000088421AD12C20A34908812A2048812B2009
:1013100088810846808846F60401884205D09D48A9
:10132000808845F21031884206D14FF4A070994967
:1013300008804FF4F0704880A1E09648808845F21C
:101340001051884210D14FF43050924908814FF427
:10135000285048814FF42C5088814FF4F070088059
:101360004FF4487048808AE08A48808841F66311CB
:1013700088420DD12C20874908812B2048812A20C2
:1013800088814FF4F07008804FF44870488076E010
:1013900022208049088120204881212088816EE018
:1013A00001207C4988714FF4A0700880F0204880AB
:1013B0000846808849F24131884205D075488088C6
:1013C00045F21031884207D12C20724908812A2029
:1013D00048812B2088813FE06E48808846F60401D2
:1013E000884207D12C206B4908812B2048812A2074
:1013F000888131E06748808845F21051884210D1D9
:101400004FF43050634908814FF4285048814FF41D
:101410002C5088814FF4487008804FF4F070488059
:101420001AE05C48808841F6631188420DD12C2077
:10143000584908812A2048812B2088814FF4487020
:1014400008804FF4F070488006E02220514908815E
:1014500021204881202088814E48808846F604015A
:10146000884205D04B48808845F21031884206D129
:101470004FF4F070474908804FF4A0704880002076
:10148000FFF7B9FC10BD2DE9F04F86B004460D46BC
:101490009046994604EB0800401E86B205EB090011
:1014A000401E87B23B48808849F24131884215D0BE
:1014B0003848808845F2103188420FD035488088FE
:1014C00046F60401884209D032488079012826D1A5
:1014D0003048808841F66311884220D12D494889DF
:1014E000FFF768FA2012FFF768FAE0B2FFF765FA33
:1014F0003012FFF762FAF0B2FFF75FFA25498889E8
:10150000FFF758FA2812FFF758FAE8B2FFF755FA32
:101510003812FFF752FAF8B2FFF74FFABEE01D4853
:10152000808841F6631188423AD11A480088A0EBBE
:101530000800001B84B205EB0900401E1FFA80F969
:1015400014494889FFF736FA2012FFF736FAE0B25D
:10155000FFF733FA04EB0801491EC1F30F20FFF730
:101560002CFA04EB0801491EC8B2FFF726FA094914
:101570008889FFF71FFA2812FFF71FFAE8B2FFF772
:101580001CFA4FEA2920FFF718FA09F0FF00FFF7CD
:1015900014FA83E088050020FE07006C66660440AC
:1015A000FE48808845F21051884244D1FB49488961
:1015B000FFF700FA2012FFF700FAF8494989491CA1
:1015C00088B2FFF7F7F9E0B2FFF7F7F9F349498975
:1015D000891C88B2FFF7EEF93012FFF7EEF9EF49F8
:1015E0004989C91C88B2FFF7E5F9F0B2FFF7E5F9C0
:1015F000EA498889FFF7DEF92812FFF7DEF9E749A3
:101600008989491C88B2FFF7D5F9E8B2FFF7D5F907
:10161000E2498989891C88B2FFF7CCF93812FFF7B3
:10162000CCF9DE498989C91C88B2FFF7C3F9F8B241
:10163000FFF7C3F932E0D948807901280ED1AA46D4
:10164000BB46D6480088801B401E80B20190D3481C
:101650000088001B401E80B2009003E0A246B34603
:10166000019500975020059051200490522003903E
:101670005320029051460598FFF7ABF9594604985C
:10168000FFF7A7F901990398FFF7A3F900990298CA
:10169000FFF79FF929462046FFF7C8F906B0BDE8D5
:1016A000F08F70B504460026BC4805884088454345
:1016B000BA48808846F60401884216D1B748807936
:1016C000012812D10020B54988712A2048812B2099
:1016D000888100210846FFF7A9F90120AF498871E8
:1016E0002B2048812A20888103E000210846FFF74B
:1016F0009DF9FFF77EF9002602E0A9480480761CD8
:10170000AE42FAD370BD00B59FB00121080205F0CA
:1017100064F801214FF4B47005F06CF80120ADF8C5
:10172000780010208DF87B0003208DF87A001EA928
:101730009C4804F0A3FD4CF23370ADF878001820FB
:101740008DF87B0003208DF87A001EA9964804F0DE
:1017500095FD4FF68070ADF8780018208DF87B006D
:1017600003208DF87A001EA9904804F087FD41F20D
:101770000100ADF8780018208DF87B0003208DF86B
:101780007A001EA98A4804F079FD01200890002003
:1017900009900F200A9000200B900C900D900E9055
:1017A0000190029003200390002004900590069081
:1017B000079006200F90002010901190102012909A
:1017C0000020139015901490169017904FF48050AD
:1017D0001890002019904FF480401A9000201B9020
:1017E00008A81C9001A81D900FA804F02DFA012153
:1017F000062004F091FB322004F07FF80020FFF770
:10180000EDF86649888008468088FF280ADB08468C
:1018100080884FF6FF71884204D060488088B0F518
:10182000134F7CD1D320FFF7C5F8FFF7CAF85B4907
:101830008880FFF7C6F859498880FFF7C2F85749F2
:101840008880084680884FF6FF7101EA00205349DE
:101850008880FFF7B6F85149898808434F49888046
:101860000846808849F24131884258D0BF20FFF7AE
:10187000A1F8FFF7A6F849498880FFF7A2F8474981
:101880008880FFF79EF845498880FFF79AF843491A
:101890008880084680884FF6FF7101EA00203F49A2
:1018A0008880FFF78EF83D49898808433B49888046
:1018B0000846808846F60401884230D0D420FFF7DD
:1018C00079F8FFF77EF835498880FFF77AF83349D1
:1018D0008880FFF776F831498880084680884FF67F
:1018E000FF7101EA00202D498880FFF76AF82B4933
:1018F00089880843294988800846808845F2103144
:10190000884263D04FF45A40FFF754F8FFF759F874
:10191000224988804FF45B40FFF74CF800E055E027
:10192000FFF74FF81D498880084680884FF6FF7101
:1019300001EA0020194988804FF45C40FFF73AF82B
:10194000FFF73FF8154989880843144988800846FD
:101950008088B0F5004F02D145F2105088800F48C2
:10196000808845F21051884230D0A120FFF722F83C
:10197000FFF727F809498880FFF723F8074988808F
:10198000084680884FF6FF7101EA002003498880ED
:10199000FFF717F80149898808430BE08805002004
:1019A0000008006C000C01400014014000180140C8
:1019B00000200140FE4988800846808845F2617118
:1019C000884203D141F66310F9498880F84881883C
:1019D000F8A007F0A3FAF648808849F2413188421E
:1019E0007ED1CF20FEF7E6FF0020FEF7E6FFC12004
:1019F000FEF7E3FF3020FEF7E0FFED20FEF7DAFF11
:101A00006420FEF7DAFF0320FEF7D7FF1220FEF76F
:101A1000D4FF8120FEF7D1FFE820FEF7CBFF852021
:101A2000FEF7CBFF1020FEF7C8FF7A20FEF7C5FFB8
:101A3000CB20FEF7BFFF3920FEF7BFFF2C20FEF7BB
:101A4000BCFF0020FEF7B9FF3420FEF7B6FF0220EE
:101A5000FEF7B3FFF720FEF7ADFF2020FEF7ADFF46
:101A6000EA20FEF7A7FF0020FEF7A7FF0020FEF701
:101A7000A4FFC020FEF79EFF1B20FEF79EFFC120A3
:101A8000FEF798FF0120FEF798FFC520FEF792FFB2
:101A90003020FEF792FF3020FEF78FFFC720FEF7C1
:101AA00089FFB720FEF789FF3620FEF783FF482025
:101AB000FEF783FF3A20FEF77DFF5520FEF77DFFFE
:101AC000B120FEF777FF0020FEF777FF1A20FEF720
:101AD00074FFB620FEF76EFF0A20FEF76EFF00E0EF
:101AE00097E0A220FEF769FFF220FEF763FF0020D7
:101AF000FEF763FF2620FEF75DFF0120FEF75DFF86
:101B0000E020FEF757FF0F20FEF757FF2A20FEF7D1
:101B100054FF2820FEF751FF0820FEF74EFF0E204D
:101B2000FEF74BFF0820FEF748FF5420FEF745FF65
:101B3000A920FEF742FF4320FEF73FFF0A20FEF7F1
:101B40003CFF0F20FEF739FF0020FEF736FF002094
:101B5000FEF733FF0020FEF730FF0020FEF72DFFD9
:101B6000E120FEF727FF0020FEF727FF1520FEF7F4
:101B700024FF1720FEF721FF0720FEF71EFF11208C
:101B8000FEF71BFF0620FEF718FF2B20FEF715FFC0
:101B90005620FEF712FF3C20FEF70FFF0520FEF750
:101BA0000CFF1020FEF709FF0F20FEF706FF3F2075
:101BB000FEF703FF3F20FEF700FF0F20FEF7FDFEBC
:101BC0002B20FEF7F7FE0020FEF7F7FE0020FEF7C1
:101BD000F4FE0120FEF7F1FE3F20FEF7EEFE2A2084
:101BE000FEF7E8FE0020FEF7E8FE0020FEF7E5FE27
:101BF0000020FEF7E2FEEF20FEF7DFFE1120FEF7E9
:101C0000D9FE782003F079FE2920FEF7D3FE03F0F9
:101C100022B96748808846F6040188427ED11120A7
:101C2000FEF7C8FE142003F068FED020FEF7C2FEC7
:101C30000720FEF7C2FE4220FEF7BFFE1D20FEF782
:101C4000BCFED120FEF7B6FE0020FEF7B6FE1A203D
:101C5000FEF7B3FE0920FEF7B0FED220FEF7AAFE83
:101C60000120FEF7AAFE2220FEF7A7FEC020FEF705
:101C7000A1FE1020FEF7A1FE3B20FEF79EFE0020F5
:101C8000FEF79BFE0220FEF798FE1120FEF795FE60
:101C9000C520FEF78FFE0320FEF78FFEC820FEF75B
:101CA00089FE0020FEF789FE2520FEF786FE212012
:101CB000FEF783FE0520FEF780FE0020FEF77DFE86
:101CC0000A20FEF77AFE6520FEF777FE2520FEF754
:101CD00074FE7720FEF771FE5020FEF76EFE0F2097
:101CE000FEF76BFE0020FEF768FEF820FEF762FEAE
:101CF0000120FEF762FEFE20FEF75CFE0020FEF7EC
:101D00005CFE0220FEF759FE2020FEF753FE36202F
:101D1000FEF750FE0820FEF750FE00E02AE03A20D1
:101D2000FEF748FE5520FEF748FE2B20FEF742FE48
:101D30000020FEF742FE0020FEF73FFE0120FEF7E6
:101D40003CFE3F20FEF739FE2A20FEF733FE00203E
:101D5000FEF733FE0020FEF730FE0120FEF72DFED9
:101D6000DF20FEF72AFE782003F0C7FD2920FEF7CA
:101D700021FE4CE70E48808845F21031884240F041
:101D80008487ED20FEF716FE0120FEF716FEFE20EA
:101D9000FEF713FEEE20FEF70DFEDE20FEF70DFE31
:101DA0002120FEF70AFEF120FEF704FE012009E0E3
:101DB00088050020204C43442049443A25780D0AE8
:101DC00000000000FEF7F9FDDF20FEF7F3FD102014
:101DD000FEF7F3FDC420FEF7EDFD8F20FEF7EDFDCD
:101DE000C620FEF7E7FD0020FEF7E7FDE220FEF744
:101DF000E4FDE220FEF7E1FDE220FEF7DEFDBF207C
:101E0000FEF7D8FDAA20FEF7D8FDB020FEF7D2FDE0
:101E10000D20FEF7D2FD0020FEF7CFFD0D20FEF7CE
:101E2000CCFD0020FEF7C9FD1120FEF7C6FD002005
:101E3000FEF7C3FD1920FEF7C0FD0020FEF7BDFD33
:101E40002120FEF7BAFD0020FEF7B7FD2D20FEF79A
:101E5000B4FD0020FEF7B1FD3D20FEF7AEFD0020F1
:101E6000FEF7ABFD5D20FEF7A8FD0020FEF7A5FD07
:101E70005D20FEF7A2FD0020FEF79FFDB120FEF7DA
:101E800099FD8020FEF799FD0020FEF796FD8B203E
:101E9000FEF793FD0020FEF790FD9620FEF78DFDE6
:101EA0000020FEF78AFDB220FEF784FD0020FEF739
:101EB00084FD0020FEF781FD0220FEF77EFD00205C
:101EC000FEF77BFD0320FEF778FD0020FEF775FD91
:101ED000B320FEF76FFD0020FEF76FFD0020FEF738
:101EE0006CFD0020FEF769FD0020FEF766FD002076
:101EF000FEF763FD0020FEF760FD0020FEF75DFDAC
:101F00000020FEF75AFD0020FEF757FD0020FEF7E7
:101F100054FD0020FEF751FD0020FEF74EFD00208D
:101F2000FEF74BFD0020FEF748FD0020FEF745FDC3
:101F30000020FEF742FD0020FEF73FFD0020FEF7E7
:101F40003CFD0020FEF739FD0020FEF736FD0020A5
:101F5000FEF733FD0020FEF730FD0020FEF72DFDDB
:101F60000020FEF72AFDB420FEF724FD8B20FEF7AB
:101F700024FD0020FEF721FD9620FEF71EFD002027
:101F8000FEF71BFDA120FEF718FD0020FEF715FD52
:101F9000B520FEF70FFD0220FEF70FFD0020FEF733
:101FA0000CFD0320FEF709FD0020FEF706FD0420CE
:101FB000FEF703FD0020FEF700FDB620FEF7FAFC59
:101FC0000020FEF7FAFC0020FEF7F7FCB720FEF732
:101FD000F1FC0020FEF7F1FC0020FEF7EEFC3F20B4
:101FE000FEF7EBFC0020FEF7E8FC5E20FEF7E5FCC8
:101FF0000020FEF7E2FC6420FEF7DFFC0020FEF785
:10200000DCFC8C20FEF7D9FC0020FEF7D6FCAC20CF
:10201000FEF7D3FC0020FEF7D0FCDC20FEF7CDFC61
:102020000020FEF7CAFC7020FEF7C7FC0020FEF778
:10203000C4FC9020FEF7C1FC0020FEF7BEFCEB20A4
:10204000FEF7BBFC0020FEF7B8FCDC20FEF7B5FC79
:102050000020FEF7B2FCB820FEF7ACFC0020FEF733
:10206000ACFC0020FEF7A9FC0020FEF7A6FC002037
:10207000FEF7A3FC0020FEF7A0FC0020FEF79DFC6D
:102080000020FEF79AFC0020FEF797FCBA20FEF72E
:1020900091FC2420FEF791FC0020FEF78EFC00202E
:1020A000FEF78BFC0020FEF788FCC120FEF782FCC7
:1020B0002020FEF782FC0020FEF77FFC5420FEF774
:1020C0007CFC0020FEF779FCFF20FEF776FC002068
:1020D000FEF773FCC220FEF76DFC0A20FEF76DFCD4
:1020E0000020FEF76AFC0420FEF767FC0020FEF7E4
:1020F00064FCC320FEF75EFC3C20FEF75EFC002083
:10210000FEF75BFC3A20FEF758FC0020FEF755FC7A
:102110003920FEF752FC0020FEF74FFC3720FEF777
:102120004CFC0020FEF749FC3C20FEF746FC00205A
:10213000FEF743FC3620FEF740FC0020FEF73DFC96
:102140003220FEF73AFC0020FEF737FC2F20FEF786
:1021500034FC0020FEF731FC2C20FEF72EFC002082
:10216000FEF72BFC2920FEF728FC0020FEF725FCBB
:102170002620FEF722FC0020FEF71FFC2420FEF79D
:102180001CFC0020FEF719FC2420FEF716FC0020A2
:10219000FEF713FC2320FEF710FC0020FEF70DFCD9
:1021A0003C20FEF70AFC0020FEF707FC3620FEF775
:1021B00004FC0020FEF701FC3220FEF7FEFB0020AD
:1021C000FEF7FBFB2F20FEF7F8FB0020FEF7F5FBE8
:1021D0002C20FEF7F2FB0020FEF7EFFB2920FEF794
:1021E000ECFB0020FEF7E9FB2620FEF7E6FB0020D3
:1021F000FEF7E3FB2420FEF7E0FB0020FEF7DDFB0B
:102200002420FEF7DAFB0020FEF7D7FB2320FEF7A1
:10221000D4FB0020FEF7D1FBC420FEF7CBFB6220ED
:10222000FEF7CBFB0020FEF7C8FB0520FEF7C5FB41
:102230000020FEF7C2FB8420FEF7BFFB0020FEF764
:10224000BCFBF020FEF7B9FB0020FEF7B6FB182020
:10225000FEF7B3FB0020FEF7B0FBA420FEF7ADFBBA
:102260000020FEF7AAFB1820FEF7A7FB0020FEF7D0
:10227000A4FB5020FEF7A1FB0020FEF79EFB0C20E4
:10228000FEF79BFB0020FEF798FB1720FEF795FB5F
:102290000020FEF792FB9520FEF78FFB0020FEF753
:1022A0008CFBF320FEF789FB0020FEF786FBE6207F
:1022B000FEF783FB0020FEF780FBC520FEF77AFBCC
:1022C0003220FEF77AFB0020FEF777FB4420FEF772
:1022D00074FB0020FEF771FB6520FEF76EFB00200B
:1022E000FEF76BFB7620FEF768FB0020FEF765FB30
:1022F0008820FEF762FB0020FEF75FFBC620FEF79A
:1023000059FB2020FEF759FB0020FEF756FB172053
:10231000FEF753FB0020FEF750FB0120FEF74DFBBC
:102320000020FEF74AFBC720FEF744FB0020FEF723
:1023300044FB0020FEF741FB0020FEF73EFB00209F
:10234000FEF73BFBC820FEF735FB0020FEF735FB10
:102350000020FEF732FB0020FEF72FFB0020FEF7E7
:102360002CFBC920FEF726FB0020FEF726FB0020F1
:10237000FEF723FB0020FEF720FB0020FEF71DFBED
:102380000020FEF71AFB0020FEF717FB0020FEF7E7
:1023900014FB0020FEF711FB0020FEF70EFB0020CF
:1023A000FEF70BFB0020FEF708FB0020FEF705FB05
:1023B0000020FEF702FB0020FEF7FFFA0020FEF7E8
:1023C000FCFA0020FEF7F9FAE020FEF7F3FA1620F7
:1023D000FEF7F3FA0020FEF7F0FA1C20FEF7EDFA04
:1023E0000020FEF7EAFA2120FEF7E7FA0020FEF7C8
:1023F000E4FA3620FEF7E1FA0020FEF7DEFA462086
:10240000FEF7DBFA0020FEF7D8FA5220FEF7D5FAE5
:102410000020FEF7D2FA6420FEF7CFFA0020FEF784
:10242000CCFA7A20FEF7C9FA0020FEF7C6FA8B2014
:10243000FEF7C3FA0020FEF7C0FA9920FEF7BDFAB6
:102440000020FEF7BAFAA820FEF7B7FA0020FEF740
:10245000B4FAB920FEF7B1FA0020FEF7AEFAC420B4
:10246000FEF7ABFA0020FEF7A8FACA20FEF7A5FA9D
:102470000020FEF7A2FAD220FEF79FFA0020FEF716
:102480009CFAD920FEF799FA0020FEF796FAE02090
:10249000FEF793FA0020FEF790FAF320FEF78DFA8C
:1024A0000020FEF78AFAE120FEF784FA1620FEF7F4
:1024B00084FA0020FEF781FA1C20FEF77EFA002045
:1024C000FEF77BFA2220FEF778FA0020FEF775FA75
:1024D0003620FEF772FA0020FEF76FFA4520FEF76D
:1024E0006CFA0020FEF769FA5220FEF766FA002027
:1024F000FEF763FA6420FEF760FA0020FEF75DFA4B
:102500007A20FEF75AFA0020FEF757FA8B20FEF7E2
:1025100054FA0020FEF751FA9920FEF74EFA0020F7
:10252000FEF74BFAA820FEF748FA0020FEF745FA1E
:10253000B920FEF742FA0020FEF73FFAC420FEF76A
:102540003CFA0020FEF739FACA20FEF736FA0020DE
:10255000FEF733FAD220FEF730FA0020FEF72DFA0C
:10256000D820FEF72AFA0020FEF727FAE020FEF72F
:1025700024FA0020FEF721FAF320FEF71EFA0020CD
:10258000FEF71BFAE220FEF715FA0520FEF715FA12
:102590000020FEF712FA0B20FEF70FFA0020FEF7DC
:1025A0000CFA1B20FEF709FA0020FEF706FA342089
:1025B000FEF703FA0020FEF700FA4420FEF7FDF9CB
:1025C0000020FEF7FAF94F20FEF7F7F90020FEF79A
:1025D000F4F96120FEF7F1F90020FEF7EEF9792019
:1025E000FEF7EBF90020FEF7E8F98820FEF7E5F9A1
:1025F0000020FEF7E2F99720FEF7DFF90020FEF752
:10260000DCF9A620FEF7D9F90020FEF7D6F9B720AD
:10261000FEF7D3F90020FEF7D0F9C220FEF7CDF97E
:102620000020FEF7CAF9C720FEF7C7F90020FEF721
:10263000C4F9D120FEF7C1F90020FEF7BEF9D6207B
:10264000FEF7BBF90020FEF7B8F9DD20FEF7B5F97B
:102650000020FEF7B2F9F320FEF7AFF90020FEF7F5
:10266000ACF9E320FEF7A6F90520FEF7A6F9002055
:10267000FEF7A3F90A20FEF7A0F90020FEF79DF966
:102680001C20FEF79AF90020FEF797F93320FEF799
:1026900094F90020FEF791F94420FEF78EF900200E
:1026A000FEF78BF95020FEF788F90020FEF785F938
:1026B0006220FEF782F90020FEF77FF97820FEF70E
:1026C0007CF90020FEF779F98820FEF776F90020E2
:1026D000FEF773F99720FEF770F90020FEF76DF909
:1026E000A620FEF76AF90020FEF767F9B720FEF78B
:1026F00064F90020FEF761F9C220FEF75EF90020C0
:10270000FEF75BF9C720FEF758F90020FEF755F9F0
:10271000D120FEF752F90020FEF74FF9D520FEF741
:102720004CF90020FEF749F9DD20FEF746F90020BC
:10273000FEF743F9F320FEF740F90020FEF73DF9DC
:10274000E420FEF737F90120FEF737F90020FEF705
:1027500034F90120FEF731F90020FEF72EF90220AE
:10276000FEF72BF90020FEF728F92A20FEF725F9BD
:102770000020FEF722F93C20FEF71FF90020FEF7AB
:102780001CF94B20FEF719F90020FEF716F95D2021
:10279000FEF713F90020FEF710F97420FEF70DF98B
:1027A0000020FEF70AF98420FEF707F90020FEF763
:1027B00004F99320FEF701F90020FEF7FEF8A220AD
:1027C000FEF7FBF80020FEF7F8F8B320FEF7F5F867
:1027D0000020FEF7F2F8BE20FEF7EFF80020FEF72B
:1027E000ECF8C420FEF7E9F80020FEF7E6F8CD206B
:1027F000FEF7E3F80020FEF7E0F8D320FEF7DDF85F
:102800000020FEF7DAF8DD20FEF7D7F80020FEF70B
:10281000D4F8F320FEF7D1F80020FEF7CEF8E5203B
:10282000FEF7C8F80020FEF7C8F80020FEF7C5F84C
:102830000020FEF7C2F80020FEF7BFF80220FEF7E6
:10284000BCF80020FEF7B9F82920FEF7B6F8002002
:10285000FEF7B3F83C20FEF7B0F80020FEF7ADF825
:102860004B20FEF7AAF80020FEF7A7F85D20FEF740
:10287000A4F80020FEF7A1F87420FEF79EF80020CF
:10288000FEF79BF88420FEF798F80020FEF795F8F5
:102890009320FEF792F80020FEF78FF8A220FEF7B3
:1028A0008CF80020FEF789F8B320FEF786F80020A8
:1028B000FEF783F8BE20FEF780F80020FEF77DF8D3
:1028C000C420FEF77AF80020FEF777F8CD20FEF757
:1028D00074F80020FEF771F8D320FEF76EF80020A0
:1028E000FEF76BF8DC20FEF768F80020FEF765F8CD
:1028F000F320FEF762F80020FEF75FF8E620FEF70F
:1029000059F81120FEF759F80020FEF756F8342048
:10291000FEF753F80020FEF750F85620FEF74DF86A
:102920000020FEF74AF87620FEF747F80020FEF771
:1029300044F87720FEF741F80020FEF73EF86620C5
:10294000FEF73BF80020FEF738F88820FEF735F850
:102950000020FEF732F89920FEF72FF80020FEF74E
:102960002CF8BB20FEF729F80020FEF726F8992066
:10297000FEF723F80020FEF720F86620FEF71DF88A
:102980000020FEF71AF85520FEF717F80020FEF792
:1029900014F85520FEF711F80020FEF70EF8452038
:1029A000FEF70BF80020FEF708F84320FEF705F8C5
:1029B0000020FEF702F84420FDF7FFFF0020FDF79E
:1029C000FCFFE720FDF7F6FF3220FDF7F6FF0020C1
:1029D000FDF7F3FF5520FDF7F0FF0020FDF7EDFFB9
:1029E0007620FDF7EAFF0020FDF7E7FF6620FDF700
:1029F000E4FF0020FDF7E1FF6720FDF7DEFF002088
:102A0000FDF7DBFF6720FDF7D8FF0020FDF7D5FFBE
:102A10008720FDF7D2FF0020FDF7CFFF9920FDF7BB
:102A2000CCFF0020FDF7C9FFBB20FDF7C6FF00204B
:102A3000FDF7C3FF9920FDF7C0FF0020FDF7BDFFA4
:102A40007720FDF7BAFF0020FDF7B7FF4420FDF720
:102A5000B4FF0020FDF7B1FF5620FDF7AEFF0020C8
:102A6000FDF7ABFF2320FDF7A8FF0020FDF7A5FF32
:102A70003320FDF7A2FF0020FDF79FFF4520FDF763
:102A80009CFF0020FDF799FFE820FDF793FF002051
:102A9000FDF793FF0020FDF790FF9920FDF78DFFD4
:102AA0000020FDF78AFF8720FDF787FF0020FDF754
:102AB00084FF8820FDF781FF0020FDF77EFF77204F
:102AC000FDF77BFF0020FDF778FF6620FDF775FF1F
:102AD0000020FDF772FF8820FDF76FFF0020FDF753
:102AE0006CFFAA20FDF769FF0020FDF766FFBB2001
:102AF000FDF763FF0020FDF760FF9920FDF75DFF04
:102B00000020FDF75AFF6620FDF757FF0020FDF774
:102B100054FF5520FDF751FF0020FDF74EFF5520D3
:102B2000FDF74BFF0020FDF748FF4420FDF745FF70
:102B30000020FDF742FF4420FDF73FFF0020FDF796
:102B40003CFF5520FDF739FF0020FDF736FFE92057
:102B5000FDF730FFAA20FDF730FF0020FDF72DFF25
:102B60000020FDF72AFF0020FDF727FF0020FDF7DA
:102B700021FFAA20FDF721FFCF20FDF71BFF00203A
:102B8000FDF71BFF0020FDF718FF0020FDF715FFE4
:102B90000020FDF712FF0020FDF70FFF0020FDF7DA
:102BA0000CFF0020FDF709FF0020FDF706FF0020C5
:102BB000FDF703FF0020FDF700FF0020FDF7FDFEFD
:102BC0000020FDF7FAFE0020FDF7F7FE0020FDF7DC
:102BD000F4FE0020FDF7F1FE0020FDF7EEFE0020E0
:102BE000FDF7EBFEF020FDF7E5FE0020FDF7E5FE2A
:102BF0005020FDF7E2FE0020FDF7DFFE0020FDF78C
:102C0000DCFE0020FDF7D9FEF320FDF7D3FE002007
:102C1000FDF7D3FEF920FDF7CDFE0620FDF7CDFE32
:102C20001020FDF7CAFE2920FDF7C7FE0020FDF7A2
:102C3000C4FE3A20FDF7BEFE5520FDF7BEFE112072
:102C4000FDF7B8FE642002F058FE2920FDF7B2FE21
:102C50003520FDF7AFFE0020FDF7AFFE5120FDF758
:102C6000A9FEFF20FDF7A9FE5320FDF7A3FE2C20AF
:102C7000FDF7A3FE5520FDF79DFE8220FDF79DFE8A
:102C80002C20FDF797FE02F0E6B8FE48808845F25A
:102C9000105188427ED155214FF47040FDF799FEC6
:102CA000AA214FF20100FDF794FE52214FF20200DB
:102CB000FDF78FFE08214FF20300FDF78AFE012188
:102CC0004FF20400FDF785FE0D214FF43040FDF773
:102CD00080FE0D214BF20100FDF77BFE0D214BF232
:102CE0000200FDF776FE34214FF43640FDF771FE09
:102CF00034214BF20160FDF76CFE34214BF202608F
:102D0000FDF767FE0D214FF43140FDF762FE0D2106
:102D10004BF20110FDF75DFE0D214BF20210FDF7A5
:102D200058FE34214FF43740FDF753FE34214BF267
:102D30000170FDF74EFE34214BF20270FDF749FEA3
:102D400000214FF43240FDF744FE00214BF20120F8
:102D5000FDF73FFE00214BF20220FDF73AFE242151
:102D60004FF43840FDF735FE24214BF60100FDF706
:102D700030FE24214BF60200FDF72BFE01214FF41B
:102D80003F40FDF726FE0F214FF43340FDF721FEB3
:102D90000F2100E0FEE34BF20130FDF71AFE0F2198
:102DA0004BF20230FDF715FE34214FF43940FDF7A8
:102DB00010FE34214BF60110FDF70BFE34214BF6CB
:102DC0000210FDF706FE08214FF43540FDF701FE25
:102DD00008214BF20150FDF7FCFD08214BF2025097
:102DE000FDF7F7FD03214FF44240FDF7F2FD2421EA
:102DF0004FF43A40FDF7EDFD24214BF60120FDF79D
:102E0000E8FD24214BF60220FDF7E3FD00214FF4FD
:102E10003C40FDF7DEFD78214BF60140FDF7D9FD82
:102E200000214BF60240FDF7D4FD00214FF43D4058
:102E3000FDF7CFFD78214BF60150FDF7CAFD0021CB
:102E40004BF60250FDF7C5FD00214FF43E40FDF763
:102E5000C0FD64214BF60160FDF7BBFD00214FF47E
:102E60005140FDF7B6FD33214DF20110FDF7B1FDE4
:102E700000214DF20210FDF7ACFD34214DF203109C
:102E8000FDF7A7FD00214DF20410FDF7A2FD3A2148
:102E90004DF20510FDF79DFD00214DF20610FDF7E6
:102EA00098FD4A214DF20710FDF793FD00214DF2E8
:102EB0000810FDF78EFD5C214DF20910FDF789FD2C
:102EC00000214DF20A10FDF784FD81214DF20B1017
:102ED000FDF77FFD00214DF20C10FDF77AFDA621D4
:102EE0004DF20D10FDF775FD00214DF20E10FDF7AE
:102EF00070FDE5214DF20F10FDF76BFD01214DF244
:102F00001010FDF766FD13214DF21110FDF761FD64
:102F100001214DF21210FDF75CFD54214DF213100A
:102F2000FDF757FD01214DF21410FDF752FD8221EE
:102F30004DF21510FDF74DFD01214DF21610FDF774
:102F400048FDCA214DF21710FDF743FD02214DF255
:102F50001810FDF73EFD00214DF21910FDF739FD67
:102F600002214DF21A10FDF734FD01214DF21B1024
:102F7000FDF72FFD02214DF21C10FDF72AFD342133
:102F80004DF21D10FDF725FD02214DF21E10FDF73B
:102F900020FD67214DF21F10FDF71BFD02214DF2B0
:102FA0002010FDF716FD84214DF22110FDF711FDD3
:102FB00002214DF22210FDF70CFDA4214DF2231049
:102FC000FDF707FD02214DF22410FDF702FDB721A8
:102FD0004DF22510FDF7FDFC02214DF22610FDF704
:102FE000F8FCCF214DF22710FDF7F3FC02214DF242
:102FF0002810FDF7EEFCDE214DF22910FDF7E9FC6B
:1030000002214DF22A10FDF7E4FCF2214DF22B10C3
:10301000FDF7DFFC02214DF22C10FDF7DAFCFE215A
:103020004DF22D10FDF7D5FC03214DF22E10FDF7CA
:10303000D0FC10214DF22F10FDF7CBFC03214DF2F7
:103040003010FDF7C6FC33214DF23110FDF7C1FC05
:1030500003214DF23210FDF7BCFC6D214DF233100F
:10306000FDF7B7FC00214FF45240FDF7B2FC3321CD
:103070004DF20120FDF7ADFC00214DF20220FDF7DD
:10308000A8FC01E08805002034214DF20320FDF763
:10309000A0FC00214DF20420FDF79BFC3A214DF2EB
:1030A0000520FDF796FC00214DF20620FDF791FC6E
:1030B0004A214DF20720FDF78CFC00214DF208203B
:1030C000FDF787FC5C214DF20920FDF782FC002111
:1030D0004DF20A20FDF77DFC81214DF20B20FDF71A
:1030E00078FC00214DF20C20FDF773FCA6214DF277
:1030F0000D20FDF76EFC00214DF20E20FDF769FC5E
:10310000E5214DF20F20FDF764FC01214DF2102066
:10311000FDF75FFC13214DF21120FDF75AFC012150
:103120004DF21220FDF755FC54214DF21320FDF70E
:1031300050FC01214DF21420FDF74BFC82214DF291
:103140001520FDF746FC01214DF21620FDF741FC4C
:10315000CA214DF21720FDF73CFC02214DF2182048
:10316000FDF737FC00214DF21920FDF732FC02215A
:103170004DF21A20FDF72DFC01214DF21B20FDF729
:1031800028FC02214DF21C20FDF723FC34214DF2D6
:103190001D20FDF71EFC02214DF21E20FDF719FC3B
:1031A00067214DF21F20FDF714FC02214DF2202073
:1031B000FDF70FFC84214DF22120FDF70AFC0221CE
:1031C0004DF22220FDF705FCA4214DF22320FDF74E
:1031D00000FC02214DF22420FDF7FBFBB7214DF24C
:1031E0002520FDF7F6FB02214DF22620FDF7F1FB2D
:1031F000CF214DF22720FDF7ECFB02214DF22820D4
:10320000FDF7E7FBDE214DF22920FDF7E2FB02216D
:103210004DF22A20FDF7DDFBF2214DF22B20FDF7C8
:10322000D8FB02214DF22C20FDF7D3FBFE214DF2FD
:103230002D20FDF7CEFB03214DF22E20FDF7C9FB1B
:1032400010214DF22F20FDF7C4FB03214DF2302059
:10325000FDF7BFFB33214DF23120FDF7BAFB03210F
:103260004DF23220FDF7B5FB6D214DF23320FDF715
:10327000B0FB00214FF45340FDF7ABFB33214DF27F
:103280000130FDF7A6FB00214DF20230FDF7A1FB56
:1032900034214DF20330FDF79CFB00214DF2043048
:1032A000FDF797FB3A214DF20530FDF792FB002127
:1032B0004DF20630FDF78DFB4A214DF20730FDF748
:1032C00088FB00214DF20830FDF783FB5C214DF2B5
:1032D0000930FDF77EFB00214DF20A30FDF779FB46
:1032E00081214DF20B30FDF774FB00214DF20C30C3
:1032F000FDF76FFBA6214DF20D30FDF76AFB0021B3
:103300004DF20E30FDF765FBE5214DF20F30FDF774
:1033100060FB01214DF21030FDF75BFB13214DF2F4
:103320001130FDF756FB01214DF21230FDF751FB34
:1033300054214DF21330FDF74CFB01214DF21430B6
:10334000FDF747FB82214DF21530FDF742FB0121CD
:103350004DF21630FDF73DFBCA214DF21730FDF757
:1033600038FB02214DF21830FDF733FB00214DF2FE
:103370001930FDF72EFB02214DF21A30FDF729FB23
:1033800001214DF21B30FDF724FB02214DF21C30D0
:10339000FDF71FFB34214DF21D30FDF71AFB022112
:1033A0004DF21E30FDF715FB67214DF21F30FDF782
:1033B00010FB02214DF22030FDF70BFB84214DF272
:1033C0002130FDF706FB02214DF22230FDF701FB13
:1033D000A4214DF22330FDF7FCFA02214DF22430F6
:1033E000FDF7F7FAB7214DF22530FDF7F2FA022189
:1033F0004DF22630FDF7EDFACF214DF22730FDF7E3
:10340000E8FA02214DF22830FDF7E3FADE214DF211
:103410002930FDF7DEFA02214DF22A30FDF7D9FA04
:10342000F2214DF22B30FDF7D4FA02214DF22C306F
:10343000FDF7CFFAFE214DF22D30FDF7CAFA032138
:103440004DF22E30FDF7C5FA10214DF22F30FDF769
:10345000C0FA03214DF23030FDF7BBFA33214DF2B3
:103460003130FDF7B6FA03214DF23230FDF7B1FAF3
:103470006D214DF23330FDF7ACFA00214FF454408A
:10348000FDF7A7FA33214DF20140FDF7A2FA002122
:103490004DF20240FDF79DFA34214DF20340FDF755
:1034A00098FA00214DF20440FDF793FA3A214DF2CB
:1034B0000540FDF78EFA00214DF20640FDF789FA2E
:1034C0004A214DF20740FDF784FA00214DF20840F1
:1034D000FDF77FFA5C214DF20940FDF77AFA0021F1
:1034E0004DF20A40FDF775FA81214DF20B40FDF7D0
:1034F00070FA00214DF20C40FDF76BFAA6214DF257
:103500000D40FDF766FA00214DF20E40FDF761FA1D
:10351000E5214DF20F40FDF75CFA01214DF210401C
:10352000FDF757FA13214DF21140FDF752FA012130
:103530004DF21240FDF74DFA54214DF21340FDF7C4
:1035400048FA01214DF21440FDF743FA82214DF271
:103550001540FDF73EFA01214DF21640FDF739FA0C
:10356000CA214DF21740FDF734FA02214DF21840FE
:10357000FDF72FFA00214DF21940FDF72AFA02213A
:103580004DF21A40FDF725FA01214DF21B40FDF7DF
:1035900020FA00E004E302214DF21C40FDF719FA85
:1035A00034214DF21D40FDF714FA02214DF21E4068
:1035B000FDF70FFA67214DF21F40FDF70AFA0221CD
:1035C0004DF22040FDF705FA84214DF22140FDF730
:1035D00000FA02214DF22240FDF7FBF9A4214DF241
:1035E0002340FDF7F6F902214DF22440FDF7F1F9F1
:1035F000B7214DF22540FDF7ECF902214DF22640AE
:10360000FDF7E7F9CF214DF22740FDF7E2F902215E
:103610004DF22840FDF7DDF9DE214DF22940FDF79E
:10362000D8F902214DF22A40FDF7D3F9F2214DF2EB
:103630002B40FDF7CEF902214DF22C40FDF7C9F9E0
:10364000FE214DF22D40FDF7C4F903214DF22E402D
:10365000FDF7BFF910214DF22F40FDF7BAF9032114
:103660004DF23040FDF7B5F933214DF23140FDF711
:10367000B0F903214DF23240FDF7ABF96D214DF267
:103680003340FDF7A6F900214FF45540FDF7A1F9AD
:1036900033214DF20150FDF79CF900214DF202500B
:1036A000FDF797F934214DF20350FDF792F900210F
:1036B0004DF20450FDF78DF93A214DF20550FDF71A
:1036C00088F900214DF20650FDF783F94A214DF2A9
:1036D0000750FDF77EF900214DF20850FDF779F90A
:1036E0005C214DF20950FDF774F900214DF20A50AA
:1036F000FDF76FF981214DF20B50FDF76AF90021BA
:103700004DF20C50FDF765F9A6214DF20D50FDF775
:1037100060F900214DF20E50FDF75BF9E5214DF205
:103720000F50FDF756F901214DF21050FDF751F9F8
:1037300013214DF21150FDF74CF901214DF21250B9
:10374000FDF747F954214DF21350FDF742F90121DD
:103750004DF21450FDF73DF982214DF21550FDF761
:1037600038F901214DF21650FDF733F9CA214DF217
:103770001750FDF72EF902214DF21850FDF729F9E7
:1037800000214DF21950FDF724F902214DF21A5093
:10379000FDF71FF901214DF21B50FDF71AF9022127
:1037A0004DF21C50FDF715F934214DF21D50FDF777
:1037B00010F902214DF21E50FDF70BF967214DF271
:1037C0001F50FDF706F902214DF22050FDF701F9D7
:1037D00084214DF22150FDF7FCF802214DF22250D8
:1037E000FDF7F7F8A4214DF22350FDF7F2F802217E
:1037F0004DF22450FDF7EDF8B7214DF22550FDF7BD
:10380000E8F802214DF22650FDF7E3F8CF214DF202
:103810002750FDF7DEF802214DF22850FDF7D9F8C8
:10382000DE214DF22950FDF7D4F802214DF22A5045
:10383000FDF7CFF8F2214DF22B50FDF7CAF8022127
:103840004DF22C50FDF7C5F8FE214DF22D50FDF73D
:10385000C0F803214DF22E50FDF7BBF810214DF2B8
:103860002F50FDF7B6F803214DF23050FDF7B1F8B7
:1038700033214DF23150FDF7ACF803214DF23250B7
:10388000FDF7A7F86D214DF23350FDF7A2F80021A6
:103890004FF45640FDF79DF833214DF20160FDF7DE
:1038A00098F800214DF20260FDF793F834214DF2B3
:1038B0000360FDF78EF800214DF20460FDF789F8F2
:1038C0003A214DF20560FDF784F800214DF20660C3
:1038D000FDF77FF84A214DF20760FDF77AF80021E5
:1038E0004DF20860FDF775F85C214DF20960FDF7B7
:1038F00070F800214DF20A60FDF76BF881214DF25E
:103900000B60FDF766F800214DF20C60FDF761F8E1
:10391000A6214DF20D60FDF75CF800214DF20E601E
:10392000FDF757F8E5214DF20F60FDF752F8012140
:103930004DF21060FDF74DF813214DF21160FDF7C7
:1039400048F801214DF21260FDF743F854214DF281
:103950001360FDF73EF801214DF21460FDF739F8D0
:1039600082214DF21560FDF734F801214DF2166009
:10397000FDF72FF8CA214DF21760FDF72AF8022152
:103980004DF21860FDF725F800214DF21960FDF7A2
:1039900020F802214DF21A60FDF71BF801214DF2CB
:1039A0001B60FDF716F802214DF21C60FDF711F8BF
:1039B00034214DF21D60FDF70CF802214DF21E601E
:1039C000FDF707F867214DF21F60FDF702F80221AD
:1039D0004DF22060FCF7FDFF84214DF22160FCF7E1
:1039E000F8FF02214DF22260FCF7F3FFA4214DF213
:1039F0002360FCF7EEFF02214DF22460FCF7E9FFA3
:103A0000B7214DF22560FCF7E4FF02214DF226605C
:103A1000FCF7DFFFCF214DF22760FCF7DAFF022130
:103A20004DF22860FCF7D5FFDE214DF22960FCF74E
:103A3000D0FF02214DF22A60FCF7CBFFF2214DF2BC
:103A40002B60FCF7C6FF02214DF22C60FCF7C1FF92
:103A5000FE214DF22D60FCF7BCFF03214DF22E60DC
:103A6000FCF7B7FF10214DF22F60FCF7B2FF0321E6
:103A70004DF23060FCF7ADFF33214DF23160FCF7C1
:103A8000A8FF03214DF23260FCF7A3FF6D214DF238
:103A90003360FCF79EFF55214FF47040FCF799FF0F
:103AA000AA214FF20100FCF794FF52214FF20200CD
:103AB000FCF78FFF08214FF20300FCF78AFF00217B
:103AC0004FF20400FCF785FFCC214FF43140FCF7A6
:103AD00080FF00214BF20110FCF77BFF05214FF422
:103AE0003640FCF776FF70214FF43740FCF771FF4A
:103AF00070214BF20170FCF76CFF01214FF438404C
:103B0000FCF767FF03214BF60100FCF762FF03217E
:103B10004BF60200FCF75DFF03214BF60300FCF7B8
:103B200058FF02214FF43C40FCF753FF00214BF6B5
:103B30000140FCF74EFF00214BF60240FCF749FF25
:103B4000D0214FF44940FCF744FF02214CF601100C
:103B5000FCF73FFF50214CF60210FCF73AFF5021D2
:103B60004CF60310FCF735FF50214CF60410FCF71F
:103B700030FF00214FF45450FCF72BFF55214FF438
:103B80006850FCF726FF4FF48850FCF713FF7820AD
:103B900001F08FFE4FF42450FCF70CFF01F05BB9ED
:103BA000FE48808849F2253188427DD147F6F001F0
:103BB000E520FCF70EFF4FF480710120FCF709FFB0
:103BC0004FF4E0610220FCF704FF41F230010320D2
:103BD000FCF7FFFE00210420FCF7FBFE40F202216F
:103BE0000820FCF7F6FE00210920FCF7F2FE002178
:103BF0000A20FCF7EEFE00210C20FCF7EAFE002173
:103C00000D20FCF7E6FE00210F20FCF7E2FE00216C
:103C10001020FCF7DEFE07211120FCF7DAFE002160
:103C20001220FCF7D6FE00211320FCF7D2FE002163
:103C30000720FCF7CEFE41F290611020FCF7C9FE90
:103C400040F227211120FCF7C4FE9D211220FCF731
:103C5000C0FE4FF4C8511320FCF7BBFE25212920DC
:103C6000FCF7B7FE0D212B20FCF7B3FE0721302017
:103C7000FCF7AFFE40F203313120FCF7AAFE03212E
:103C80003220FCF7A6FE40F206213520FCF7A1FE0B
:103C900008213620FCF79DFE40F206413720FCF754
:103CA00098FE4FF4417100E058E03820FCF791FE97
:103CB00007213920FCF78DFE40F202613C20FCF721
:103CC00088FE08213D20FCF784FE00215020FCF7EF
:103CD00080FEEF215120FCF77CFE00215220FCF7F2
:103CE00078FE40F23F115320FCF773FE4FF427415A
:103CF0006020FCF76EFE01216120FCF76AFE0021C6
:103D00006A20FCF766FE00218020FCF762FE00219D
:103D10008120FCF75EFE00218220FCF75AFE002184
:103D20008320FCF756FE00218420FCF752FE002180
:103D30008520FCF74EFE10219020FCF74AFE4FF440
:103D4000C0619220FCF745FE40F233110720FCF7DA
:103D500040FE22210020FCF73CFE1FE78F488088B0
:103D600049F2283188427DD141F28F01EC20FCF7E5
:103D700030FE41F23421EF20FCF72BFE4FF480712E
:103D80000120FCF726FE4FF4E0610220FCF721FE43
:103D900041F230010320FCF71CFE00210420FCF757
:103DA00018FE40F202210820FCF713FE0021092032
:103DB000FCF70FFE00210A20FCF70BFE01210C206E
:103DC000FCF707FE00210D20FCF703FE00210F2069
:103DD000FCF7FFFD00211020FCF7FBFD072111205F
:103DE000FCF7F7FD00211220FCF7F3FD0021132062
:103DF000FCF7EFFD01210720FCF7EBFD322001F07D
:103E00007CFD41F290411020FCF7E3FD40F22721B8
:103E10001120FCF7DEFD322001F06FFD8A21122017
:103E2000FCF7D7FD322001F068FD4FF4D05113208C
:103E3000FCF7CFFD06212920FCF7CBFD0D212B201F
:103E4000FCF7C7FD322001F058FD00212020FCF7CF
:103E5000C0FD00212120FCF7BCFD322001F04DFD0A
:103E6000002100E075E03020FCF7B3FD40F2046172
:103E70003120FCF7AEFD40F205313220FCF7A9FD00
:103E800000213520FCF7A5FD40F609413620FCF75E
:103E9000A0FD4FF401713720FCF79BFD40F201318A
:103EA0003820FCF796FD40F207713920FCF791FDB0
:103EB00000213C20FCF78DFD40F60A213D20FCF757
:103EC00088FD322001F019FD00215020FCF781FD12
:103ED000EF215120FCF77DFD00215220FCF779FDF8
:103EE00040F23F115320FCF774FD4FF4274160204E
:103EF000FCF76FFD01216120FCF76BFD00216A20BA
:103F0000FCF767FD00218020FCF763FD0021812084
:103F1000FCF75FFD00218220FCF75BFD0021832080
:103F2000FCF757FD00218420FCF753FD002185207C
:103F3000FCF74FFD10219020FCF74BFD4FF4C061C2
:103F40009220FCF746FD40F233110720FCF741FDBB
:103F500024E61248808849F2203188427ED100212F
:103F60000846FCF736FD4FF480710120FCF731FD67
:103F70004FF4E0610220FCF72CFD41F230010320F8
:103F8000FCF727FD00210420FCF723FD40F202216D
:103F90000820FCF71EFD0021092001E08805002013
:103FA000FCF717FD00210A20FCF713FD01210C206E
:103FB000FCF70FFD00210D20FCF70BFD00210F2069
:103FC000FCF707FD322001F098FC40F201110720B8
:103FD000FCF7FFFC322001F090FC4FF486511020DA
:103FE000FCF7F7FC07211120FCF7F3FC4FF4887174
:103FF0001220FCF7EEFC4FF430611320FCF7E9FCD3
:1040000000212920FCF7E5FC44F210012B20FCF7ED
:10401000E0FC00215020FCF7DCFCEF215120FCF7F4
:10402000D8FC00215220FCF7D4FC40F23F11532071
:10403000FCF7CFFC4FF41C516020FCF7CAFC0121B7
:104040006120FCF7C6FC00216A20FCF7C2FC0021BD
:104050008020FCF7BEFC0021812000E030E0FCF76E
:10406000B8FC00218220FCF7B4FC00218320FCF77F
:10407000B0FC00218420FCF7ACFC00218520FCF77B
:10408000A8FC10219020FCF7A4FC00219220FCF752
:10409000A0FC01219320FCF79CFC4FF48871952033
:1040A000FCF797FC00219720FCF793FC0021982057
:1040B000FCF78FFC40F273110720FCF78AFC6DE5DA
:1040C000FE48808849F2313188427DD141F21401A5
:1040D000E720FCF77EFC4FF480710120FCF779FCAF
:1040E0004FF400710220FCF774FC41F23801032008
:1040F000FCF76FFC40F202210820FCF76AFC00216B
:104100000920FCF766FC00210A20FCF762FC002174
:104110000C20FCF75EFC00210D20FCF75AFC00216E
:104120000F20FCF756FC00211020FCF752FC072161
:104130001120FCF74EFC00211220FCF74AFC002164
:104140001320FCF746FCC82001F0D7FB41F2906138
:104150001020FCF73EFC40F227211120FCF739FC2F
:10416000322001F0CAFB0C211220FCF732FC322075
:1041700001F0C3FB4FF400611320FCF72AFC11216E
:104180002920FCF726FC0B212B20FCF722FC3220F7
:1041900001F0B3FB00212020FCF71BFC40F23F1193
:1041A0002120FCF716FC00213020FCF712FC4FF414
:1041B00083713120FCF70DFC00213220FCF709FC53
:1041C0004FF40171352000E064E0FCF702FC41F29D
:1041D0000A613620FCF7FDFB40F207713720FCF73F
:1041E000F8FB4FF483713820FCF7F3FB40F20771C2
:1041F0003920FCF7EEFB40F202413C20FCF7E9FBE2
:1042000040F60F413D20FCF7E4FB00215020FCF775
:10421000E0FBEF215120FCF7DCFB00215220FCF7F2
:10422000D8FB40F23F115320FCF7D3FB4FF41C5155
:104230006020FCF7CEFB01216120FCF7CAFB0021C6
:104240006A20FCF7C6FB00218020FCF7C2FB00219E
:104250008120FCF7BEFB00218220FCF7BAFB002185
:104260008320FCF7B6FB00218420FCF7B2FB002181
:104270008520FCF7AEFB10219020FCF7AAFB4FF441
:10428000C0619220FCF7A5FB40F233110720FCF738
:10429000A0FB83E48948808845F2084188427DD1AB
:1042A0004FF480710120FCF794FB4FF4E061022091
:1042B000FCF78FFB41F230010320FCF78AFB002161
:1042C0000420FCF786FB40F207210820FCF781FB65
:1042D00000210920FCF77DFB00210A20FCF779FB77
:1042E00000210C20FCF775FB00210D20FCF771FB71
:1042F00000210F20FCF76DFB142001F0FEFA41F2C3
:10430000B0611020FCF765FB01211120FCF761FB77
:1043100001211720FCF75DFB4FF49C711220FCF784
:1043200058FB4FF400611320FCF753FB09212920AF
:10433000FCF74FFB09212A20FCF74BFB0021A420AE
:10434000FCF747FB00215020FCF743FBEF215120F5
:10435000FCF73FFB00215220FCF73BFB40F23F11F2
:104360005320FCF736FB4FF41C516020FCF731FB67
:1043700001216120FCF72DFB00216A20FCF729FBBD
:1043800000218020FCF725FB00218120FCF721FB88
:1043900000218220FCF71DFB002100E024E08320A7
:1043A000FCF717FB00218420FCF713FB002185207C
:1043B000FCF70FFB13219020FCF70BFB0021922050
:1043C000FCF707FB03219320FCF703FB4FF48871F4
:1043D0009520FCF7FEFA40F273110720FCF7F9FA7A
:1043E000322001F08AFAB8E43448808841F205515D
:1043F00088427DD100210720FCF7EBFA322001F042
:104400007CFA4FF48E711220FCF7E3FA0121A4200C
:10441000FCF7DFFA0F210820FCF7DBFA08210A205D
:10442000FCF7D7FA08210D20FCF7D3FA40F2077108
:104430003020FCF7CEFA07213120FCF7CAFA40F20F
:1044400003613220FCF7C5FA4FF4E0613320FCF73A
:10445000C0FA40F202213420FCF7BBFA02213520D9
:10446000FCF7B7FA41F60F713620FCF7B2FA40F2CA
:1044700007713720FCF7ADFA00213820FCF7A9FAC4
:1044800000213920FCF7A5FA40F207713A20FCF729
:10449000A0FA00213B20FCF79CFA07213C20FCF706
:1044A00098FA00213D20FCF794FA322001F025FA19
:1044B00001210720FCF78DFA012101E08805002089
:1044C0001720FCF786FA322001F017FA4FF4BD519D
:1044D0001020FCF77EFA40F217211120FCF779FA40
:1044E0004FF48F711220FCF774FA4FF4706100E002
:1044F00098E01320FCF76DFA00212A20FCF769FAF6
:104500000A212920FCF765FA4FF49F711220FCF76D
:1045100060FA00215020FCF75CFAEF215120FCF7F3
:1045200058FA00215220FCF754FA40F23F11532070
:10453000FCF74FFA4FF41C516020FCF74AFA0121B6
:104540006120FCF746FA00216A20FCF742FA0021BC
:104550008020FCF73EFA00218120FCF73AFA002186
:104560008220FCF736FA00218320FCF732FA002182
:104570008420FCF72EFA00218520FCF72AFA13216B
:104580009020FCF726FA4FF440719220FCF721FAB4
:1045900005219320FCF71DFA00219520FCF719FA5C
:1045A00000219720FCF715FA00219820FCF711FA5A
:1045B0004FF480710120FCF70CFA4FF4E061022007
:1045C000FCF707FA41F238010320FCF702FA002158
:1045D0000420FCF7FEF900210C20FCF7FAF9002179
:1045E0000F20FCF7F6F900212020FCF7F2F900215A
:1045F0002120FCF7EEF921210720FCF7EAF914202D
:1046000001F07BF961210720FCF7E3F9142001F0A8
:1046100074F940F273110720FCF7DBF9142001F064
:104620006CF995E4FE4880884BF2055188427CD1B4
:1046300000210846FCF7CDF900210846FCF7C9F92E
:1046400000210846FCF7C5F900210846FCF7C1F92E
:104650000121A420FCF7BDF9142001F04EF94FF41C
:104660001C516020FCF7B5F940F202210820FCF74C
:10467000B0F94FF405713020FCF7ABF943F2157136
:104680003120FCF7A6F940F204613220FCF7A1F9D1
:1046900040F616613320FCF79CF942F211213420D8
:1046A000FCF797F94FF4A8513520FCF792F948F23E
:1046B00007513620FCF78DF941F207413720FCF70E
:1046C00088F941F203413820FCF783F92021392091
:1046D000FCF77FF91A219020FCF77BF900211020CC
:1046E000FCF777F907211120FCF773F9002112205C
:1046F000FCF76FF900211320FCF76BF9142001F08F
:10470000FCF84FF4E6611020FCF763F940F2371132
:104710001120FCF75EF9142001F0EFF84FF4DC7182
:104720001220FCF756F9142000E085E001F0E5F8CE
:104730004FF470611320FCF74CF980212A20FCF71C
:1047400048F948212920FCF744F9142001F0D5F854
:104750004FF480710120FCF73CF94FF4E061022036
:10476000FCF737F941F238010320FCF732F940F247
:1047700002210820FCF72DF900210A20FCF729F975
:1047800000210C20FCF725F900210D20FCF721F970
:1047900030210E20FCF71DF900215020FCF719F9FB
:1047A000EF215120FCF715F900215220FCF711F9F7
:1047B00040F23F115320FCF70CF94FF41C516020DC
:1047C000FCF707F901216120FCF703F900216A20B9
:1047D000FCF7FFF811219020FCF7FBF84FF4C061C3
:1047E0009220FCF7F6F840F202419320FCF7F1F832
:1047F00002219420FCF7EDF8142001F07EF801214D
:104800000720FCF7E6F8142001F077F86121072073
:10481000FCF7DFF840F273110720FCF7DAF800210B
:104820002020FCF7D6F800212120FCF7D2F8222125
:104830000020FCF7CEF80EE3794880884CF2055151
:1048400088427CD100210846FCF7C3F800210846C5
:10485000FCF7BFF8142001F050F800210846FCF7DF
:10486000B8F800210846FCF7B4F800210846FCF728
:10487000B0F800210846FCF7ACF80121A420FCF7B1
:10488000A8F8142001F039F84FF41C516020FCF70F
:10489000A0F840F606010820FCF79BF840F20371EF
:1048A0003020FCF796F801213120FCF792F8042122
:1048B0003220FCF78EF84FF481713320FCF789F831
:1048C0004FF440713420FCF784F840F20311352096
:1048D000FCF77FF81F213620FCF77BF840F20371CC
:1048E0003720FCF776F801213820FCF772F8042114
:1048F0003920FCF76EF815219020FCF76AF84FF488
:1049000082611020FCF765F840F247211120FCF786
:1049100060F84FF4DE711220FCF75BF84FF4606131
:104920001320FCF756F8782000F0E7FF4FF4807171
:104930000120FCF74EF84FF40071022000E052E035
:10494000FCF747F841F230010320FCF742F8082158
:104950000A20FCF73EF800210C20FCF73AF8202151
:104960000E20FCF736F800210F20FCF732F800216A
:104970002020FCF72EF800212120FCF72AF83D2109
:104980002A20FCF726F8142000F0B7FF2D2129205B
:10499000FCF71FF800215020FCF71BF84DF2EF0147
:1049A0005120FCF716F800215220FCF712F840F2D3
:1049B0003F115320FCF70DF800216120FCF709F8A6
:1049C00000216A20FCF705F84FF440719220FCF7B3
:1049D00000F805219320FBF7FCFF4FF480710720BE
:1049E000FBF7F7FF37E20E48808844F231518842E6
:1049F0007ED101210020FBF7ECFF0A2000F07DFFB3
:104A000041F228611020FBF7E4FF0E211220FBF792
:104A1000E0FF40F639211320FBF7DBFF0A2001E01D
:104A20008805002000F069FF40211120FBF7D1FF2D
:104A300050211520FBF7CDFF0A2000F05EFF1E215C
:104A40001220FBF7C6FF0A2000F057FF4FF4B151C8
:104A50001020FBF7BEFF42F639211320FBF7B9FF08
:104A60000A2000F04AFF4FF480710120FBF7B1FFEC
:104A70004FF440710220FBF7ACFF41F238010320F4
:104A8000FBF7A7FF40F202210820FBF7A2FF082155
:104A90000A20FBF79EFF00213020FBF79AFF40F22F
:104AA00002413120FBF795FF4FF483713220FBF771
:104AB00090FF40F203513320FBF78BFF4FF48271DC
:104AC0003420FBF786FF40F201313520FBF781FFF0
:104AD00040F207713620FBF77CFF40F205313720AA
:104AE000FBF777FF4FF402713820FBF772FF00E00D
:104AF0003EE040F60B713920FBF76BFF02214120AD
:104B0000FBF767FF4FF41C516020FBF762FF0121A8
:104B10006120FBF75EFF4FF404719020FBF759FF13
:104B20004FF485719220FBF754FF04219320FBF78B
:104B300050FF4FF48071A020FBF74BFF01210720AD
:104B4000FBF747FF21210720FBF743FF2321072025
:104B5000FBF73FFF33210720FBF73BFF40F2331108
:104B60000720FBF736FF0021A020FBF732FF72E1A0
:104B7000FA48808844F2355188427CD13021152092
:104B8000FBF727FF10219A20FBF723FF202111209C
:104B9000FBF71FFF43F228411020FBF71AFF022109
:104BA0001220FBF716FF41F238011320FBF711FF2B
:104BB000282000F0A2FE12210846FBF70AFF282059
:104BC00000F09BFE43F220411020FBF702FF43F26E
:104BD00038011320FBF7FDFE462000F08EFE002179
:104BE0003020FBF7F6FE40F202413120FBF7F1FEE8
:104BF00040F207313220FBF7ECFE4FF441713320D5
:104C0000FBF7E7FE04213420FBF7E3FE40F201410D
:104C10003520FBF7DEFE40F207713620FBF7D9FEA8
:104C200040F205313720FBF7D4FE4FF4C261382043
:104C3000FBF7CFFE4FF4C2613920FBF7CAFE4FF4F9
:104C400080710120FBF7C5FE4FF440710220FBF795
:104C5000C0FE41F230010320FBF7BBFE40F6080125
:104C60000820FBF7B6FE08210A20FBF7B2FE4FF43E
:104C70001C51602000E033E0FBF7ABFE0121612016
:104C8000FBF7A7FE4FF49F719020FBF7A2FE4FF4B5
:104C900080719220FBF79DFE4FF480719320FBF70B
:104CA00098FE4FF44051A020FBF793FE1021A32063
:104CB000FBF78FFE01210720FBF78BFE2121072048
:104CC000FBF787FE23210720FBF783FE3321072014
:104CD000FBF77FFE40F233110720FBF77AFEBAE0C4
:104CE0009E48808841F663118842F8D1E220FBF7A4
:104CF00061FE2320FBF761FE0220FBF75EFE04202D
:104D0000FBF75BFE642000F0D4FDE020FBF752FED1
:104D10000120FBF752FE0A2000F0EFFDE020FBF738
:104D200049FE0320FBF749FE0C2000F0E6FD0120C0
:104D3000FBF740FE0A2000F0E0FDE620FBF73AFE1C
:104D40000320FBF73AFEFF20FBF737FEFF20FBF7BF
:104D500034FEB020FBF72EFE2020FBF72EFE0020B5
:104D6000FBF72BFE0320FBF728FE40F21F30FBF77A
:104D700024FE0120FBF721FE40F2DF10FBF71DFEB1
:104D80000020FBF71AFEB420FBF714FE0420FBF70B
:104D900014FE40F21F40FBF710FE0020FBF70DFE53
:104DA000D220FBF70AFE0020FBF707FE0020FBF7EE
:104DB00004FE0020FBF701FE0020FBF7FEFDB620FD
:104DC000FBF7F8FD0220FBF7F8FD4FF40370FBF74B
:104DD000F4FD0020FBF7F1FD2220FBF7EEFD09209A
:104DE000FBF7EBFD0020FBF7E8FD0020FBF7E5FDFE
:104DF000F020FBF7DFFD0320FBF7DFFD2920FBF7A9
:104E0000D9FDD020FBF7D6FD0020FBF7D6FDBE2054
:104E1000FBF7D0FD0520FBF7D0FDFE20FBF7CDFD15
:104E20000120FBF7CAFDFF20FBF7C7FD0020FBF7C1
:104E3000C4FDB820FBF7BEFD0F20FBF7BEFD01202F
:104E4000FBF7BBFDBA20FBF7B5FD0120FBF7B5FD75
:104E50006420FCF712FA0020FCF737FA01204049E1
:104E600008604FF6FF70FCF71CFC1FB000BD2DE979
:104E7000FC4F05460E4617469846DDF82C9000205C
:104E800001903648808846F60401884229D133488B
:104E90008079012825D1AB46354630480088C01BB3
:104EA000401E86B247462D480088A0EB0B00401EEE
:104EB0001FFA80F80020294988712A2048812B2078
:104EC000888143463A4631462846CDF80090FFF7A0
:104ED000CEFF0120214988712B2048812A2088811A
:104EE0001CE0781B401C80B20190344614E021463F
:104EF0002846FBF79BFDFBF77CFD4FF0000A06E020
:104F00001848A0F800900AF101001FFA80FA0198F1
:104F10008245F5DB601C84B24445E8DDBDE8FC8FCA
:104F20002DE9F84F07460D4690469946DDF828B022
:104F3000A8EB0700401C1FFA80FAA9EB0500401CF3
:104F400080B2009000241BE0281981B23846FBF79C
:104F50006DFDFBF74EFD00260EE0000088050020E9
:104F6000808121420008006C04FB0A603BF81000BD
:104F7000F7490880701C86B25645F5DB601C84B288
:104F800000988442E0DBBDE8F88F2DE9FF4F84B044
:104F900081468A460020039002900698A0EB0905FE
:104FA0000798A0EB0A06CDF80490CDF800A0002DDC
:104FB00001DD012705E00DB9002702E04FF0FF37C2
:104FC0006D42002E02DD4FF0010806E016B94FF0E9
:104FD000000802E04FF0FF387642B54201DD2C4672
:104FE00000E034464FF0000B21E0009A91B2019AA4
:104FF00090B2FCF774F80398284403900298304468
:1050000002900398A04205DD0398001B03900198CD
:10501000384401900298A04205DD0298001B0290DE
:105020000098404400900BF101001FFA80FB601CC7
:105030008345DADD08B0BDE8F08FF0B504460D46D3
:1050400016461F462B46324629462046FFF79DFF4F
:105050003B46224629462046FFF797FF3B4632460D
:1050600039462046FFF791FF3B46324629463046F7
:10507000FFF78BFFF0BD2DE9F04306460F46904643
:10508000002445460320A0EB48093CE07A1B91B27E
:10509000321990B2FCF723F83A1B91B2721990B210
:1050A000FCF71DF83A1991B2721990B2FCF717F893
:1050B0007A1991B2321990B2FCF711F87A1991B2BB
:1050C000321B90B2FCF70BF83A1991B2721B90B2F6
:1050D000FCF705F87A1B91B2321B90B2FBF7FFFF89
:1050E0003A1B91B2721B90B2FBF7F9FF641CB9F145
:1050F000000F03DAA000801D814404E0601B8000E3
:105100000A3081446D1EAC42C0DDBDE8F0832DE95C
:10511000F84F80460E4617461C46B3462046E31716
:1051200004EB5373DB1021464FEAE47C04EB5C7C18
:105130004FEAEC0CA4EBCC0CBCF1000F02D04FF00A
:10514000010C01E04FF0000C6344224604EBD27CDA
:105150004FEA6C0C03FB0CF3DBB20093A7F12000C9
:10516000C7B2002556E00C2C07D107EB4700794960
:1051700001EB800010F8059013E0102C05D1764863
:1051800000EB071010F805900BE0182C07D107EB87
:10519000C700724901EB800010F8059001E0BDE8FE
:1051A000F88F4FF0000A2FE009F0800030B16C4812
:1051B000028831464046FBF7A0FF07E00A9828B96D
:1051C0006848028831464046FBF797FF4FEA49603E
:1051D0004FEA1069701C86B263484088B04200DC18
:1051E000DDE7A6EB0B00A0420AD15E4608F1010004
:1051F0001FFA80F85C480088404500DCCFE706E0F5
:105200000AF1010000F0FF0ABAF1080FCCDB00BF81
:10521000681CC5B200988542A5DB00BFBFE710B58A
:105220000246012000E050430B1EA1F10104E1B24F
:10523000F9D110BD2DE9FF4F81B0074691461E46BA
:105240000E9D4FF0000A002439E0301B401EC1B211
:105250000A20FFF7E4FFB9FBF0F00A21B0FBF1F2FE
:1052600001FB1208BAF1000F16D1701EA04213DD27
:10527000B8F1000F0ED10020AB4605EBDB714910F1
:1052800001FB0471009088B22B4620220299FFF79F
:105290003EFF12E04FF0010A0020AB4605EBDB7148
:1052A000491001FB0471009088B208F13001CAB2C4
:1052B0002B460299FFF72BFF00BF601CC4B2B4421B
:1052C000C3DB05B0BDE8F08F2DE9FF4F82B0064685
:1052D00092461F46DDE90F480020019000255CE062
:1052E000781B401EC1B20A20FFF799FFBAFBF0F00D
:1052F0000A21B0FBF1F201FB12090198B0BB781E44
:10530000A84236DDB9F1000F31D108F0800078B144
:1053100008F00100A34604EBDB71491001FB0561B5
:10532000009088B2234630220399FFF7F0FE0EE08A
:1053300008F00100A34604EBDB71491001FB056195
:10534000009088B2234620220399FFF7E0FE22E076
:105350000008006C9CA5000810AA000800B0000816
:1053600020000020220000208805002001E001200C
:10537000019008F00100A34604EBDB71491001FB2A
:105380000561009088B209F13001CAB22346039941
:10539000FFF7BDFE00BF681CC5B2BD42A0DB06B072
:1053A000BDE8F08F2DE9F84704460D469046994632
:1053B000DDE9096704F0FF0A08EB04001FFA80F832
:1053C00009EB05001FFA80F916E0444502DB54465C
:1053D000A81985B24D4500DB14E0012000903A7811
:1053E000334629462046FFF792FE304606EBD07141
:1053F00004EB61018CB27F1C38787E2802DC38789F
:105400002028E2DA00BFBDE8F887000008B50320D5
:105410008DF8000000208DF801008DF802000120B9
:105420008DF80300684600F05AFB08BDF0B503464E
:105430000C461546642093FBF0F0C6B2642093FB43
:10544000F0F700FB1730C1B2132E02DD01F164004A
:10545000C1B20846CF1701EB977701EBA707BAB2A5
:10546000072092FBF0F700FB172082B25719601E4D
:10547000DFF8D0C31CF80000384482B2CF1701EB2C
:105480009777BF10A1EB87071FB9032C01DA501ED5
:1054900082B2072092FBF0F700FB1720C0B2F0BDEC
:1054A0000146CA1701EB92729210A1EB820292B9E7
:1054B000642091FBF0F200FB121050B94FF4C87059
:1054C00091FBF0F200FB121008B901207047002098
:1054D000FCE70120FAE70020F8E770B50026002479
:1054E000002502F0E5FB0646D748B6FBF0F4D748A6
:1054F0000088A0423CD0D5490C8040F2B27510E043
:105500002846FFF7CDFF40B1B4F5B77F02D3A4F52D
:10551000B77404E0681C85B206E0A4F26D14681C40
:1055200085B2B4F5B67FEBD800BFC94885800025A9
:1055300016E0C7498888FFF7B3FF30B1012D04D1C9
:105540001D2C01D31D3C09E00CE0C248405DA04287
:1055500003D8C048405D241A00E003E0681C85B20F
:105560001C2CE6D200BF681CB9498871601CC87148
:10557000B548B6FBF0F100FB11644FF46160B4FB79
:10558000F0F0B34908704FF46160B4FBF0F100FB38
:1055900011403C21B0FBF1F0AD4948704FF461601F
:1055A000B4FBF0F100FB11403C21B0FBF1F201FB38
:1055B0001200A74988700B46DA7999799888FFF725
:1055C00035FFA3490872002070BD2DE9F05F064643
:1055D0000F4690469946DDE90AAB002440F2B270CE
:1055E000864203DB40F63300864202DD0120BDE83F
:1055F000F09F40F2B2750AE02846FFF751FF10B164
:105600009548044401E095480444681C85B2B542BD
:10561000F2DB781EC7B2002510E08E48405D40F2F4
:10562000A321484304EBC0143046FFF739FF18B1FB
:10563000012D01D184480444681C85B2BD42ECDBD5
:10564000A8F1010040F2A321484304EBC014C9EBC8
:105650004910C0EB092004EB0014CAEB0A1004EB5C
:1056600080045C4401214FF0C05001F0D0F80120CB
:1056700002F0A3FA204602F024FB02F055FB0020C2
:10568000B5E71CB5002401214FF0C05001F0BFF870
:10569000012002F092FA042002F057FA45F251017B
:1056A00088423FD002F01CFA012001F010F804E01B
:1056B000601CC4B20A2000F020F9412000F06FFF06
:1056C00008B9FA2CF4DBFA2C01DB01201CBD4FF4E5
:1056D000807001F018F8012001F01BF802F024FBA3
:1056E00002F02BFB0121084602F0C2FA02F01CFB7B
:1056F00002F0CBFA47F6FF7002F0F0FA02F014FB6A
:105700001E2000900F2319220721019040F2E5701E
:10571000FFF75BFF02F0C2FA45F25101042002F0EC
:1057200008FA07E002F009FB0121084602F0A0FA9E
:1057300002F0FAFAFFF76AFEFFF7CFFE0020C5E796
:105740000EB5012002F01EFB08B1FFF7C6FE0220D5
:1057500002F018FBA0B1022002F024FBFFF7BDFE0F
:105760003B4880783A494978394A1278CDE9002196
:1057700002903748C3798279818839A003F0CEFB43
:10578000052002F00FFB02F0CFFA0EBD2DE9F05F0D
:1057900006460F4690469946DDE90AAB002440F2E2
:1057A000B270864203DB40F63300864202DD012000
:1057B000BDE8F09F40F2B2750AE02846FFF770FEA0
:1057C00010B12548044401E024480444681C85B213
:1057D000B542F2DB781EC7B2002510E01D48405DDF
:1057E00040F2A321484304EBC0143046FFF758FEB3
:1057F00018B1012D01D114480444681C85B2BD4282
:10580000ECDBA8F1010040F2A321484304EBC014F3
:10581000C9EB4910C0EB092004EB0014CAEB0A10D5
:1058200004EB80045C4401214FF0C05000F0EFFF16
:10583000012002F0C2F9204602F05EFA02F074FA8A
:105840000020B5E75CBD0008805101002400002065
:105850009605002068BD00080085E2018033E10163
:10586000416C61726D2054696D653A25642D256423
:105870002D25642025643A25643A25640A00000039
:1058800010B56FF0040000F074F92E4800682E493E
:10589000B0FBF1F02D4908700846007800EB40019C
:1058A000C1EBC0104FF6FF7101EAC0002849088023
:1058B00010BD0146254A12784A434FF0E0235A6151
:1058C00000229A611A46126942F001021A6100BF71
:1058D0004FF0E022106900F001021AB100F48032AA
:1058E000002AF5D04FF0E022126922F001024FF0B9
:1058F000E0231A6100229A6170470146144A128817
:105900004A434FF0E0235A6100229A611A46126915
:1059100042F001021A6100BF4FF0E022106900F06E
:1059200001021AB100F48032002AF5D04FF0E022D3
:10593000126922F001024FF0E0231A6100229A61FD
:10594000704700000C00002000127A0026000020A2
:105950002800002000BF704700BF4A4A128802F0AA
:105960004002002AF9D0C2B2464B1B1D1A80704774
:1059700010B586B00446012144F2040000F03AFF5D
:105980004FF40070ADF8140003208DF816001820B5
:105990008DF8170005A93C4800F070FC4FF48060BA
:1059A000ADF8140004208DF8170005A9364800F062
:1059B00065FC25208DF8000003208DF801008DF88E
:1059C000020001208DF80300684600F088F8019479
:1059D0000020ADF80800ADF80A00ADF80C00ADF8F5
:1059E00010000C20ADF80E0001A9264801F0B7FE0A
:1059F000012240F22551234801F049FF01212148AD
:105A000001F039FF06B010BD10B540F225511D4818
:105A100002F022F810B31B4801F09EFFC4B21B48ED
:105A2000008800F40040C8B91848008800F480409D
:105A300060B10A2C03D000201449088020E01348EC
:105A4000008840F400401149088019E00D2C06D16F
:105A50000E48008840F480400C49088010E00B4854
:105A60000088C0F30D000A490C5408480088401C07
:105A70000649088008460088C72801DD0020088004
:105A800010BD000000380140000801403000002037
:105A9000A00500200948804709480047FEE7FEE7C7
:105AA000FEE7FEE7FEE7FEE7FEE7FEE7FEE7FEE7CE
:105AB00004480549054A064B70470000B308000832
:105AC00031010008C8060020C80C0020C8080020CA
:105AD000C808002031490143314A1160704770B550
:105AE000002100230F22C47804B32D4C246804F451
:105AF000E064C4F5E064210AC1F10403CA404478BB
:105B000004FA03F18478144021430901254C0678F6
:105B1000A155047804F01F050124AC4005786D11EF
:105B2000AD0005F1E025C5F8004109E0047804F076
:105B30001F050124AC401C4D0678761145F826401F
:105B400070BD1A4A0A400243154B1B1F1A6070476A
:105B500039B1134A121D12680243114B1B1D1A6002
:105B600006E00F4A121D126882430D4B1B1D1A607E
:105B70007047042808D14FF0E021096941F0040181
:105B80004FF0E022116107E04FF0E021096921F0B8
:105B900004014FF0E0221161704700000000FA0597
:105BA0000CED00E000E400E080E100E080FFFF1F7A
:105BB00030B943F2DB028100A1F1C0410A6005E087
:105BC00043F2D2028100A1F1C0410A606FF070423D
:105BD000411C8900A1F1C0410A608100A1F1C041CE
:105BE000C1F80421704710280AD118214FF0204233
:105BF0001166402151664FF0FC319166D16610E08C
:105C00001821F74A116040214FF02042C2F8841059
:105C10004FF0FC31F24A083211604FF02042C2F8D6
:105C20008C1070471820EE492031086000200906CA
:105C3000C1F8A4004FF0FC30E94928310860091D83
:105C40000860091D08607047D0E901121143C2685D
:105C50001143026911434269114382691143C269C8
:105C60001143026A1143426A1143826A1143C26AB4
:105C70001143026B114302689200A2F1C04211600D
:105C8000816808290BD101688900A1F1C041096828
:105C900041F0400201688900A1F1C0410A60416BF6
:105CA0000968426B526841EA0211426B926841EA0C
:105CB0000221426B928941EA0241426B128A41EA17
:105CC0000251426B127D41EA0261426B92691143BB
:105CD0000268521C9200A2F1C0421160C16AB1F583
:105CE000804F1BD1816B0968826B526841EA0211B7
:105CF000826B926841EA0221826B128A41EA025168
:105D0000826B127D41EA0261826B926911430268E3
:105D10009200A2F1C042C2F8041107E06FF0704295
:105D200001688900A1F1C041C1F80421704730B574
:105D3000002100220023446844F0080485682C43B5
:105D4000C5682C4305692C43456944EA45248569A7
:105D500044EA4531C4692468C5696D6844EA05248C
:105D6000C5692D8944EA0544C5692D7B44EA05626D
:105D7000046A2468056A6D6844EA0524056A2D8969
:105D800044EA0544056A2D7B44EA05630468102C47
:105D900005D14FF020442166A266E36608E0904CEE
:105DA00021604FF02044C4F888208D4C0C342360CF
:105DB00030BD016841F01001426841EA4221826829
:105DC00041EA4231864A20321160C1680968C268DE
:105DD000526841EA0221C268128941EA0241C2685E
:105DE000127B41EA02617E4A28321160016909682A
:105DF0000269526841EA02210269128941EA0241BC
:105E00000269127B41EA0261754A2C3211604169D4
:105E100009684269526841EA02214269128941EAED
:105E200002414269127B41EA02614FF02042C2F80E
:105E3000B0107047002101600221416000218160A3
:105E4000C160016141618161C16101624FF48051B2
:105E50004162490081620021C16201630F21426BEE
:105E60001160426B5160FF21426B91600F21426BC8
:105E7000D160426B1161426B51610021426B9161B3
:105E80000F21826B1160826B5160FF21826B9160E8
:105E90000F21826BD160826B1161826B5161002195
:105EA000826B916170471021016000214160816027
:105EB000C160016141618161FC21C2691160C269F7
:105EC0005160C2699160C269D160026A1160026A60
:105ED0005160026A9160026AD160704700210160DE
:105EE00041608160FC21C2681160C2685160C26873
:105EF0009160C268D16002691160026951600269F3
:105F000091600269D16042691160426951604269E1
:105F100091604269D160704751B18200A2F1C042E4
:105F2000126842F001038200A2F1C042136009E04E
:105F30008200A2F1C04212682A4B1A408300A3F1EA
:105F4000C0431A60704799B1102808D14FF0204221
:105F5000126E42F004024FF020431A661DE0204A00
:105F6000126842F004024FF02043C3F8802014E08E
:105F7000102809D14FF02042126E1A4BDB1E1A4036
:105F80004FF020431A6608E0154A1268154BDB1ED5
:105F90001A404FF02043C3F88020704748B11049A1
:105FA0002031096841F004014FF02042C2F8A010EE
:105FB00009E00B49203109680A4AD21E11404FF00E
:105FC0002042C2F8A0107047B9B110280CD14FF090
:105FD0002042126E42F040024FF020431A661FE04A
:105FE000800000A0FEFF0F00724A126842F04002DB
:105FF0004FF02043C3F8802012E0102808D14FF062
:106000002042126E6C4B1A404FF020431A6607E094
:10601000684A1268684B1A404FF02043C3F880204A
:10602000704701460020102903D14FF02042506FE5
:1060300002E0604A14321068704710B5F2B11028BF
:1060400007D14FF020435B6E0B434FF02044636653
:1060500032E0B0F5807F08D1564B1B1D1B680B4307
:106060004FF02044C4F8843026E0524B24331B68A0
:106070000B434FF02044C4F8A4301DE0102807D192
:106080004FF020435B6E8B434FF02044636613E078
:10609000B0F5807F08D1474B1B1D1B688B434FF029
:1060A0002044C4F8843007E0424B24331B688B4300
:1060B0004FF02044C4F8A43010BD10B502460020B3
:1060C0000023102A03D14FF02044636E09E0B2F59B
:1060D000807F03D1374C241D236802E0354C2434E3
:1060E000236803EA01040CB1012000E0002010BD88
:1060F000102807D14FF02042526E8A434FF02043C0
:106100005A6613E0B0F5807F08D12A4A121D126842
:106110008A434FF02043C3F8842007E0254A243205
:1061200012688A434FF02043C3F8A420704770B52B
:1061300002460020002300240025102A03D14FF03E
:106140002046736E09E0B2F5807F03D1194E361DEB
:10615000336802E0174E2436336803EA010403EA89
:10616000D10514B10DB1012000E0002070BD102850
:1061700008D14FF02042526E22EAD1024FF0204364
:106180005A6615E0B0F5807F09D10A4A121D1268DF
:1061900022EAD1024FF02043C3F8842008E0054AE8
:1061A0002432126822EAD1024FF02043C3F8A4201F
:1061B00070470000800000A0BFFF0F0010B504462C
:1061C000CC48844208D10121042000F02DFB00219D
:1061D000042000F029FB46E0C748844208D1012191
:1061E000082000F021FB0021082000F01DFB3AE010
:1061F000C248844208D10121102000F015FB002183
:10620000102000F011FB2EE0BD48844208D101218E
:10621000202000F009FB0021202000F005FB22E0F7
:10622000B848844208D10121402000F0FDFA002145
:10623000402000F0F9FA16E0B348844208D1012169
:10624000802000F0F1FA0021802000F0EDFA0AE051
:10625000AE48844207D10121801500F0E5FA002103
:10626000A01500F0E1FA10BD10B50121084600F0BC
:10627000DBFA0021012000F0D7FA10BD2DE9F04132
:10628000024600250026002000230024002791F864
:1062900003C00CF00F0591F803C00CF0100CBCF11A
:1062A000000F03D091F802C04CEA050591F800C038
:1062B000BCF1000F31D0146800202BE04FF0010C2E
:1062C0000CFA00F3B1F800C00CEA03069E4220D19C
:1062D00083004FF00F0C0CFA03F7BC4305FA03FCE4
:1062E0004CEA040491F803C0BCF1280F06D14FF02A
:1062F000010C0CFA00FCC2F814C00AE091F803C0CB
:10630000BCF1480F05D14FF0010C0CFA00FCC2F8AB
:1063100010C0401C0828D1D31460B1F800C0BCF1F3
:10632000FF0F34DD546800202EE000F1080C4FF020
:10633000010808FA0CF3B1F800C00CEA03069E420B
:1063400021D183004FF00F0C0CFA03F7BC4305FA80
:1063500003FC4CEA040491F803C0BCF1280F05D1FA
:1063600000F1080C08FA0CF8C2F8148091F803C088
:10637000BCF1480F07D100F1080C4FF0010808FAF2
:106380000CF8C2F81080401C0828CED35460BDE839
:10639000F0814FF6FF710180022181700421C170EC
:1063A00070470246002093680B400BB1012000E0CB
:1063B000002070470146886880B27047024600207E
:1063C000D3680B400BB1012000E00020704701466C
:1063D000C86880B2704701617047416170470AB177
:1063E000016100E041617047C16070474FF4803245
:1063F0000A438261816182618269826970470246D3
:106400000020434B18684FF68073184040EA021092
:1064100008433F4B186070473E49C8617047F0B56C
:106420000A46002300240021002500F00046B6F1B2
:10643000004F02D1364EF16901E0354E7168C0F36C
:10644000034583B200F44016B6F5401F08D121F091
:1064500070612F4E766826F070662D4F7E6012E0D8
:1064600000F48016B6F5801F06D1032606FA05F45F
:10647000A14341F0706106E0460D360103FA06F6CD
:10648000B14341F0706122B1460D360103FA06F6C0
:10649000314300F00046B6F1004F02D11C4EF161CD
:1064A00001E01B4E7160F0BD30B500228B071C0F60
:1064B0000F2303FA04F2164B08338C1053F82430E0
:1064C0009343134C08348D1044F8253023468C1028
:1064D00053F824308C07240F00FA04F423430C4CA7
:1064E00008348D1044F8253030BD0A49DC3108608D
:1064F0007047000000080140000C014000100140FE
:106500000014014000180140001C0140002001401F
:106510000000014000002042DF48006840F0010018
:10652000DD49086008464068DC490840DA494860AF
:1065300008460068DA490840D749086008460068FC
:1065400020F4802008600846406820F4FE0048607F
:106550004FF41F0088607047CF49096821F48031EB
:10656000CD4A11601146096821F480211160B0F50F
:10657000803F03D0B0F5802F0ED106E0C6490968F0
:1065800041F48031C44A116007E0C349096841F40D
:10659000A021C14A116000E000BF00BF704710B5E4
:1065A00001460022002300204A11012A02D1BA4CE0
:1065B000236806E0022A02D1B74C236A01E0B64CF8
:1065C000636A01F01F02012494401C400CB10120B9
:1065D00000E0002010BD38B5002000900024002508
:1065E00000BF3120FFF7DBFF05460098401C0090FC
:1065F0000098B0F5A06F01D0002DF2D03120FFF748
:10660000CEFF08B1012400E00024204638BD014639
:106610000020A14A106820F0F80040EAC100106094
:106620007047A04908607047024600209A4B58689E
:1066300020F47C1042EA01031843974B58607047DE
:1066400098490866704701460020934A506820F038
:1066500003000843506070478F48406800F00C000A
:106660007047014600208C4A506820F0F000084333
:106670005060704701460020874A506820F4E0606F
:1066800008435060704701460020834A506820F458
:10669000605040EAC1005060704729B17E4A527A8A
:1066A00002437D4B5A7204E07B4A527A82437A4B12
:1066B0005A7270477B49D831086070470146002004
:1066C000754A506820F440400843506070470021EC
:1066D000714A20321170704A82F82010012802D0CD
:1066E00004280AD104E001216B4A2032117005E030
:1066F0000521694A2032117000E000BF00BF7047D9
:106700006949086070476449096A0143624A116235
:106710007047654944390860704730B50021002250
:10672000002400235C4D6D6805F00C0121B10429A3
:1067300005D0082923D105E05C4D056022E05B4DC2
:1067400005601FE0544D6D6805F47012524D6D6880
:1067500005F48034022505EB92421CB9544D554393
:1067600005600BE04C4D6D6805F400351DB1504DD2
:106770005543056002E04D4D5543056002E04B4D29
:10678000056000BF00BF444D6D6805F0F0010909C8
:10679000484D6B5C0568DD4045603F4D6D6805F414
:1067A000E061090A434D6B5C4568DD4085603A4D08
:1067B0006D6805F46051C90A3E4D6B5C4568DD406B
:1067C000C560354D6D6805F44041890B3A4D6B5CF1
:1067D000C568B5FBF3F5056130BD29B12E4A526994
:1067E00002432D4B5A6104E02B4A526982432A4BE3
:1067F0005A61704729B1284A92690243264B9A612F
:1068000004E0254A92698243234B9A61704729B17B
:10681000214AD2690243204BDA6104E01E4AD26960
:1068200082431D4BDA61704729B11B4AD26802438B
:10683000194BDA6004E0184AD2688243164BDA60DA
:10684000704729B1144A12690243134B1A6104E0DC
:10685000114A12698243104B1A617047124940393C
:10686000086070470F49C86470470B49C87170478A
:106870000948406A40F08070074948627047014605
:106880000020054A92680A400AB1012000E0002079
:106890007047014988727047001002400000FFF8FD
:1068A000FFFFF6FE000042428004424200127A00DE
:1068B00000093D00320000204200002010B50446CF
:1068C000FE48844208D10121C014FFF7ADFF00212A
:1068D000E014FFF7A9FFC4E0B4F1804F08D1012113
:1068E0000846FFF7AEFF00210120FFF7AAFFB8E03E
:1068F000F348844208D101210220FFF7A2FF0021C2
:106900000220FFF79EFFACE0EE48844208D101214F
:106910000420FFF796FF00210420FFF792FFA0E07C
:10692000E948844208D101210820FFF78AFF0021AD
:106930000820FFF786FF94E0E448844208D1012153
:106940001020FFF77EFF00211020FFF77AFF88E07C
:10695000DF48844208D101212020FFF772FF002187
:106960002020FFF76EFF7CE0DA48844208D1012145
:106970004014FFF759FF00216014FFF755FF70E046
:10698000D548844209D10121C804FFF74DFF0021F9
:106990004FF40020FFF748FF63E0D048844209D15C
:1069A00001210805FFF740FF00214FF48010FFF799
:1069B0003BFF56E0CA48844209D101214805FFF750
:1069C00033FF00214FF40010FFF72EFF49E0C548C8
:1069D000844208D101214020FFF733FF00214020ED
:1069E000FFF72FFF3DE0C048844208D101218020FD
:1069F000FFF727FF00218020FFF723FF31E0BB488E
:106A0000844208D101218015FFF71BFF0021A0154A
:106A1000FFF717FF25E0B648844209D10121080499
:106A2000FFF702FF00214FF48030FFF7FDFE18E072
:106A3000B048844209D101214804FFF7F5FE002146
:106A40004FF40030FFF7F0FE0BE0AB48844208D172
:106A500001218804FFF7E8FE00214FF48020FFF7B2
:106A6000E3FE10BD00220288944B98420ED0994B51
:106A700098420BD0B0F1804F08D0914B984205D08E
:106A8000904B984202D0904B984204D14FF68F73AE
:106A90001A404B881A438D4B984207D08C4B984232
:106AA00004D04FF6FF431A40CB881A4302808B88EC
:106AB00083850B880385814B98420BD0854B984288
:106AC00008D08B4B984205D08A4B984202D08A4B13
:106AD000984201D10B7A038601238382704770B5F7
:106AE000002400220023058C4FF6FE7635400584F5
:106AF000028C8388048B4FF68F752C40B51E2C407A
:106B00000D882C43751E2A400D892A434D882A433F
:106B10006A4DA8420BD06F4DA84208D0744DA842D0
:106B200005D0744DA84202D0734DA84213D14FF640
:106B3000F7752A404D892A434FF6FB752A408D8808
:106B40002A434FF6FF652B404FF6FF552B408D89AA
:106B50002B43CD892B4383800483CD888586028493
:106B600070BD70B5002400220023058C4FF6EF762F
:106B700035400584028C8388048B48F6FF752C40D1
:106B80004FF6FF452C400D884FF6FF7606EA0525A7
:106B90002C434FF6DF752A400D8906EA05152A4376
:106BA0004D8806EA05152A43444DA84202D0494DB6
:106BB000A8421DD14FF67F752A404D894FF6FF76CA
:106BC00006EA05152A434FF6BF752A408D8806EA66
:106BD00005152A434FF6FF352B404FF2FF752B402A
:106BE0008D8906EA85052B43CD8906EA85052B4369
:106BF00083800483CD880587028470BD70B500242E
:106C000000220023058C4FF6FF6635400584028C78
:106C10008388848B4FF68F752C404FF6FC752C4083
:106C20000D882C434FF6FF552A400D894FF6FF760D
:106C300006EA05252A434D8806EA05252A431F4D05
:106C4000A84202D0234DA8421DD14FF2FF752A4021
:106C50004D894FF6FF7606EA05252A434FF6FF35A4
:106C60002A408D8806EA05252A434EF6FF752B40FB
:106C70004DF6FF752B408D8906EA05152B43CD890E
:106C800006EA05152B4383808483CD88858702849B
:106C900070BD70B5002200230024058C4EF6FF76EF
:106CA00035400584038C8488828B48F6FF752A4022
:106CB0004FF6FF452A400D8820E00000002C0140DF
:106CC0000004004000080040000C0040001000409C
:106CD0000014004000340140004C014000500140CD
:106CE0000054014000180040001C004000200040FB
:106CF0000040014000440140004801404FF6FF764B
:106D000006EA05252A434DF6FF752B400D8906EA54
:106D100005352B434D8806EA05352B43FA4DA8422D
:106D200002D0FA4DA84208D14BF6FF752C408D8950
:106D30004FF6FF7606EA85152C4384808283CD8842
:106D4000A0F84050038470BD828B4FF2FF331A408D
:106D50008283828B4FF6FF7303EA01231A438283F7
:106D60007047F0B50C461546002200210026078C1E
:106D70004EF6FF7C07EA0C070784828B018C4FF6E6
:106D8000FF7707EA043640F6FF473A404FF6FF77B1
:106D900007EA05273A434FF6FF7707EA03373A43F6
:106DA000D94FB8420ED0D94FB8420BD0B0F1804F76
:106DB00008D0D74FB84205D0D64FB84202D0D64FF0
:106DC000B84206D14DF6FF77394046F48057394333
:106DD00005E047F6FF57394044F480573943828332
:106DE0000184F0BD828B4FF6F3731A408283828B4D
:106DF0000A4382837047F0B50C46154600220021F5
:106E00000026078C4FF6FF6C07EA0C070784828B7D
:106E1000018C4FF6FF7707EA04264FF60C773A40CD
:106E20004FF6FF7707EA03172F433A43B64FB842AE
:106E30000ED0B64FB8420BD0B0F1804F08D0B44F4F
:106E4000B84205D0B34FB84202D0B34FB84206D1D2
:106E50004FF6FF57394046F48077394305E04FF24B
:106E6000FF57394044F48077394382830184F0BD71
:106E7000028B4FF2FF331A400283028B4FF6FF73EF
:106E800003EA01231A4302837047F0B50C46154606
:106E9000002200210026078C4FF6EF7C07EA0C0742
:106EA0000784028B018C4FF6FF7707EA041640F641
:106EB000FF473A404FF6FF7707EA03373A434FF66A
:106EC000FF7707EA05273A438F4FB8420ED08F4F1E
:106ED000B8420BD0B0F1804F08D08D4FB84205D0EA
:106EE0008C4FB84202D08C4FB84206D14FF6DF77B4
:106EF000394046F01007394305E04FF65F773940D7
:106F000044F01007394302830184F0BD028B4FF631
:106F1000F3731A400283028B0A4302837047F0B571
:106F20000C46154600220021068C4FF6FE773E40A7
:106F30000684028B018C4FF60C7632407E1C06EAEA
:106F400003162E433243704EB0420ED06F4EB04205
:106F50000BD0B0F1804F08D06D4EB04205D06D4ED1
:106F6000B04202D06C4EB04206D14FF6FD763140B1
:106F700044F00106314305E04FF6F576314044F028
:106F80000106314302830184F0BD70B505460C460D
:106F90005D4885420ED05D4885420BD0B5F1804FEB
:106FA00008D05B48854205D05A48854202D05A48ED
:106FB000854200D100E000BF208850B92389A28813
:106FC00061882846FFF7ABFFE1882846FFF79EFF60
:106FD00025E0208804280AD12389A28861882846D0
:106FE000FFF753FFE1882846FFF742FF17E02088AC
:106FF00008280AD12389A28861882846FFF7FBFE6A
:10700000E1882846FFF7EEFE09E02389A28861881F
:107010002846FFF7A6FEE1882846FFF795FE70BDDB
:107020002DE9F04105460C4600260127608808B985
:10703000022600E00026A088012801D1022700E0F6
:1070400001272088A0B92389A28861882846FFF7F4
:1070500066FFE1882846FFF759FF23893A46314603
:107060002846FFF712FFE1882846FFF701FF13E0EB
:107070002389A28861882846FFF707FFE188284610
:10708000FFF7F6FE23893A4631462846FFF747FFC9
:10709000E1882846FFF73AFFBDE8F0810A884B886F
:1070A0001A438B881A43CB881A430B891A434B899E
:1070B0001A438B891A43A0F8442070474FF6FF719A
:1070C000818000210180C1804180017270470021D0
:1070D000018041808180C180018141818181C181A4
:1070E0007047002101804180012181800021C18001
:1070F000018170470021018041808180C180018130
:107100004181818170470000002C01400034014022
:107110000004004000080040000C004021B102883B
:1071200042F00102028004E002884FF6FE731A402A
:107130000280704731B1B0F8442042F40042A0F818
:10714000442005E0B0F84420C2F30E02A0F8442029
:1071500070471AB183890B43838102E083898B4393
:10716000838170478182704741EA0203A0F848306A
:1071700070471AB183890B43838102E083898B4373
:107180008381704701894FF6F87211400181704781
:107190000A46002101894FF68F731940114301817E
:1071A000704730B504460D4629462046FFF7F0FFEC
:1071B000208940F00700208130BD2DE9F0410446D0
:1071C0000D4616461F46602D06D13B46012231462C
:1071D0002046FFF75AFE05E03B4601223146204695
:1071E000FFF79DFE29462046FFF7D2FF208940F099
:1071F00007002081BDE8F08130B50C4600210189EF
:10720000C9B24FF6FF7505EA032515432543294307
:10721000018130BD2DE9F04105460E4617469846DE
:10722000002443463A4631462846FFF7E5FF2C89BD
:107230004FF6F870044044F007044FF68F70044096
:1072400044F070042C81BDE8F081F0B504460D4691
:1072500016461F463B46324629462046FFF7CCFFDE
:10726000208940F480402081F0BD018582827047F2
:107270000A46002101884FF68F731940114301809F
:107280007047F0B50C4615461E460021002200232B
:107290000189028B038C4FF6F877394021434FF672
:1072A000FC473A4040F201173A434FF6DD773B4046
:1072B0004FF6FF7707EA06172F433B43018102830E
:1072C0000384F0BD0A460021018B4FF68F731940ED
:1072D0001143018370470A460021018B48F6FF7372
:1072E00019404FF6FF7303EA0223194301837047E5
:1072F0000A460021818B4FF68F7319401143818319
:1073000070470A460021818B48F6FF7319404FF6FB
:10731000FF7303EA022319438183704721B1028876
:1073200042F08002028004E002884FF67F731A4028
:107330000280704721B1828842F00402828004E01A
:1073400082884FF6FB731A408280704721B1828891
:1073500042F00802828004E082884FF6F7731A40F8
:107360008280704721B1828842F00102828004E06D
:1073700082884FF6FE731A40828070470A460021C9
:10738000018B4FF6F77319401143018370470A468A
:107390000021018B4FF2FF7319404FF6FF7303EA90
:1073A00002231943018370470A460021818B4FF65F
:1073B000F77319401143818370470A460021818B7E
:1073C0004FF2FF7319404FF6FF7303EA022319438C
:1073D000818370470A460021018B4FF6FB731940E9
:1073E0001143018370470A460021018B4FF6FF339A
:1073F00019404FF6FF7303EA0223194301837047D4
:107400000A460021818B4FF6FB731940114381839B
:1074100070470A460021818B4FF6FF3319404FF623
:10742000FF7303EA02231943818370470A46002150
:10743000018B4FF67F7319401143018370470A4651
:107440000021018BC1F30E014FF6FF7303EA022303
:107450001943018370470A460021818B4FF67F73E1
:1074600019401143818370470A460021818BC1F383
:107470000E014FF6FF7303EA02231943818370471D
:107480000A460021018C4FF6FD7319401143018417
:1074900070470A460021018C4FF6F77319401143DB
:1074A000018470470A460021018C4FF6DF731940B2
:1074B0004FF6FF7303EA02131943018470470A462B
:1074C0000021018C4FF67F7319404FF6FF7303EADA
:1074D00002131943018470470A460021018C4FF6BC
:1074E000FF5319404FF6FF7303EA02231943018447
:1074F00070470A460021018C4FF2FF7319404FF686
:10750000FF7303EA02231943018470470A460021EE
:10751000018C4DF6FF7319404FF6FF7303EA0233F7
:1075200019430184704730B5002301248C40A3B275
:10753000048C9C430484048C02FA01F5ADB22C4304
:10754000048430BD30B5002304248C40A3B2048CE5
:107550009C430484048C02FA01F5ADB22C430484EC
:1075600030BD70B5034600200024184618300125B0
:107570008D40ACB21D8CA5431D8409B1082909D1E9
:1075800000EB6100056825F070050560056815438E
:1075900005600EE00D1FC5F34E052844056825F46F
:1075A000E045056005684FF6FF7606EA022635439A
:1075B000056070BD21B1028842F00202028004E041
:1075C00002884FF6FD731A400280704721B102888D
:1075D00042F00402028004E002884FF6FB731A4076
:1075E0000280704721B1828842F08002828004E0EC
:1075F00082884FF67F731A408280704702884FF668
:10760000F7731A40028002880A430280704782881A
:107610004FF68F731A40828082880A4382807047B7
:1076200002894FF6F8731A40028102890A430281E7
:10763000704702894FF67F731A40028102890A431C
:1076400002817047818470478185704781867047C9
:107650000187704781877047A0F840107047028803
:107660004FF6FF431A40028002880A4302807047A7
:107670000146888E70470146088F70470146888F03
:1076800070470146B1F8400070470146888C70474A
:107690000146088D704702460020138A0B400BB14B
:1076A000012000E000207047CA430282704730B5D5
:1076B0000246002000230024158A05EA010395896B
:1076C00005EA010413B10CB1012000E0002030BD37
:1076D000CA4302827047000010B50446FB4884424A
:1076E00009D101218803FFF79FF800214FF4804062
:1076F000FFF79AF832E0F648844209D101214804A4
:10770000FFF79FF800214FF40030FFF79AF825E0CB
:10771000F048844209D101218804FFF792F8002142
:107720004FF48020FFF78DF818E0EB48844209D130
:107730000121C804FFF785F800214FF40020FFF76E
:1077400080F80BE0E548844208D101210805FFF7E5
:1077500078F800214FF48010FFF773F810BD2DE981
:10776000F04786B005460E460024A24600BFA1465B
:107770000027B08900B100BF2F462C8A4CF6FF705D
:107780000440F08804432C82AC894EF6F310044088
:10779000B08831890843718908430443AC81AC8ABD
:1077A0004FF6FF400440B0890443AC8201A8FEF7C5
:1077B000B4FFC648874202D1DDF810A001E0DDF831
:1077C0000CA0A88900F4004040B10AEBCA0000EB0D
:1077D0000A1031684900B0FBF1F807E00AEBCA0073
:1077E00000EB0A1031688900B0FBF1F86420B8FBA7
:1077F000F0F004012009642101FB1089A88900F43C
:10780000004040B1322000EBC900B0FBF1F000F0C5
:107810000700044308E0322000EB09106421B0FBAC
:10782000F1F000F00F0004432C8106B0BDE8F087B2
:107830004FF41651016000218180C18001810C212B
:10784000418100218181704710B502460020108AD5
:107850004FF2FF0318400B884C8823438C88234346
:10786000CC8823431843108210BD00210180418041
:107870008180C180704721B1828942F400528281A7
:1078800004E082894DF6FF731A4082817047F0B59B
:107890000346002400260025002040F66A17B9425E
:1078A00000D100BF1846C1F3421401F01F060127A2
:1078B00007FA06F5012C01D10C3004E0022C01D1AD
:1078C000103000E014301AB107682F43076002E05F
:1078D0000768AF430760F0BD1AB1838A0B43838208
:1078E00002E0838A8B4383827047028A4FF6F073EB
:1078F0001A400282028A0A430282704782894FF24A
:10790000FF731A40828182890A438281704721B1C4
:10791000828942F00202828104E082894FF6FD737F
:107920001A4082817047028A4FF6DF731A40028242
:10793000028A0A430282704721B1028A42F48042DD
:10794000028204E0028A4BF6FF731A4002827047FB
:10795000C1F308028280704701468888C0F308009E
:107960007047818941F0010181817047028BD2B259
:107970000283028B42EA012202837047028B02F4E7
:107980007F420283028B0A430283704721B1828ABD
:1079900042F02002828204E0828A4FF6DF731A40AE
:1079A0008282704721B1828A42F01002828204E012
:1079B000828A4FF6EF731A408282704721B1828A21
:1079C00042F00802828204E0828A4FF6F7731A407E
:1079D0008282704721B1828942F40042828103E0B1
:1079E0008289C2F30E028281704721B1828A42F4F9
:1079F0000062828204E0828A4FF2FF731A40828220
:107A00007047828A4FF6FB731A408282828A0A4349
:107A10008282704721B1828A42F00202828204E0AF
:107A2000828A4FF6FD731A40828270470246002018
:107A3000B1F5007F00D100BF13880B400BB10120CE
:107A400000E00020704701F40072B2F5007F00D121
:107A500000BFCA430280704770B50246002400236D
:107A60000025002040F66A16B14200D100BFC1F3E4
:107A7000421501F01F03012606FA03F3012D02D17E
:107A80009689334006E0022D02D1168A334001E088
:107A9000968A33400C12012606FA04F41688344004
:107AA00013B10CB1012000E0002070BD10B5002220
:107AB000002340F66A14A14200D100BF0A1201243B
:107AC0009440A3B2DC43048010BD000000380140A4
:107AD0000044004000480040004C0040005000407E
:107AE00010B50120FEF7BAFE0020FEF7B7FE10BD6C
:107AF0002A49086070472949091F086070472749CB
:107B000084310860704701460020254A10884FF6EE
:107B10007F4210400843224A1080704701460020EF
:107B20001F4A10884FF68072104008431C4A10808C
:107B3000704708B500220092194A2C3A0092009A28
:107B400002440092009A116008BD08B50146002069
:107B5000009013482C38009000980844009000983A
:107B6000008808BD0D489C300068C0B270470C48C2
:107B70000830008840F0010009490831088070474A
:107B80000648A0300068C0B2704705480830008839
:107B900040F00200024908310880704704860D4217
:107BA0002C6C004010B501210807FEF74AFE0021A9
:107BB0004FF08050FEF745FE10BD2A49086270471D
:107BC00028490861704701460020274A106820F0C4
:107BD000E0000843106070472249A03108607047F8
:107BE00010B502460020204B186820F00300104317
:107BF00018601E4B1B6843F004031C4C23600129D2
:107C000001D130BF00E020BF184B1B6823F00403F4
:107C1000164C236010BD1448006840F0040012495F
:107C200008600846006840F0020008600F480068DD
:107C300040F004000D49086000BF00BF30BF70472E
:107C400001460020084A52680A400AB1012000E0BB
:107C5000002070470449096841EA8001024A116026
:107C60007047000000000E420070004010ED00E080
:107C700029B1504A128802434E4B1A8004E04D4A03
:107C8000128882434B4B1A8070474A48001D008877
:107C900040F010004749091D088070474548001D05
:107CA00000884FF6EF7108404249091D088070476F
:107CB000002140481C300188001F008841EA004034
:107CC000704700B50246FFF7E0FF100C3949183144
:107CD0000880091D0A80FFF7E1FF00BD00B50246DC
:107CE000FFF7D3FFC2F30340324908310880091D72
:107CF0000A80FFF7D3FF00BD00B50246FFF7C5FFBE
:107D0000100C2C4920310880091D0A80FFF7C6FF9E
:107D100000BD00202749103109880907080B2549B3
:107D2000143109880843704700BF2248001D0088AD
:107D300000F020000028F8D070471E48001D008881
:107D40004FF6F77108401B49091D088000BF19480C
:107D5000001D008800F008000028F8D07047014698
:107D60000020144A121D12880A400AB1012000E0C6
:107D7000002070470F49091D098881430D4A121DD3
:107D800011807047014600200A4A121D12880A40DD
:107D9000D0B2084A12880A4012B108B1012000E0AE
:107DA000002070470349091D09888143014A121DBB
:107DB000118070470028004010B58CB004461E2387
:107DC0000BAA03A9204600F0ABFE0090009810B16A
:107DD00001200CB010BD9DF82C00044400200B9035
:107DE0000EE040489DF82C2050F8221003A800F027
:107DF000FFFD00B908E09DF82C00401CC0B20B90BC
:107E00009DF82C000728ECD300BF9DF82C00072814
:107E100063D2DFE800F004053C5E6564630000BFE8
:107E200031A001F07BF831A001F078F83FA001F01B
:107E300075F84EA001F072F85CA001F06FF86BA02D
:107E400001F06CF879A001F069F886A001F066F8FD
:107E50008BA001F063F890A001F060F894A001F00D
:107E60005DF899A001F05AF89EA001F057F8A4A07F
:107E700001F054F8B0A001F051F8BDA001F04EF8A7
:107E8000C8A001F04BF8D4A001F048F89AE216A07F
:107E900001F044F8E0A001F041F800200B900EE062
:107EA000ED4800689DF82C2000EBC2004168EBA073
:107EB00001F034F89DF82C00401CC0B20B90E6484D
:107EC000007D9DF82C108842EADC07A001F026F81E
:107ED00078E205A001F022F8C4E171E245E219E27E
:107EE000ECE10000480000200D0A00002D2D2D2D92
:107EF0002D2D2D2D2D2D2D2D2D2D2D2D2D2D2D2DB2
:107F00002D2D2D2D55534D4152542056332E312DAC
:107F10002D2D2D2D2D2D2D2D2D2D2D2D2D2D2D2D91
:107F20002D2D2D2D2D2D2D200D0A0000202020205F
:107F300055534D415254CAC7D3C9414C49454E547B
:107F4000454BBFAAB7A2B5C4D2BBB8F6C1E9C7C9F1
:107F5000B5C4B4AEBFDAB5F7CAD4BBA5BDBBD7E9CB
:107F6000BCFE2CCDA8B9FD200D0A0000CBFC2CC412
:107F7000E3BFC9D2D4CDA8B9FDB4AEBFDAD6FACA30
:107F8000D6B5F7D3C3B3CCD0F2C0EFC3E6B5C4C8FF
:107F9000CEBACEBAAFCAFD2CB2A2D6B4D0D02ED2B1
:107FA000F2B4CB2CC4E3BFC90D0A0000D2D4CBE697
:107FB000D2E2B8FCB8C4BAAFCAFDB5C4CAE4C8EBD3
:107FC000B2CECAFD28D6A7B3D6CAFDD7D62831303F
:107FD0002F3136BDF8D6C629A1A2D7D6B7FBB4AE8D
:107FE000A1A2BAAFCAFDC8EB0D0A0000BFDAB5D82E
:107FF000D6B7B5C8D7F7CEAAB2CECAFD292CB5A53B
:10800000B8F6BAAFCAFDD7EEB6E0D6A7B3D63130D0
:10801000B8F6CAE4C8EBB2CECAFD2CB2A2D6A7B35A
:10802000D6BAAFCAFDB7B5200D0A0000BBD8D6B589
:10803000CFD4CABE2ED0C2D4F6B2CECAFDCFD4CAD7
:10804000BEBDF8D6C6C9E8D6C3B9A6C4DC2CD0C21A
:10805000D4F6BDF8D6C6D7AABBBBB9A6C4DC2E0DD4
:108060000A000000BCBCCAF5D6A7B3D63A7777772A
:108070002E6F70656E6564762E636F6D0D0A00005D
:1080800055534D415254D3D037B8F6CFB5CDB3C3C5
:10809000FCC1EE3A0D0A00003F3A202020202020AB
:1080A000BBF1C8A1B0EFD6FAD0C5CFA20D0A00002F
:1080B00068656C703A202020BBF1C8A1B0EFD6FAF9
:1080C000D0C5CFA20D0A00006C6973743A2020203D
:1080D000BFC9D3C3B5C4BAAFCAFDC1D0B1ED0D0A93
:1080E0000A00000069643A2020202020BFC9D3C3C1
:1080F000BAAFCAFDB5C44944C1D0B1ED0D0A0A00FA
:108100006865783A20202020B2CECAFD3136BDF80D
:10811000D6C6CFD4CABE2CBAF3B8FABFD5B8F12BA5
:10812000CAFDD7D6BCB4D6B4D0D0BDF8D6C6D7AA6F
:10813000BBBB0D0A0A0000006465633A20202020C2
:10814000B2CECAFD3130BDF8D6C6CFD4CABE2CBA25
:10815000F3B8FABFD5B8F12BCAFDD7D6BCB4D6B4A4
:10816000D0D0BDF8D6C6D7AABBBB0D0A0A00000006
:1081700072756E74696D653A312CBFAAC6F4BAAFD8
:10818000CAFDD4CBD0D0BCC6CAB13B302CB9D8B113
:10819000D5BAAFCAFDD4CBD0D0BCC6CAB13B0D0A4C
:1081A0000A000000C7EBB0B4D5D5B3CCD0F2B1E033
:1081B000D0B4B8F1CABDCAE4C8EBBAAFCAFDC3FBBC
:1081C000BCB0B2CECAFDB2A2D2D4BBD8B3B5BCFC4F
:1081D000BDE1CAF82E0D0A002D2D2D2D2D2D2D2D92
:1081E0002D2D2D2D2D2D2D2D2D2D2D2D2D2D2D2DBF
:1081F0002D2D414C49454E54454B2D2D2D2D2D2DCA
:108200002D2D2D2D2D2D2D2D2D2D2D2D2D2D2D2D9E
:108210002D2D2D200D0A00002D2D2D2D2D2D2D2D38
:108220002D2D2D2D2D2D2D2D2D2D2D2D2D2D2D2D7E
:108230002DBAAFCAFDC7E5B5A52D2D2D2D2D2D2DA0
:108240002D2D2D2D2D2D2D2D2D2D2D2D2D2D2D2D5E
:108250002D2D2D2D200D0A00D400002025730D0A90
:1082600000000000EFA000F059FE00200B901AE083
:10827000FC4909689DF82C2001EBC20101AB02AA60
:10828000486803A900F072FCF64800689DF82C10BD
:1082900050F8312003A9F4A000F040FE9DF82C0016
:1082A000401CC0B20B90EF48007D9DF82C10884216
:1082B000DEDCAFF2CC3000F031FE83E0AFF2D8303C
:1082C00000F02CFE0BAA03A9204600F02BFD9DF820
:1082D0002C00C8B9694603A800F0BDFB0B909DF8BF
:1082E0002C0020B9E5A0009900F018FE0EE09DF8E2
:1082F0002C00042801D002206BE5E3A000F00EFE64
:108300000120D849C87501E0022062E5DDA000F037
:1083100005FE57E0DBA000F001FE0BAA03A92046F2
:1083200000F000FD9DF82C00C8B9694603A800F0D4
:1083300092FB0B909DF82C0020B9D8A0009900F07A
:10834000EDFD0EE09DF82C00042801D0022040E550
:10835000D5A000F0E3FD0020C249C87501E002206D
:1083600037E5C8A000F0DAFD2CE0C6A000F0D6FD8D
:108370000BAA03A9204600F0D5FC9DF82C00C8B933
:10838000694603A800F067FB0B909DF82C0078B9B4
:10839000B449009881F8EC00084690F8EC0018B158
:1083A000C6A000F0BBFD07E0CBA000F0B7FD03E0E6
:1083B00002200EE502200CE5B2A000F0AFFD01E0C6
:1083C000012006E500BF002003E510B50121C948E2
:1083D000FFF76AF94FF6FF71C648FFF735F900213C
:1083E000C448FFF72FF900209E49C1F8F00010BDE6
:1083F00010B50121BF48FFF74EF9012808D199486F
:10840000D0F8F0004FF6FF7108449649C1F8F0002B
:10841000B848FFF73AF99349D1F8F0100844914968
:10842000C1F8F0000846D0F8F00010BD10B50121E9
:10843000B048FFF73CF901280AD18A49086980470A
:108440000021AC48FFF7FEF86421AA48FFF7FCF8CA
:108450000121A848FFF73CF910BD7FB505460C4641
:1084600001210420FEF7D3F9ADF80850ADF804401F
:108470000020ADF80A00ADF8060001A99D48FEF7FE
:10848000F1FA012241219B48FEF763FE1E208DF880
:10849000000003208DF801008DF8020001208DF806
:1084A00003006846FDF71BFB01219248FEF736FEEC
:1084B0007FBD10B5044604EBC40000EB041001229C
:1084C000C2EB800081B24FF47A70FFF7C6FF012043
:1084D0006449C87510BD30B595B0054613AB12AAF6
:1084E00009A9284600F042FB044614B1204615B005
:1084F00030BD0020149026E05A4909689DF85020AC
:1085000001EBC20113AB11AA486801A900F02EFBD0
:1085100004460CB12046EAE709A901A800F068FA70
:1085200060B99DF844009DF84810884201DD0220A2
:10853000DDE79DF850004B4988750AE09DF8500032
:10854000401CC0B214904748007D9DF850108842EE
:10855000D2DC00BF4348007D9DF85010884201D115
:108560000420C4E714A9284600F04DFC04460CB1D1
:108570002046BCE79DF850003A4948750020B6E710
:108580002DE9F0419AB03748847D007DA04202DC9D
:108590001AB0BDE8F0813349096801EBC40106ABAC
:1085A00007AA486808A900F0E1FA08A952A000F05B
:1085B000B5FC0026BAE02B48008B0121B1400840F1
:1085C000D8B122214EA000F0A9FC304600F00EFCEC
:1085D00024492431471839464AA000F09FFC222143
:1085E00047A000F09BFC304600F000FC1D49243100
:1085F000084410A941F826008EE0304600F0F6FB52
:1086000018492431085810A941F826001548C07DA2
:1086100030B910A850F826103BA000F07FFC7BE09A
:1086200074E000002D2D2D2D2D2D2D2D2D2D2D2DDA
:108630002D2D2D2D2D2D2D2D2D2D2D2D2DBAAFCABE
:10864000FD204944202D2D2D2D2D2D2D2D2D2D2D71
:108650002D2D2D2D2D2D2D2D2D2D2D2D2D2D2D2D4A
:10866000200D0A00D400002025732069642069735E
:108670003A0D0A3058253038580D0A004845583A06
:10868000305825580D0A00003136BDF8D6C6B2CE96
:10869000CAFDCFD4CABE210D0A0000004445433AAA
:1086A000256C750D0A0000003130BDF8D6C6B2CE7B
:1086B000CAFDCFD4CABE210D0A00000052756E203B
:1086C00054696D652043616C63756C6174696F6E8C
:1086D000204F4E0D0A00000052756E2054696D65E2
:1086E0002043616C63756C6174696F6E204F464600
:1086F0000D0A0000000800400D0A25732800000044
:108700002563000025730000256C750010A850F843
:10871000261095A000F002FC9DF81C00401EB042FF
:1087200002D093A000F0FAFB701CC6B29DF81C00AA
:108730008642FFF640AF8FA000F0F0FBFFF745FE4A
:108740008D48407D0B280DD2DFE800F0060D151E88
:1087500027323F4E5F7287008749096851F834001D
:108760008047054690E0844A126852F83410109809
:108770008847054688E0804B1B6853F83420DDE9C4
:108780001001904705467FE07B4F3F6857F8343033
:1087900010A807C89847054676E0DFF8DCC1DCF88A
:1087A00000C05CF8347010A80FC8B84705466BE0ED
:1087B0001498DFF8C4C10090DCF800C05CF8347095
:1087C00010A80FC8B84705465EE0DDE91401DFF8E0
:1087D000A8C1CDE90001DCF800C05CF8347010A835
:1087E0000FC8B84705464FE0DDE914121698DFF8C8
:1087F00088C1CDE900120290DCF800C05CF834704A
:1088000010A80FC8B84705463EE0DDE91423DDE9AE
:108810001610DFF864C1CDE90023CDE90210DCF8C1
:1088200000C05CF8347010A80FC8B84705462BE0AC
:10883000DDE91523DDE91710CDE90123CDE90310AA
:108840001498DFF834C10090DCF800C05CF8347094
:1088500010A80FC8B847054616E0DDE91623DDE984
:108860001810CDE90223CDE90410DDE91401DFF889
:1088700008C1CDE90001DCF800C05CF8347010A834
:108880000FC8B847054600BF00BFFFF7B1FD9DF810
:10889000180001280CD13848C07D20B9294637A0DE
:1088A00000F03CFB07E0294636A000F037FB02E071
:1088B00033A000F033FB304890F8EC0088B12E482C
:1088C000D0F8F0000A21B0FBF1F201FB12072A48B0
:1088D000D0F8F000B0FBF1F83A4641462CA000F089
:1088E0001DFB00BF54E670B53148008800F400401D
:1088F000002833D02E48057800202E4948551E48C0
:1089000081682C48884704461CB91B49C8688047C1
:1089100021E02848FFF750FA0546012D00D02C46EB
:10892000CCB1012C06D0022C08D0032C0AD0042C88
:1089300010D10BE020A000F0F1FA0BE021A000F034
:10894000EDFA07E022A000F0E9FA03E023A000F02E
:10895000E5FA00BF00BF00201549088070BD014640
:1089600008687047016070473058255800000000C3
:108970002C00000029000000D40000203D256C756B
:108980003B0D0A003D305825583B0D0A0000000001
:1089900046756E6374696F6E2052756E2054696DF2
:1089A000653A25642E2531646D730D0A00000000C0
:1089B00030000020A0050020BAAFCAFDB4EDCEF310
:1089C000210D0A00B2CECAFDB4EDCEF3210D0A008E
:1089D000B2CECAFDCCABB6E0210D0A00CEB4D5D2E2
:1089E000B5BDC6A5C5E4B5C4BAAFCAFD210D0A0020
:1089F00002460AE010780B78984201D001207047B7
:108A0000107800B902E0521C491CF3E700BF0020B7
:108A1000F5E706E002780A70027802B902E0401C2D
:108A2000491CF7E700BF70470146002005E00A78BF
:108A300002B903E0421CD0B2491CF8E700BF7047FE
:108A400010B50246012000E050430B1EA1F10104C5
:108A5000E1B2F9D110BD2DE9F04307460E460025DD
:108A60004FF00A083C46002030601FE0207839288B
:108A700002DC207830280ADA2078462802DC2078C8
:108A8000412804DA2078582809D1012D07D120780F
:108A9000412801DB4FF01008681CC5B205E02078C2
:108AA00000B904E00120BDE8F083641CDEE700BFEC
:108AB0003C46B8F1100F0FD1032D01DA0220F2E786
:108AC0002078302806D16078582803D1A41CA81E2D
:108AD000C5B204E00320E6E70DB90420E3E71BE09C
:108AE0000DB1681EC5B22078392806DC2078302800
:108AF00003DB2078A0F1300902E02078A0F13709EB
:108B000029464046FFF79CFF316809FB00103060A2
:108B1000641C207800B900E0E2E700BF0020C2E753
:108B200010B50446002010700BE020780870641C1B
:108B3000491C1078401C10701078984201DB01200D
:108B400010BD2078202802D020780028EDD1002008
:108B5000087000BFF4E70146491C00E0491C087892
:108B6000202801D10029F9D1087870472DE9FF4F5D
:108B700085B080468946002700200490039001209C
:108B800002904FF0000B002544461DE0207820287D
:108B900016D005F07F00052812DA0DB945F08005E2
:108BA00005F07F00042803D120782A2800D00EE0A9
:108BB000207805F07F010DF80100681CC5B202E0C5
:108BC000852D00D103E0641C20780028DED100BF91
:108BD0008DB1002005F07F010DF80100CBA16846A2
:108BE000FFF706FF18B900210898017002E0012183
:108BF0000898017000254FF0000A444614E0641CF8
:108C00000AF1010000F0FF0A2078202802D0207825
:108C10002A2809D12046FFF79EFF0646282E03D0BA
:108C20002A2E01D0CDF810A02078282802D0207854
:108C30000028E4D14446049810B10498401C044430
:108C40004FF0000A002654E0207810B94FF0010AD6
:108C500050E02078282803D116B9781CC7B213E059
:108C60002078292808D13EB917B1781EC7B201E093
:108C70004FF0010A47B93DE02078222804D10EB90F
:108C8000012000E00020064647B9207820282FD098
:108C9000207889F8000009F1010929E020782C28C2
:108CA00004D101200290681CC5B214E0207820286D
:108CB00011D0207828280ED04DB9BBF1050F06DA67
:108CC00020780DF80B000BF1010000F0FF0B02986B
:108CD000401CC0B20290012F0AD10298022807D18D
:108CE0000298401CC0B202900398401CC0B203908E
:108CF000641CA9E700BF0398012809D100200DF8E2
:108D00000B0082A16846FFF773FE08B900200390AC
:108D1000079903980870002089F80000504609B0B0
:108D2000BDE8F08FF0B5034615460020002200266E
:108D3000002455E01F782C2F01D104B901221F789F
:108D4000292F01D01F780FB904B94AE0002E34D181
:108D50001F78302F02DB1F78392F11DD1F78612F2C
:108D600002DB1F78662F0BDD1F78412F02DB1F7897
:108D7000462F05DD1F78582F02D01F78782F0CD191
:108D800002B12EE01F78612F03DB1F78203F0F70A8
:108D900001E01F780F70491C1FE01F78222F04D1BB
:108DA00002B11EE00126012417E01F78202F14D005
:108DB0001F782C2F11D0FF2613E01F78222F00D10F
:108DC000002402B10DE044B11F785C2F02D15B1C7E
:108DD000471CF8B21F780F70491C471CF8B25B1C87
:108DE000A8E700BF00270F702E70F0BD02460020DC
:108DF000002105E0474B5B5C0344D8B24B1CD9B261
:108E00009142F7DB70472DE9F043B5B005460F46B8
:108E10000024002604E000213E488155701CC6B2A3
:108E20000A2EF8DB06E06D1C287818B9012035B051
:108E3000BDE8F08328782828F5D16D1C61E034AABC
:108E400069462846FFF76EFF064635449DF8D00078
:108E500020B1012827D0FF284CD149E09DF800001F
:108E600000B333A96846FFF7F6FD06460EB10220AF
:108E7000DDE72046FFF7BAFF26490A31339A0A5048
:108E8000A1F12400008B0121A140884321491A3916
:108E9000088304211F480155601CC4B20A2C01DD5F
:108EA0000320C4E726E06846FFF7BEFD401C00F043
:108EB000FF082046FFF79AFF16490A3100EB010927
:108EC00049466846FFF7A5FD12481A38018B012074
:108ED000A040014388B20F491A3908830D4800F8B1
:108EE0000480601CC4B20A2C01DD03209FE701E06E
:108EF00002209CE700BF2878292801D0287800B9F3
:108F000000E09CE700BF3C70002090E7766F69644A
:108F100000000000EE000020704700000FB404497C
:108F200010B503AA029800F0FFF910BC5DF814FB1D
:108F30002C00002070B5044685690068C10601D583
:108F4000302600E02026C00707D070BDD4E90121FB
:108F500030469047206A401C20626D1EF6D570BDD9
:108F600070B5044685690078C00707D170BDD4E9A3
:108F7000012120209047206A401C20626D1EF6D5FA
:108F800070BD70B50C460546012A05D028788006CC
:108F900000D5EA69002302E0012305E05B1C93424F
:108FA00002D2E05C0028F9D1A869E618C01AA861CD
:108FB000286A184428622846FFF7BCFF04E0D5E978
:108FC000012114F8010B9047B442F8D32846FFF76B
:108FD000C7FF70BD2DE9F0410646002410687529D1
:108FE000314616A510D0AFF30080002802DA4042C7
:108FF00013A507E031688A0701D512A502E04907E9
:1090000004D511A5012401E0AFF3008000210A225C
:1090100006F1240709E0B0FBF2FCB0FBF2F302FB1F
:109020001C00303078541846491C0028F3D12346E0
:109030002A463046BDE8F04100F007B900000000C4
:109040002D0000002B0000002000000070B5044639
:109050000D4621461068AFF300802188090502D52E
:109060000F4A7A4402E00E4A7A440E32002104F19B
:10907000240305E000F00F060009965D5E54491CCC
:109080000028F7D120780023000704D5702D02D0E6
:1090900009B1022311322046BDE8704000F0D5B876
:1090A0000E2D00002DE9F05F894604464FF0000ABE
:1090B000DFF874B1FB44C0F820A02046E16888477F
:1090C000002874D0252806D0D4E901219047206AD1
:1090D000401C2062F1E700265F462046E168884791
:1090E0002028054607DB312D05D2781910F8200C11
:1090F00008B10643F1E7B00701D526F00406C4F82D
:109100001CA00027C4F818A02A2D09D0284600F07A
:10911000A3FC38B304EB8708303DC8F8185019E0B9
:1091200059F8041B204604EB87029161E1688847E7
:10913000012F054618D1E069002820DA26F0200624
:109140001DE0D8F8180000EB800005EB4000303837
:10915000C8F818002046E1688847054600F07CFC06
:109160000028EED1012F0AD02E2D08D12046E1682B
:1091700088477F1C0546022F46F02006C4DBA06905
:10918000002803DA404246F00106A061F00701D052
:1091900026F010066C2D0BD0682D09D04C2D39D03F
:1091A0006A2D35D0742D35D07A2D33D016E038E0C5
:1091B000E1682F4620468847B842054609D16C2F02
:1091C00026D04FF48060E168064320468847054674
:1091D00004E06C2F1AD04FF4807006430DB3A5F154
:1091E0004100192802D8203546F400664A4629462F
:1091F000204626604E46F6F7F5FF80B101280BD0D9
:10920000F61D26F0070000F1080956E74020E4E7C4
:109210008020D8E70020D6E706F104094DE728466C
:1092200052E7206ABDE8F09FE42C000070477047C9
:109230007047704710B500F089F8006810BD10B590
:10924000044600F083F8046010BD2DE9F0470D4698
:1092500099469246044600F124080168880604D520
:10926000E06921F01001216000E00120A84201DD49
:10927000471B00E00027A1697A1902EB0900081AD0
:10928000A0612078C00602D42046FFF753FE0026D6
:1092900008E0D4E901211AF806009047206A401C32
:1092A000761C20624E45F4DB2078C0060AD52046A5
:1092B000FFF740FE06E0D4E9012130209047206A04
:1092C000401C2062381EA7F10107F4DC07E0D4E956
:1092D000012118F805009047206A401C2062281ED2
:1092E000A5F10105F3DC2046FFF73AFE20780006E1
:1092F00002D50220BDE8F0870120FBE710B54369E5
:1093000013B1AFF3008001E0FFF73BFE012010BD79
:10931000127800F124010A7000224A700122EDE760
:1093200011684FF0FF32E9E7074B70B50D467B44FB
:1093300000F015F80446284600F024F810B14FF06C
:10934000FF3070BD204670BD27C6FFFF0048704744
:109350006806002001694A1C02610878704700B560
:109360008FB0CDE901310021059105497944CDE95E
:10937000031011466846FFF795FE0FB000BD0000D0
:10938000E5FFFFFF007B00F080007047004870475A
:10939000680600207546FFF7F9FFAE4605006946EE
:1093A000534620F00700854618B020B5FCF780FB37
:1093B000BDE820404FF000064FF000074FF00008D6
:1093C0004FF0000B21F00701AC46ACE8C009ACE857
:1093D000C009ACE8C009ACE8C0098D46704710B5BB
:1093E0000446AFF300802046BDE81040F6F718BFF2
:1093F000490050EAC12018BF04204A0D18BF40F0B0
:10940000010040F2FF72B2EB515F08BF40F0020072
:10941000012808BF052070472DE9F74F144694B086
:109420000021C4E902111599079121F00045C949AD
:109430008D4206DC1599C4E9000117B00020BDE893
:10944000F08FC549DFF814A3A9423CDD0799C44E4B
:109450000029C44FC44A1599534619DD00F03CFF5A
:10946000554506D0C14AC24B00F036FFC4E90001A1
:109470000AE04FF0D352BE4B00F02EFF32463B467F
:1094800000F02AFFC4E9000117B00120BDE8F08F09
:1094900000F088FB554506D0B44AB54B00F082FB7E
:1094A000C4E900010AE04FF0D352B14B00F07AFB5F
:1094B00032463B4600F076FBC4E9000117B04FF09E
:1094C000FF30BDE8F08FAB49A942159978DB21F058
:1094D000004183468846A84AA84B00F0F3FD0022CD
:1094E000A74B00F05FFB00F065FD099000F0BFFDA9
:1094F00006460F469C4A534600F0E4FD43465A4652
:1095000000F0DEFE80468A46984A994B304639463E
:1095100000F0D8FD2A0D01250B924246534600F07B
:10952000CFFE032DC4E9000139D00B98C1F30A51D5
:10953000401A05EB45111139814230DA9148C34692
:10954000784400EB0510CDF80CA00C90D0E9002376
:109550003046394600F0B6FD02460B4604910690AF
:109560005846039900F0B8FE80468A4602460B46EC
:109570005846039900F0B0FE049B069A00F0ACFE3A
:1095800083460C9803913946D0E90223304600F017
:1095900099FD5A46039B00F09FFE6D1CBDE707989E
:1095A0000028A2BF099817B0BDE8F08F616881F06C
:1095B00000416160099817B04042BDE8F08FFFE7B5
:1095C00084461598C1F31301C0F30A50A0F2F53098
:1095D0004FEA601800F01F06C6F12000139000202B
:1095E0000690079041F4801E05206D4676B1664ACC
:1095F00008EB00017A4452F8213002EB8101B340BC
:109600004A68139922FA01F1194305E05F4908EB12
:109610000002794451F82210A1FB0E27A1FB0C1384
:109620001A449A4234BF0123002303EB070A05EBD7
:109630008003D3E901B70F448F4234BF01210021D9
:1096400093448B4411B1934502D903E0934501D271
:10965000012100E00021C3E901B7514445F8201081
:10966000011EA0F10100C1DC0298059F00F100502D
:10967000800F12900298DDE90356800000F0F7FC9D
:10968000834628460D9100F009FD6FF01D0200F0A1
:109690003FFFCDE90E01304600F000FD6FF03D02C6
:1096A00000F036FF80468A46384600F0F7FC6FF03F
:1096B0005D0200F02DFF074642465346119100F02F
:1096C00071FADDE90E2300F06DFA5A460D9B00F0A9
:1096D00069FA00250E465A4628460D9B00F0FCFD0F
:1096E000DDE90E2300F0F8FD4246534600F0F4FD9C
:1096F0003A46119B00F0E4FDDFF898A0244A534657
:1097000000F0E0FC07468846234A244B31462846B1
:1097100000F0D8FC3A46434600F044FA0746884633
:109720004FF0A84253463146284600F0CBFC3A465B
:10973000434600F037FA159A12F0004F04D0129AFF
:1097400081F0004152421292C4E90001129817B010
:10975000BDE8F08FFB21E93F7CD90240FB21F93FB6
:109760007370032E8A19A33B000040543163621AC0
:1097700061B4D03DFB21394183C8C96D305FE43FFE
:109780000000E03F9C28000018280000FA27000095
:10979000182D4454FB21F93D3326A611460B113CEC
:1097A0002DE9FF4D21F0004807460C46B8F1795FDE
:1097B00008DA00F0FFFB002801BF0020324904B0A6
:1097C000BDE8F08D3A4623461046194600F07AFC73
:1097D000054602462D480E460B460621784400F009
:1097E0005DF82A46334600F06DFCDDE9022382462F
:1097F0008B463846214600F065FC04460F4652462B
:109800005B462846314600F05DFC22463B4600F0B0
:1098100063FD07468A464FF0FF322846314600F086
:1098200077FE1B4A90450ADA3A46534600F054FD4B
:1098300004B00022BDE8F04D134B00F041BD154AC5
:109840004245A8BFA8F500154FF00004B8BF124D5F
:1098500022462B4600F040FD0646884622462B460F
:109860000020094900F038FD04460D463A465346AB
:109870003046414600F030FD04B022462B46BDE89C
:10988000F04D00F01DBD00000000F03FD0250000AD
:109890003333D33F0000E93F0000D23F2DE9F041D0
:1098A0004F1E00EBC7010446D1E9000115461E46D4
:1098B00037F006020DD02A46334600F003FC7F1E27
:1098C00004EBC703D3E9002300F06CF937F006027C
:1098D000F1D1022F25D0042F13D0062F18BFBDE8D9
:1098E000F0812A46334600F0EDFBD4E90A2300F06C
:1098F00059F92A46334600F0E5FBD4E9082300F085
:1099000051F92A46334600F0DDFBD4E9062300F086
:1099100049F92A46334600F0D5FBD4E9042300F088
:1099200041F92A46334600F0CDFBD4E9022300F08A
:1099300039F92A46334600F0C5FBD4E90023BDE8D7
:10994000F04100F02FB900002DE9FF4D054621F050
:10995000004084B00C46B0F1795F0BDA2846FFF77F
:1099600047FD042808BF00F06FF8284608B02146DC
:10997000BDE8F08D2A460B46104600F0A3FB0646D4
:109980000F462A46234600F09DFB804626488A461D
:1099900032463B4605217844FFF780FF8346109806
:1099A000029160B3214A224B4046514600F08AFBA7
:1099B000CDE900015A4640465146029B00F082FB29
:1099C00082468846DDE906014FF0FF3200F0A0FD37
:1099D0005246434600F080FC32463B4600F072FBA4
:1099E000DDE9062300F078FCDDE9002300F074FCDB
:1099F00008B02A462346BDE8F04D00F061BC0B4696
:109A00005A463046394600F05DFB084A084B00F0E4
:109A1000C9F84246534600F055FB08B02A46234693
:109A2000BDE8F04D00F0BEB80E2500004955555573
:109A30005555C5BF012200F06BBD002213461046EC
:109A4000114600F05FB90000024A0020110700F043
:109A50005FBD000001FDFFFF30380A2801D2012060
:109A6000704700207047000000B5244B21F00042F1
:109A700087B09A42DCBF0022134629DD204B9A4270
:109A800008D140B94FF00100FFF7D9FBFFF7D5FF30
:109A900007B000BD03DBFFF7CDFF07B000BD02AA92
:109AA000FFF7BAFC10F0030104BF0DF1080C9CE8AD
:109AB0000F000DD0012001290ED0022914D00DF184
:109AC000080C00909CE80F00FFF73EFF07B000BDB8
:109AD000FFF766FE07B000BD0DF1080C00909CE892
:109AE0000F00FFF731FF05E00DF1080C9CE80F00B7
:109AF000FFF756FE07B081F0004100BDFB21E93FB2
:109B00000000F07F00B5254B21F0004287B09A425B
:109B100003DC0022134600922BE0214B9A4208D12D
:109B200040B94FF00100FFF78AFBFFF786FF07B04F
:109B300000BD03DBFFF77EFF07B000BD02AAFFF701
:109B40006BFC10F003014FF001000DD0012914D07F
:109B500002291AD00DF1080C9CE80F00FFF720FE37
:109B600007B081F0004100BD0DF1080C00909CE8A9
:109B70000F00FFF7E9FE07B000BD0DF1080C9CE8EF
:109B80000F00FFF70DFE07B000BD0DF1080C0090AF
:109B90009CE80F00FFF7D8FEE2E70000FB21E93F59
:109BA0000000F07F10B591EA030F48BF83F0004337
:109BB00000F19A83841A71EB030C05D2121943EB5E
:109BC0000C03001B61EB0C01DFF824E14FEA115498
:109BD000A4EB135C1EEA430F18BF9EEA445F73D0E8
:109BE00023EA0E03DCF1200E21EA045143F4801332
:109BF00032D322FA0CFE10EB0E0023FA0CFE41EBDE
:109C00000E01CCF1200E03FA0EFE10EB0E0051F106
:109C10000001B1F5801FCCF1200E32D201EB0451CE
:109C200012FA0EF2BDE8104058BF7047401C38BF12
:109C30005FEA420218BF7047002814BF20F00100FD
:109C400041F100014FEA410313F5001F38BF70478F
:109C5000A1F1C04100F02EBB012A43EB0302ACF19D
:109C6000200CDCF11F0E32BF4FF0000E23FA0CF374
:109C700010EB030041EB0451B4EB115FD0D0A1EB2A
:109C8000045101F5801149085FEA300001EB0451ED
:109C90000ED350F1000038BF12FA0EFE08D1BDE815
:109CA0001040C9E7401C38BF5FEA4202CAD1C3E78F
:109CB000BDE810404FEA410313F5001F38BF70475D
:109CC000A1F1C04100F0F6BA9EEA445F08D011EA63
:109CD0005E0FBDE8104004BF01F000410020704756
:109CE000BDE8104070B500F097FA00BF64FBBE3EBF
:109CF0000000E0FF02494FF0000000F0D7BB00BFBA
:109D00000000F87F2DE9C04130B4DFF8A0C23CEA82
:109D1000111418BF3CEA131400F0EC8081EA03052B
:109D20001CEA111444EAD57418BF1CEA131500F09C
:109D3000C780A4EB05044FF0004545EAC12145EA80
:109D4000C32341EA505143EA525304F17F749942CC
:109D500004F500344FEAC0204FEAC22208BF904207
:109D600000F09C804FEA13650FF24016765D4FEAD3
:109D7000134506FB05F7C7F1807706FB07F74FEAA7
:109D8000D737A7FB03687642C8F58038A7FB06CE15
:109D900038BFA8F1010807FB08E64FF0000EA6FB4C
:109DA000028CE6FB03CEDCF1000CCEF1004E38BF96
:109DB000AEF1010EA6FB0C584FF000074FF0000566
:109DC000E6FB0E87A1FB08C6A0FB07CE16EB0E062E
:109DD00045F10005E1FB076515F1E04E7EBFA4F5F6
:109DE00080345FEA46066D4116F1800745F10005B3
:109DF0004FEA17274FEA066647EA0567A6F1DE46EF
:109E0000B6F1805F4FEA15251FD9384624F0010CC2
:109E100005EBC471BCF1FE6F01EB0C1102D8F0BC74
:109E2000BDE8008124425CBF01F5801E9EEAC47F2C
:109E300002D4F0BCBDE80081244238D4F0BCA1F1CA
:109E4000C041BDE8004100F035BA4FEAD22242EAF3
:109E500043524FEAD323A7FB02864FEAD02040EAC1
:109E6000415007FB03661EEA0E0F4FEAD12105FBA6
:109E7000026658BFA6EB0056B6EB00564FEA520EEC
:109E80004EEAC37E18EB0E0E56EB530EBDD518EB03
:109E900002085E417F1C55F10005B6E74FF48015BE
:109EA0004FF000074FF000064FF00008ADE7F0BCA0
:109EB0004FF0000001F1C04101F00041BDE8008118
:109EC00011EA0C1F0CEA131500D00CE013EA0C1F6A
:109ED00000F025804FF00000F0BC81EA030101F0A2
:109EE0000041BDE80081F0BCBDE8004181EA03010A
:109EF00000F0E0B9F0BCBDE8004170B500F08CF9AD
:109F0000097EFC3E00F007B881EA03014FF0000033
:109F100001F00041704781EA030100F0CBB9F0BCC9
:109F2000BDE800414FF0000021497047FFFDFBF9FB
:109F3000F7F5F4F2F0EEEDEBE9E8E6E4E3E1E0DE7C
:109F4000DDDBDAD8D7D5D4D3D1D0CFCDCCCBCAC8EE
:109F5000C7C6C5C4C2C1C0BFBEBDBCBBBAB9B8B715
:109F6000B6B5B4B3B2B1B0AFAEADACABAAA9A8A808
:109F7000A7A6A5A4A3A3A2A1A09F9F9E9D9C9C9BD6
:109F80009A99999897979695959493939291919081
:109F90008F8F8E8E8D8C8C8B8B8A89898888878712
:109FA0008685858484838382828181800000FF0787
:109FB0000000F87F4FEA41034FEA5353A3F5806353
:109FC000D3F11E03C8BFD3F1210C0CDD4FF00042CA
:109FD00042EAC12242EA505232FA03FC8CEAE17CA6
:109FE000ACEBE1707047102BC4BF0020704703F545
:109FF000787CBCF1FF3F04D06FF0004282EA210080
:10A00000704770B500F008F949922480002070472D
:10A01000F2E700004FEA1153A3F58063D3F11E036A
:10A02000A8BFD3F1200C08DB4FF0004242EAC12266
:10A0300052EA505232FA03F0704709420BD4102B07
:10A04000C4BF0020704703F5787CBCF1FF3F05D00A
:10A050004FF0FF3070474FF00000704770B500F0D0
:10A06000DBF800BF4992248000207047F0E710F031
:10A07000004248BF4042B0FA80F310FA03F10AD020
:10A08000C3F11D0303F580634FEA415002EB035215
:10A0900002EBD12170474FF000007047B0FA80F317
:10A0A00010FA03F10AD0C3F11D0303F580634FEAF0
:10A0B00041504FEA035202EBD12170474FF00000AC
:10A0C00070470000DFF848C170B51CEA111E1EBFC2
:10A0D0001CEA13159EEA0C0F95EA0C0F00F06F8036
:10A0E00081EA030423EA4C134EEAD47E21EA4C11A0
:10A0F00041F4801143F48013AE44A1FB024CA0FB59
:10A100000365AEF17F7E361955EB0C05A1FB034CC0
:10A110004CF10003A0FB021C16EB0C06654153F149
:10A120000003094218BF46F0010613F4007F0BD16B
:10A130004FEA03314FEA0530340341EA155140EA52
:10A1400016506FF003020AE04FEAC3214FEAC52020
:10A15000F40241EA555140EA56506FF0020202EB18
:10A160002E4201EB025585EACE710AD05FEA440C1B
:10A1700018BF24F0004450F1000041F1000120EA32
:10A18000D47040F2FE7C624500D270BDA84214BF7C
:10A190004FF080444FF04044002E08BF0024BEF131
:10A1A000806FA8BFA1F1C041BDE8704080F28280FD
:10A1B0004FF0000001F1C04101F0004170479EEAFC
:10A1C0000C0F0CEA131518BF95EA0C0F06D04FF0D0
:10A1D000000081EA030E0EF0004170BD00F01CF893
:10A1E0008900013E00F007B800F009B84FEA430CBF
:10A1F0005FEA5C5C08D081EA030100F05BB84FEADB
:10A20000410C5FEA5C5CF6D14FF0000001497047F9
:10A210000000FF070000F87F0EF1020E2EF0030E83
:10A220005EF8046B364205D4012A43EB030515F5AD
:10A23000001F12D8012841EB010C1CF5001F0CD89F
:10A240000ED14FEAD17C15F5001F0CEB4C0C0CF134
:10A25000020C08BF4CEBD37C04E04FF0080C01E08B
:10A260004FEAD37C0CEB4C0526FA05F606F0070600
:10A27000B6F1040C06D20EEB860CBDE870404CF033
:10A28000010C6047DFE80CF0090B02024FF00041BF
:10A290004FF00000A1F5002170BD194610460128BD
:10A2A00051EB010418BFD4F5001484BF002001F065
:10A2B000004170BD0808A0F500114FEA3101704758
:10A2C00091EA030F10B581F000413FF573AC83F0C4
:10A2D000004300F009B8000010B591EA030F48BF31
:10A2E00083F000433FF566AC841A71EB030C07D290
:10A2F00012198CF0004C43EB0C03001B61EB0C01BA
:10A30000DFF8A4E14FEA1154A4EB135C1EEA430FFB
:10A3100018BF9EEA445F00F0B08023EA6E03524209
:10A3200021EA0451C3EB6E0338BF5B1EDCF1200E43
:10A3300025D322FA0CFE10EB0E0043FA0CFE41EB83
:10A340000E01CCF1200E03FA0EFE10EB0E0051F1BF
:10A350000001CCF1200E29D412FA0EF201EB0451C7
:10A36000BDE8104058BF7047401C1CBFB2F1004F01
:10A37000704700280CBF491C20F00100704712EB09
:10A38000020E43EB030218BF4FF0010E4EEA4202E9
:10A39000ACF1200CDCF11E0E54D943FA0CFE10EB8C
:10A3A0000E0051F1FF31CCF11E0ED5D50EF1010E8C
:10A3B00012FA0EFE404141EB010101EB445C5FEA01
:10A3C0005C5C10D910EBDE7001EB045138BFBEF1BC
:10A3D000004FBDE8104018BF704700280CBF491C53
:10A3E00020F00100704730D24FEAD42C11F5001153
:10A3F00024F400641BD0B1FA81F20B3AA41AA41E13
:10A40000D2F12003914030FA03F31943904001EB5D
:10A41000CC71002C01EB0451BDE81040A8BF70477F
:10A4200001F1C0414FF0000001F000417047B0FA67
:10A4300080F310FA03F100D110BDE41A173C48056F
:10A44000C90AE4E701EB045110BD491001EB0451C6
:10A45000BDE810404FEA300002E04FF000017047C5
:10A460004A0008BF0042F8D0B2F5001F28BF70476D
:10A4700001F000414FF0000070479EEA445F07D0B2
:10A4800011EA5E0FBDE8104004BF002100207047B4
:10A49000BDE8104070B5FFF7BFFE00BF40DFF63EDD
:10A4A00083F00041104670470000E0FF0CF00F03FE
:10A4B000092B08BF082000F059800A2B0BD0082B6D
:10A4C00018BF704708BF1CF0400F0AD04FF00000C3
:10A4D0004FF0000170471CF0400F18BF4FF00040D4
:10A4E00070471CF0100F08D020F0704300F07F423E
:10A4F00042EAD3014FEA4370704700F0604021F018
:10A500007F4242EA000201F07F4040EA72707047E9
:10A510004FF0FF0C4CF4E06C1CEA11531CBF9CEA9A
:10A52000030C9445C2BFDA4201EB02517047002B85
:10A530000DD0BCF1000F0FD0002A01F00041A4BFE4
:10A5400041F0E04141F07F614FF00000704701F0C1
:10A5500000414FF00000704750EA01334FF09B0C70
:10A5600018BF4CF0806C7FF4C5AB70471CF4801FA3
:10A5700011D01CF4E02F03D06FEACC3149007047B2
:10A580004FF04050EFF3008222F0704242EA0002A6
:10A5900082F3008870474FF0000070470000000011
:10A5A0000000000000000000000000003F4000002C
:10A5B00000000000000030004000300040000000BB
:10A5C00009000BC03D000BC03D00090018C024402D
:10A5D0007FE0224031800000180024C01B000D8065
:10A5E0003240018003801C4027401C80074000400F
:10A5F00010006000000000000000000000000000EB
:10A6000000001F80204040200000402020401F808C
:10A6100000000000090006001F800600090000007D
:10A62000040004003F8004000400000000100060EB
:10A63000000000000000000004000400040004000A
:10A6400004000000000000400000000000000000C6
:10A65000002001C006003800400000001F8020409C
:10A66000204020401F800000000010403FC00040FC
:10A670000000000018C02140224024401840000083
:10A6800010802040244024401B80000002000D0068
:10A6900011003FC0014000003C8024402440244081
:10A6A000238000001F8024402440344003800000A9
:10A6B0003000200027C03800200000001B8024400C
:10A6C000244024401B8000001C0022C02240224065
:10A6D0001F80000000000000084000000000000093
:10A6E0000000000004600000000000000000040002
:10A6F0000A001100208040400900090009000900FB
:10A700000900000000004040208011000A00040001
:10A710001800200023402400180000001F80204063
:10A72000274029401F400000004007C039000F00AB
:10A7300001C0004020403FC0244024401B80000056
:10A740001F802040204020403080000020403FC03B
:10A75000204020401F80000020403FC024402E4069
:10A7600030C0000020403FC024402E0030000000D8
:10A770000F001080204022403380020020403FC064
:10A78000040004003FC02040204020403FC0204043
:10A79000204000000060202020203FC0200020003A
:10A7A00020403FC024400B0030C0204020403FC02C
:10A7B00020400040004000C03FC03C0003C03C00BF
:10A7C0003FC0000020403FC00C4023003FC020009D
:10A7D0001F802040204020401F80000020403FC0BC
:10A7E00024402400180000001F802140214020E068
:10A7F0001FA0000020403FC02440260019C0004098
:10A8000018C0244024402240318000003000204005
:10A810003FC020403000000020003F80004000404A
:10A820003F80200020003E0001C0070038002000CB
:10A83000380007C03C0007C038000000204039C085
:10A84000060039C0204000002000384007C03840D2
:10A8500020000000304021C02640384020C00000C9
:10A86000000000007FE04020402000000000700059
:10A870000C000380004000000000402040207FE0EA
:10A880000000000000002000400020000000000048
:10A890000010001000100010001000100000000058
:10A8A000400000000000000000000280054005405C
:10A8B00003C0004020003FC004400440038000006B
:10A8C00000000380044004400640000000000380B4
:10A8D000044024403FC00040000003800540054084
:10A8E00003400000000004401FC02440244020001A
:10A8F000000002E0055005500650042020403FC0F3
:10A900000440040003C000400000044027C0004091
:10A910000000000000100010041027E000000000FC
:10A9200020403FC00140070004C0044020402040B8
:10A930003FC000400040000007C0040007C0040002
:10A9400003C00000044007C00440040003C00040EE
:10A95000000003800440044003800000041007F05E
:10A9600004500440038000000000038004400450B1
:10A9700007F00010044007C002400400040000007B
:10A98000000006400540054004C00000000004002F
:10A990001F80044000400000040007800040044085
:10A9A00007C000400400070004C001800600040046
:10A9B000060001C0070001C006000000044006C0F8
:10A9C000010006C0044000000410071004E00180EC
:10A9D000060004000000044005C0064004400000DA
:10A9E0000000000004007BE04020000000000000A8
:10A9F0000000FFF000000000000040207BE00400A9
:10AA000000000000400080004000200020004000C6
:10AA10000000000000000000000000000000000036
:10AA20000000000000001FCC000C0000000000002F
:10AA300000000800300060000800300060000000E6
:10AA4000022003FC1E20022003FC1E200220000026
:10AA500000000E1811043FFF10840C780000000065
:10AA60000F0010840F3800C00778188400780000A9
:10AA700000780F8410C411240E9800E400840008AC
:10AA800008006800700000000000000000000000E6
:10AA900000000000000007E0181820044002000039
:10AAA000000040022004181807E000000000000029
:10AAB0000240024001800FF001800240024000008D
:10AAC0000080008000800FF800800080008000007F
:10AAD0000001000D000E000000000000000000005A
:10AAE00000000080008000800080008000800080E6
:10AAF0000000000C000C000000000000000000003E
:10AB00000000000600180060018006001800200008
:10AB1000000007F0080810041004080807F00000FF
:10AB20000000080408041FFC0004000400000000EA
:10AB300000000E0C10141024104411840E0C0000A0
:10AB400000000C1810041104110412880C7000008D
:10AB5000000000E00320042408241FFC002400005F
:10AB600000001F9810841104110410881070000058
:10AB7000000007F008881104110418880070000014
:10AB800000001C00100010FC13001C00100000004E
:10AB900000000E3811441084108411440E38000057
:10ABA00000000700088C10441044088807F00000DB
:10ABB000000000000000030C030C00000000000077
:10ABC000000000000001010600000000000000007D
:10ABD000000000800140022004100808100400005A
:10ABE0000220022002200220022002200220000077
:10ABF000000010040808041002200140008000003A
:10AC000000000E001200100C106C10800F000000ED
:10AC100003E00C1813E4142417C4082807D000001C
:10AC20000004003C03C41C40074000E4001C000476
:10AC300010041FFC1104110411040E8800700000A0
:10AC400003E00C1810041004100410081C1000007D
:10AC500010041FFC100410041004080807F0000082
:10AC600010041FFC1104110417C41004081800007C
:10AC700010041FFC1104110017C010000800000090
:10AC800003E00C181004100410441C78004000006D
:10AC900010041FFC10840080008010841FFC10042E
:10ACA0000000100410041FFC100410040000000039
:10ACB00000030001100110011FFE10001000000031
:10ACC00010041FFC110403801464181C10040000FD
:10ACD00010041FFC1004000400040004000C000019
:10ACE00010041FFC1F0000FC1F001FFC10040000CC
:10ACF00010041FFC0C04030000E010181FFC1000DF
:10AD000007F00808100410041004080807F00000F9
:10AD100010041FFC10841080108010800F000000B1
:10AD200007F0081810241024101C080A07F200006D
:10AD300010041FFC1104110011C011300E0C00048E
:10AD400000000E1C11041084108410441C380000F4
:10AD50001800100010041FFC100410001800000060
:10AD600010001FF810040004000410041FF8100065
:10AD700010001E0011E0001C007013801C00100069
:10AD80001FC0103C00E01F0000E0103C1FC000008E
:10AD90001004180C163401C001C01634180C10042D
:10ADA00010001C00130400FC13041C001000000021
:10ADB0000804101C1064108413041C0410180000F4
:10ADC0000000000000007FFE400240024002000040
:10ADD000000030000C0003800060001C0003000035
:10ADE00000004002400240027FFE00000000000020
:10ADF0000000000020004000400040002000000053
:10AE0000000100010001000100010001000100013A
:10AE10000000400040002000000000000000000092
:10AE200000000098012401440144014400FC000496
:10AE300010001FFC0088010401040088007000005D
:10AE40000000007000880104010401040088000073
:10AE50000000007000880104010411081FFC0004B8
:10AE6000000000F8014401440144014400C800000E
:10AE70000000010401040FFC11041104110018006A
:10AE8000000000D601290129012901C9010600009D
:10AE900010041FFC008401000100010400FC0004F8
:10AEA00000000104190419FC000400040000000063
:10AEB0000000000300010101190119FE000000005B
:10AEC00010041FFC0024004001B4010C0104000028
:10AED0000000100410041FFC000400040000000027
:10AEE000010401FC0104010001FC0104010000FC5B
:10AEF000010401FC008401000100010400FC0004C5
:10AF0000000000F8010401040104010400F800003D
:10AF1000010101FF008501040104008800700000A8
:10AF200000000070008801040104010501FF000118
:10AF30000104010401FC00840104010001800000FF
:10AF4000000000CC01240124012401240198000008
:10AF500000000100010007F80104010400000000E6
:10AF6000010001F8000400040004010801FC0004D1
:10AF7000010001800170000C0010016001800100DF
:10AF800001F0010C003001C00030010C01F00100A3
:10AF900000000104018C00740170018C01040000A8
:10AFA000010101810171000E0018016001800100A2
:10AFB00000000184010C013401440184010C0000F3
:10AFC000000000000000000001003EFC40024002C2
:10AFD0000000000000000000FFFF00000000000073
:10AFE0000000400240023EFC0100000000000000A2
:10AFF0000000600080008000400040002000200031
:10B000000000000000000000000000000000000040
:10B010000000000000000000000000000000000030
:10B020000000000000000000000000000000000020
:10B030000000000F80380FFE380F8038000000003D
:10B0400000000000000000000000000000000100FF
:10B05000000600000C00003800003100000600006F
:10B060000C0000380000300000000000000000006C
:10B0700061800067F807F9800061800061800061ED
:10B08000800061800067F807F9800061800000009F
:10B0900000000000000001C0E003E0F006300804FA
:10B0A00018081FFFFE040E080787F00381E0000068
:10B0B0000000000001F000060C00040408060C70FB
:10B0C00001F9C0000E00003BE000EC18070808047E
:10B0D0000C180003E00000000001E00007F003F896
:10B0E00018041C0804170807E1D003C0E00023B0CF
:10B0F000003C0800200800001000000000000001D3
:10B1000000003100003200001C00000000000000C0
:10B11000000000000000000000000000000000002F
:10B12000000000000000000000000000000000001F
:10B130007F0001FFC00780F00C0018100004200001
:10B14000020000000000002000021000040C0018A3
:10B150000780F001FFC0007F000000000000000039
:10B160000000000000000000000000004200006637
:10B1700000006600003C0000180003FFC00018003B
:10B18000003C000066000066000042000000000075
:10B19000080000080000080000080000080001FF87
:10B1A000C0000800000800000800000800000800B7
:10B1B00000000000000100003100003200001C000F
:10B1C000000000000000000000000000000000007F
:10B1D0000000000000000000080000080000080057
:10B1E0000008000008000008000008000008000037
:10B1F000080000080000000000000000000000003F
:10B200003800003800003800000000000000000096
:10B21000000000000000000000000000000000002E
:10B22000000600001C000070000180000E000038C5
:10B230000000C0000700001C0000300000000000FB
:10B24000000000007F8001FFE0038070060018040A
:10B25000000804000806001803807001FFE0007F6A
:10B26000800000000000000000000100080100084C
:10B2700001000803FFF807FFF800000800000800BD
:10B28000000800000000000000000001C03802C0FB
:10B2900058040098040118040218040418061C1825
:10B2A00003F81801E0F800000000000000000001B1
:10B2B000C0E003C0F00400080408080408080618E9
:10B2C0000803F41801E7F00001E0000000000000AE
:10B2D000000000000300000D0000110000610000EC
:10B2E000810803010807FFF80FFFF80001080001BB
:10B2F000080000000000000000E007FCD00608087D
:10B30000061008061008061008061838060FF00682
:10B3100007C0000000000000000000003F8001FFA7
:10B32000E003843002081804100804100804100810
:10B33000071810030FF00007C00000000000000015
:10B34000000003C0000700000600000600F8060722
:10B35000F806180006E000070000060000000000E4
:10B3600000000001E1E003F7F006341004180804BF
:10B370001808040C08040C0806161803F3F001C1A1
:10B38000E000000000000000F80003FC3003063875
:10B390000402080402080402080404100308F0016F
:10B3A000FFC0007F0000000000000000000000005F
:10B3B0000000000000000000703800703800703895
:10B3C000000000000000000000000000000000007D
:10B3D000000000000000000000000000301A0030F3
:10B3E0001C00000000000000000000000000000041
:10B3F000000000000000000800001400002200000F
:10B40000410000808001004002002004001008007C
:10B4100008000000000000002100002100002100C1
:10B420000021000021000021000021000021000077
:10B4300021000021000000000000000000000800C2
:10B44000080400100200200100400080800041003C
:10B4500000220000140000080000000000000003AB
:10B46000C00004C000040000080038080F380808B5
:10B47000380810000C300007E00003C00000000096
:10B48000000000003F8000FFE0038070020F100604
:10B49000708804C088048308047F8802C090030178
:10B4A0002000FE400000080000180001F8003E08DF
:10B4B00001C20007020007E20000FE00001FC800F2
:10B4C00001F800003800000804000807FFF807FF33
:10B4D000F8040808040808040808040808061808FE
:10B4E00003F41801E7F00001E00000000000000094
:10B4F0003F8001FFE0038070020018040008040090
:10B50000080400080400100600200780C0000000A6
:10B5100004000807FFF807FFF80400080400080407
:10B52000000804001802001003807001FFE0007F93
:10B530008000000004000807FFF807FFF80408086F
:10B54000040808040808040808043E080400080663
:10B55000001801006000000004000807FFF807FF62
:10B56000F8040808040800040800040800043E0069
:10B57000060000060000018000000000000000003E
:10B580003F8001FFE00380700600180400080402F9
:10B59000080402080203F00783F000020000020022
:10B5A00004000807FFF807FFF80408080008000077
:10B5B000080000080000080004080807FFF807FF5B
:10B5C000F80400080000000000000400080400085F
:10B5D00004000807FFF807FFF80400080400080447
:10B5E000000800000000000000000000000600004D
:10B5F0000700000104000104000104000307FFFE2E
:10B6000007FFFC0400000400000400000400080719
:10B61000FFF807FFF8040C08001800003E0004C7FC
:10B62000800503C80600F80400380400180000086C
:10B6300004000807FFF807FFF804000800000800EE
:10B6400000080000080000080000080000180000C2
:10B650006000000004000807FFF807800807FC00EE
:10B66000007FC00003F80007C000780007800807CB
:10B67000FFF807FFF804000804000807FFF80700B8
:10B680000803C00000E000003800001E00000700B2
:10B690000001C00400F007FFF804000000000000F3
:10B6A0007F8001FFE003807006001804000804009A
:10B6B0000806001803003001FFE0007F8000000052
:10B6C00004000807FFF807FFF80404080404000456
:10B6D0000400040400040400060C0003F80001F058
:10B6E00000000000000000007F8001FFE003807088
:10B6F0000600880400880400C806003C03003E01E0
:10B70000FFE6007F8400000004000807FFF807FF41
:10B71000F8040808040800040C00040F00040BC01F
:10B720000610F003F03801E00800000800000001F6
:10B73000E0F803F030063010041808041808040C70
:10B7400008040C080206180207F00781E000000058
:10B750000180000600000400000400000400080747
:10B76000FFF807FFF80400080400000400000600CA
:10B770000001800004000007FFE007FFF00400184C
:10B78000000008000008000008000008000008048D
:10B79000001007FFE004000004000006000007E0BE
:10B7A0000007FE00041FE00001F80000380001E07F
:10B7B000043E0007C000060000040000040000076B
:10B7C000E00007FFC0041FF80007C007F80007FFEC
:10B7D00080043FF80007C004F800070000040000E0
:10B7E00000000004000806001807C07805F1C80032
:10B7F0003E00001F800463E80780F806001804007C
:10B800000800000004000006000007800007E008B0
:10B81000047C08001FF80007F800180804E0080777
:10B8200000000600000400000000000100080600FF
:10B83000380400F80403E8040F08047C0805F00845
:10B8400007C00807001804006000000000000000A6
:10B8500000000000000000000000003FFFFE20008C
:10B86000022000022000022000022000020000004E
:10B8700000000000000008000007000000C00000F9
:10B8800038000006000001C000003000000E00007B
:10B890000100000000000000000020000220000263
:10B8A0002000022000022000023FFFFE00000000F6
:10B8B0000000000000000000000000000000000088
:10B8C00000080000100000300000200000300000E0
:10B8D000100000080000000000000000000001004F
:10B8E0000001000001000001000001000001000053
:10B8F0000100000100000100000100000100000142
:10B9000000000000000000000020000020000010E7
:10B910000000100000000000000000000000000017
:10B92000000000000000000000F00019F8001B18E3
:10B93000002208002608002408002410003FF80018
:10B940001FF800000800001800000004000007FFB6
:10B95000F80FFFF000181800100800200800200859
:10B96000003018001FF0000FC000000000000000B1
:10B9700007C0001FF0001830002008002008002039
:10B9800008003C08001C10000060000000000000DF
:10B990000000000007C0001FF00038180020080059
:10B9A000200800200804101007FFF80FFFF0000027
:10B9B000100000000000000000000007C0001FF0A1
:10B9C000001230002218002208002208003208006D
:10B9D0001E10000E200000000000000020000020CB
:10B9E0000800200801FFF803FFF8062008042008DB
:10B9F00004200807200003000000000000000000F1
:10BA0000000E000E6E001FF30031B10020B10020C7
:10BA1000B1003191001F13002E1E00200E003000D7
:10BA200000000004000807FFF80FFFF800100800EE
:10BA30002000002000002008003FF8001FF8000050
:10BA4000080000000000000000000020080020089E
:10BA5000002008063FF8063FF80000080000080034
:10BA600000080000000000000000000000000000CE
:10BA700003000003002001002001002003063FFE18
:10BA8000063FFC0000000000000000000000000471
:10BA9000000807FFF80FFFF8000188000300002FDF
:10BAA000C00038F80020380020080000080000001E
:10BAB000000000000000040008040008040008075B
:10BAC000FFF80FFFF8000008000008000008000061
:10BAD00000000000002008003FF8003FF8001008B8
:10BAE000002000003FF8003FF80010080020000090
:10BAF0003FF8003FF8000008000000002008003F69
:10BB0000F8003FF800100800100000200000200896
:10BB1000003FF8001FF800000800000000000000CF
:10BB200007C0000FF0001830003008002008002087
:10BB300008003008001830000FF00007C0000000B7
:10BB4000000000002001003FFF003FFF0010110037
:10BB50002009002008002008003038001FF0000FE6
:10BB6000C00000000000000007C0001FF0003818EF
:10BB7000002008002008002009001011001FFF000D
:10BB80003FFF000001000000002008002008002006
:10BB900008003FF8003FF8000808001008002008DF
:10BBA0000020000030000030000000000000000015
:10BBB0000000000C78001E18003308002308002144
:10BBC000080021880021980030F000386000000053
:10BBD00000000000200000200000200000FFF00313
:10BBE000FFF80020080020080020080000300000B6
:10BBF00000000000000000002000003FF0007FF87F
:10BC0000000018000008000008002010003FF800A5
:10BC10007FF0000010000000000000002000003055
:10BC200000003C00003F800023F00000780000701E
:10BC3000002380003C0000300000200000200000B5
:10BC40003C00003FE00023F80000E0002700003E39
:10BC500000003FE00021F80001E0003E000020006D
:10BC6000000000002008002008003838003E68006E
:10BC700027800003C8002CF8003838002018002066
:10BC800008000000000000002000003003003C011C
:10BC9000003F830023EC000070002380003C000084
:10BCA000200000200000000000000000000000381C
:10BCB000080020380020F80023E8002F88003E0804
:10BCC000003808002018000070000000000000008C
:10BCD0000000000000000000000000000800001448
:10BCE000001FF7FC300006200002000000000000EA
:10BCF0000000000000000000000000000000000044
:10BD00000000FFFFFF000000000000000000000036
:10BD100000000000000000000000200002300006CB
:10BD20001FF7FC00140000080000000000000000E5
:10BD3000000000000000000000000018000060008B
:10BD4000004000004000002000001000000800003B
:10BD50000400000400000C000010000000030306B3
:10BD600001040602050003051F1C1F1E1F1E1F1FC6
:10BD70001E1F1E1F303132333435363738394142B9
:10BD8000434445464030580030313233343536373D
:10BD900038396162636465664030780004000008E9
:10BDA0000000000000000002000100001000000080
:10BDB0004C5555555555A53F7751C1166CC156BFC9
:10BDC0009015CB19A001FA3EAD529C804F7E92BED9
:10BDD000C4B1B4BD9EEE213ED43888BEE9FAA8BDF8
:10BDE00000004054FB21F93F3163621A61B4D03D39
:10BDF0000000601A61B4D03D7370032E8A19A33B12
:10BE00000000002E8A19A33BC14920259A837B3963
:10BE100000000000000000006E83F9A22915444EC6
:10BE2000D15727FCC0DD34F5999562DB4190433C46
:10BE3000AB6351FE61C5BBDE3A6E24B7E0D24D4222
:10BE4000EA2E49061C92D1091CEB1DFE3EA729B122
:10BE5000F53582E88444BB2E26709CE9417E5FB4B0
:10BE600039D69139F43953838B5F849C3B28F9BDD3
:10BE7000FF97F81F0F9805DE8B112FEF1F6D0A5AE1
:10BE8000CF7E366DB709CB27663F464F2DEA5F9EC2
:10BE9000C7BA27757BF1E5EBF739073DEA92528A7D
:10BEA000B15FFB6B085D8D1FA6F810111111813F6A
:10BEB000D561C119A0012ABF7DFEB157E31DC73E60
:10BEC000EB9C2B8AE6E55ABE7CD5CF5A3AD9E53DA4
:10BED0003F000000646563006964000072756E7461
:10BEE000696D650068656C70000000006C697374B2
:10BEF0000000000068657800766F6964204C434458
:10BF00005F4472617752656374616E676C65287512
:10BF100031362078312C207531362079312C20753E
:10BF200031362078322C20753136207932290000C4
:10BF3000766F6964204C43445F447261774C696E4C
:10BF400065287531362078312C20753136207931CD
:10BF50002C207531362078322C20753136207932FC
:10BF6000290000007538205254435F5365742875CA
:10BF700031362073796561722C753820736D6F6E60
:10BF80002C753820736461792C753820686F757250
:10BF90002C7538206D696E2C753820736563290007
:10BFA000766F6964204C43445F53686F77436861E0
:10BFB000722875313620782C75313620792C7538F9
:10BFC000206E756D2C75382073697A652C75382054
:10BFD0006D6F646529000000766F6964204C4344EE
:10BFE0005F53686F774E756D2875313620782C75E4
:10BFF000313620792C753332206E756D2C753820D2
:10C000006C656E2C75382073697A65290000000014
:10C01000766F69642077726974655F616464722801
:10C0200075333220616464722C7533322076616C12
:10C0300029000000766F6964204C43445F53686FA9
:10C0400077537472696E672875313620782C753194
:10C050003620792C7531362077696474682C7531F7
:10C0600036206865696768742C75382073697A654D
:10C070002C7538202A702900766F6964204472611B
:10C08000775F436972636C65287531362078302C90
:10C090007531362079302C75382072290000000067
:10C0A00075333220726561645F6164647228753330
:10C0B0003220616464722900766F6964204C4344C5
:10C0C0005F436C6561722875313620436F6C6F7207
:10C0D00029000000766F6964204C43445F46696C18
:10C0E0006C2875313620787374612C75313620795F
:10C0F0007374612C7531362078656E642C75313619
:10C100002079656E642C75313620636F6C6F7229EF
:10C1100000000000766F69642064656C61795F6D72
:10C120007328753136206E6D73290000766F69644F
:10C130002064656C61795F757328753332206E7584
:10C1400073290000753136204C43445F52656164A9
:10C15000506F696E742875313620782C7531362011
:10C160007929000084C1000800000020C8010000F7
:10C170006C01000834C20008C8010020000B000058
:10C18000C80100083278325A423C84A24A0420098D
:10C1900001020304060708090312FFFF291E692292
:10C1A000250204060813D0BE1B08E4041AEC041A86
:10C1B000D8041AF4041AD4041ADC04135F8914088E
:10C1C000A0C01B0865081A100813FB58140814C1F6
:10C1D0001B08B3081A2C0813A3161B08B8181B6FEA
:10C1E0004E341908138B4F140830BF14083B501BF2
:10C1F00008F8401A77081A78181B35525C1918137A
:10C20000A5531B08341013CF0B1B0844401B0F51C0
:10C2100060191813CB551B08640822641420B384DA
:10C220001B08D7041381851408E7881B080EB50185
:04C23000DC0000002E
:0400000508000131BD
:00000001FF
