:020000040800F2
:10000000C8070020CD76000825060008270600084E
:100010002B0600082F060008330600080000000029
:10002000000000000000000000000000370600088B
:1000300039060008000000003B0600083D060008E5
:10004000E7760008E7760008E7760008E77600081C
:10005000E7760008E7760008E7760008E77600080C
:10006000E7760008E7760008E7760008E7760008FC
:10007000E7760008E7760008E7760008E7760008EC
:10008000E7760008E7760008E7760008E7760008DC
:10009000E7760008E7760008E7760008E7760008CC
:1000A000E7760008E7760008E7760008E7760008BC
:1000B000E7760008E7760008E7760008E7760008AC
:1000C000E7760008E7760008E7760008E77600089C
:1000D000E776000841760008E7760008E776000832
:1000E000E7760008E7760008E7760008E77600087C
:1000F000E7760008E7760008E7760008E77600086C
:10010000E7760008E7760008E7760008E77600085B
:10011000E7760008E7760008E7760008E77600084B
:10012000E7760008E7760008E7760008E77600083B
:1001300000F002F800F045F80AA090E8000C8244B4
:100140008344AAF10107DA4501D100F03AF8AFF291
:10015000090EBAE80F0013F0010F18BFFB1A43F0A5
:1001600001031847B4B30000D4B30000103A24BF11
:1001700078C878C1FAD8520724BF30C830C144BF0C
:1001800004680C607047000000230024002500264E
:10019000103A28BF78C1FBD8520728BF30C148BFEA
:1001A0000B607047642908F01584782908F04E84A4
:1001B000732908F03185002070471FB51FBD10B5A9
:1001C00010BD08F063FD1146FFF7F7FF00F0DBF903
:1001D00008F081FD03B4FFF7F2FF03BC07F0D6F986
:1001E00038B5002400BF14E0FC4830F81400FB4987
:1001F000891E00900B784978651C69438AB2F749DB
:10020000891E497801FB04F0002104F0F8FD601C10
:10021000C4B2072CE8DB38BD1CB504464FF4784067
:10022000EF490880EF4843884088283881B2782217
:10023000002004F0CAFEEB4843884088283881B289
:10024000C822782004F0C1FEE64843884088283858
:1002500081B24FF4A072C82004F0B7FEE2A01821CA
:10026000CDE90010DF484088243881B2182350229D
:10027000DC2005F05FF8DE48007888B94FF478405C
:100280000090D84840880C3883B2D648408824383B
:1002900081B24FF49B7240F2271004F0B0FD10E0E1
:1002A0004FF6FF700090CF4840880C3883B2CD489D
:1002B0004088243881B24FF49B7240F2271004F03A
:1002C0009EFDCB480078022803D0C9480078032857
:1002D00019D1C448009443884088273881B2C72286
:1002E000792004F08CFDB4F5784F18D11F20BC495B
:1002F0000880BC4843884088283881B2782210465C
:1003000004F00BFE0BE04FF6FF700090B5484388F9
:100310004088273881B2C722792004F070FDB148A7
:1003200040880A3883B2AF4840881E3881B2B42270
:100330008C2004F04AFEAB4800944388408827385C
:1003400081B27722012004F05AFDB4F5784F02D132
:100350001F20A3490880A7A01821CDE90010A148BB
:100360004088243881B218235022142004F0E2FF80
:100370004FF478409A4908801CBD1CB504464FF6DE
:10038000FF7001F056F91F20954908809BA01821A5
:10039000CDE9001093490988243988B21823C8226E
:1003A000002104F0C7FFFFF71BFF2046FFF734FFD3
:1003B0004FF478408A4908801CBD0024002700259E
:1003C000E0E0002000F06CFA06468D48416800200D
:1003D00088478B4890F8200000F08000002875D0F6
:1003E000874881897F480088283881422EDA8448EE
:1003F000C08A7A49891E0978884227DA7C480078C1
:1004000000F0010010B3002419E07D488189734891
:10041000801E4078604381420FDD794882896F48B1
:10042000801E4078611C4843824206DA7448C08AC4
:10043000182802DA694830F81470601CC4B2072C1E
:10044000E3DB3D462846FFF7E7FE80E06C48818904
:10045000644800882438814209DD6948C08A182828
:1004600005DA0020FFF789FF002700256FE06448C8
:1004700080895C490988884229DA6148C18A5948DB
:1004800040882438814222DD5D488089782803DA5B
:100490000120574908702F4659488089782808DD7F
:1004A00057488089C82804DA0220514908704FF65D
:1004B000FF7753488089C82804DD00204C49087024
:1004C000504807882846FFF7A7FE40E00DE048485F
:1004D0000078022802D1032045490870484AD18A91
:1004E00090893A4605F097FA31E0414800780328B0
:1004F0002AD14348C08A242829DD4148C18A394885
:1005000040882438814222DA354805803D480788F2
:10051000DFF8ECC0BCF81630BCF80C20BCF81E109C
:10052000BCF8140004F051FD4FF478402C490880C9
:1005300001202F49087008460078022800D02F4675
:100540002846FFF769FE02E00A2006F0F2FF012EBE
:1005500008D147F6FF7001F06CF805F0F6FB0020BB
:10056000FFF70BFF601CC4B2142094FBF0F100FBFA
:10057000114038B92448006808B9012000E0002083
:10058000214908601DE71CB506F096FF4FF4A060F6
:1005900007F0BCF84FF4E13007F006F800F040F93E
:1005A00001F079F800F062F91549086880474FF4C6
:1005B00078400B49088015A010210B46C822CDE9D0
:1005C000001082213C2004F0B5FE40F2DC5006F021
:1005D000B0FF0020FFF7D1FEFFF7EFFE0400002080
:1005E0002A0000208C0000204572617365720000B3
:1005F0000000002050656E63696C00005253540087
:10060000300000202C00002094812142507265733C
:1006100073204B45593020746F2041646A757374A0
:1006200000000000704700BFFEE700BFFEE700BF0C
:10063000FEE700BFFEE77047704770477047000055
:100640000CB50020019000906C48006840F48030A8
:100650006A49086000BF6948006800F400300090F3
:100660000198401C0190009818B90198B0F5A06F4E
:10067000F1D16248006800F4003010B10120009010
:1006800001E0002000900098012843D15C480068F8
:1006900040F010005A4908600846006820F0030046
:1006A00008600846006840F002000860534840684F
:1006B000524948600846406848600846406840F42F
:1006C000806048600846406820F47C104860084616
:1006D000406840F4E81048600846006840F08070C8
:1006E000086000BF4548006800F000700028F9D09D
:1006F0004248406820F0030040494860084640688E
:1007000040F00200486000BF3C48406800F00C0028
:100710000828F9D10CBD10B5FFF792FF10BD10B538
:100720003648006840F001003449086008464068D7
:100730003449084031494860084600683249084059
:100740002E4908600846006820F4802008600846AA
:10075000406820F4FE0048604FF41F008860FFF7F7
:10076000DAFF4FF000602949086010BD10B5002184
:1007700000200022214B5B6803F00C0121B1042909
:1007800006D0082928D107E0214B224C236027E01E
:100790001F4B204C236023E0184B5B6803F4701060
:1007A000164B5B6803F48032022303EB904022B9BE
:1007B000194B4343174C23600DE0104B5B6803F467
:1007C000003323B1144B4343124C236003E0104B1E
:1007D0004343104C236003E00D4B0E4C236000BFDD
:1007E00000BF064B5B68C3F303130C4CE15C094B81
:1007F0001B68CB40074C236010BD00000010024076
:10080000002002400000FFF8FFFFF6FE08ED00E0C8
:1008100000127A001400002000093D00180000209A
:1008200008B50121482007F001FE2020ADF80000A6
:1008300010208DF8030003208DF802006946094856
:1008400007F038FB2021074807F0E1FB2020ADF836
:1008500000006946044807F02DFB2021024807F0FC
:10086000D6FB08BD000C01400018014008B501216D
:10087000442007F0DBFD1820ADF8000048208DF87B
:10088000030069462C4807F015FB0120ADF8000075
:1008900028208DF803006946284807F00BFB08BDA7
:1008A00010B5044614B10120254908702448007889
:1008B00058B31021204807F090FB50B108211E4882
:1008C00007F08BFB28B101211C4807F086FB0128AB
:1008D0001BD10A2006F02DFE0020194908701021B6
:1008E000154807F07AFB08B9012010BD082112480D
:1008F00007F073FB08B90220F7E701210F4807F062
:100900006CFB012815D10320EFE710210A4807F0FE
:1009100064FB01280DD10821074807F05EFB012880
:1009200007D10121054807F058FB10B901200449FF
:1009300008700020D9E700000018014000080140BD
:1009400028000020F74908807047F649891C088074
:10095000704708B5F348801C00880090BDF800007F
:1009600008BDF04A1080921C1180704710B50446F3
:100970002046FFF7E7FF052006F0B7FDFFF7E9FF88
:1009800010BDE9480089E74908807047E549891C9E
:100990000880704730B5014601F01F04C1F34513CC
:1009A000CA0AE50205EB43151544A8B230BD00BFE5
:1009B000011EA0F10102D0B2FAD1704710B5034672
:1009C0000C46D948808849F24131884205D0D64842
:1009D000808845F21031884214D1D3494889FFF705
:1009E000B1FF1812FFF7B1FFD8B2FFF7AEFFCE4943
:1009F0008889FFF7A7FF2012FFF7A7FFE0B2FFF7F4
:100A0000A4FFABE0C848808846F6040188421DD1A7
:100A1000C5488079012804D1C3480088401EC01A07
:100A200083B2C1494889FFF78DFF1812FFF78DFF88
:100A3000D8B2FFF78AFFBC498889FFF783FF2012ED
:100A4000FFF783FFE0B2FFF780FF87E0B6488088BA
:100A500041F66311884247D1B3488079A8B9B248BA
:100A60000088401EC01A83B2AF494889FFF76AFF69
:100A70000020FFF76AFF0020FFF767FF1812FFF75B
:100A800064FFD8B2FFF761FF16E0A7494889FFF776
:100A900059FF1812FFF759FFD8B2FFF756FFA249C6
:100AA0000988491EC1F30F20FFF74FFF9E490978BF
:100AB000491EC8B2FFF749FF9B498889FFF742FFEB
:100AC0002012FFF742FFE0B2FFF73FFF9649498847
:100AD000491EC1F30F20FFF738FF93498978491E5B
:100AE000C8B2FFF732FF39E08F48808845F21051D5
:100AF000884220D18C494889FFF724FF1812FFF75C
:100B000024FF89494989491C88B2FFF71BFFD8B2E5
:100B1000FFF71BFF84498889FFF714FF2012FFF7B6
:100B200014FF81498989491C88B2FFF70BFFE0B2A5
:100B3000FFF70BFF12E07C488079012804D17A4846
:100B40000088401EC01A83B2774948891946FFF7CA
:100B500008FF754988892146FFF703FF10BD2DE97D
:100B6000F04105460E4600240027A0466E48008846
:100B7000A84203DD6C484088B04202DC0020BDE89A
:100B8000F08131462846FFF719FF6748808849F20F
:100B90004131884211D06448808846F60401884279
:100BA0000BD06148808845F21031884205D05E48FC
:100BB000808841F66311884203D12E20FFF7C2FEE0
:100BC0000DE05948808845F21051884204D14FF415
:100BD0003850FFF7B7FE02E02220FFF7B3FE52487D
:100BE000808849F22031884202D10220FFF7DFFEDF
:100BF000FFF7AFFE04464C48808841F663118842F7
:100C000001D12046BBE70220FFF7D1FEFFF7A1FE8E
:100C100004464548808849F2413188420BD0424819
:100C2000808845F21031884205D03F48808845F2DF
:100C3000105188420AD10220FFF7B9FEFFF789FE62
:100C40008046E7B24FF6FF7000EA072736488088F3
:100C500049F22531884216D03348808844F2355114
:100C6000884210D030488088091F88420BD02E4817
:100C700080884BF20551884205D02B4880884CF281
:100C80000551884201D1204679E72748808849F2FA
:100C9000413188420BD02448808845F21031884287
:100CA00005D02148808845F21051884207D1E012D2
:100CB000C002B91240EA411040EAE8205FE720464E
:100CC000FFF768FE5BE700B51748808849F24131BD
:100CD000884211D01448808846F6040188420BD01F
:100CE0001148808845F21031884205D00E4880882E
:100CF00041F66311884203D12920FFF723FE0FE05C
:100D00000948808845F21051884204D14FF424509C
:100D1000FFF718FE04E040F273110720FFF721FEF1
:100D200000BD0000FE07006C8C00002000B5FD48EF
:100D3000808849F24131884211D0FA48808846F6CD
:100D4000040188420BD0F748808845F21031884270
:100D500005D0F448808841F66311884203D12820E9
:100D6000FFF7F0FD0EE0EF48808845F21051884211
:100D700004D14FF42050FFF7E5FD03E000210720E8
:100D8000FFF7EFFD00BD70B5044600230026E548DF
:100D9000807901280BD1E348808846F60401884217
:100DA00005D0E048808841F66311884208D1DD48CB
:100DB0008079F0B9DB48808841F66311884218D108
:100DC000082C15D2DFE804F00406080A0C0E1012F5
:100DD00006240DE007240BE0042409E0052407E0C5
:100DE000012405E0002403E0032401E0022400BF05
:100DF00000BFCC48808849F24131884217D0C948A9
:100E0000808846F60401884211D0C648808845F2A1
:100E1000103188420BD0C348808845F21051884277
:100E200005D0C048808841F6631188427ED1082CE5
:100E30001CD2DFE804F00406090C0F12151800BFDD
:100E400014E043F0800311E043F040030EE043F070
:100E5000C0030BE043F0200308E043F0600305E02B
:100E600043F0A00302E043F0E00300BF00BFAD4841
:100E7000808845F21051884202D14FF4585600E064
:100E80003626A848808845F2103188420DD0A54802
:100E9000808845F21051884207D0A248808841F6E8
:100EA0006311884201D043F008039E48808846F6CB
:100EB0000401884201D143F0020319463046FFF78E
:100EC00050FD9848808841F6631188421DD003F098
:100ED000200068B19348008892494988884214DA12
:100EE0009048058840888F490880084645800CE076
:100EF0008C4800888B494988884206DD89480588E6
:100F0000408888490880084645808648808845F2A0
:100F10001051884254D183494889FFF713FD0020BE
:100F2000FFF713FD7F494989491C00E077E088B24B
:100F3000FFF708FD0020FFF708FD7A494989891C61
:100F400088B2FFF7FFFC77490988491EC1F30F20DB
:100F5000FFF7FBFC73494989C91C88B2FFF7F2FC13
:100F600070490978491EC8B2FFF7EFFC6D498889BE
:100F7000FFF7E8FC0020FFF7E8FC6A498989491C73
:100F800088B2FFF7DFFC0020FFF7DFFC65498989A5
:100F9000891C88B2FFF7D6FC62494988491EC1F313
:100FA0000F20FFF7D2FC5F498989C91C88B2FFF77F
:100FB000C9FC5C498978491EC8B2FFF7C6FC55E0F8
:100FC00058494889FFF7BEFC0020FFF7BEFC00200F
:100FD000FFF7BBFC53490988491EC1F30F20FFF7F7
:100FE000B4FC50490978491EC8B2FFF7AEFC4D4920
:100FF0008889FFF7A7FC0020FFF7A7FC0020FFF778
:10100000A4FC48494988491EC1F30F20FFF79DFC05
:1010100044498978491EC8B2FFF797FC26E0082C9E
:101020001CD2DFE804F004070A0D0F12151843F074
:10103000300313E043F0100310E043F020030DE011
:1010400000BF0BE043F0380308E043F0280305E05D
:1010500043F0180302E043F0080300BF00BF03267B
:1010600043F4805319463046FFF77BFC70BD30B522
:1010700004460D4629462046FFF7A0FCFFF781FCF9
:10108000294800882949088030BD30B503460C4600
:1010900015462448808849F24131884205D02148CC
:1010A000808845F21031884214D11E494889FFF7E3
:1010B00049FC1812FFF749FCD8B2FFF746FC194962
:1010C0008889FFF73FFC2012FFF73FFCE0B2FFF7F3
:1010D0003CFC93E01348808845F21051884227D1A8
:1010E00010494889FFF72EFC1812FFF72EFC0D4916
:1010F0004989491C88B2FFF725FCD8B2FFF725FCC7
:1011000008498889FFF71EFC2012FFF71EFC0549DD
:101110008989491C88B2FFF715FCE0B2FFF715FC7E
:101120006CE000008C0000202A0000200008006C09
:10113000FC48808841F66311884228D1F9488079BB
:1011400020B9F8480088401EC01A83B2F549488982
:10115000FFF7F8FB1812FFF7F8FBD8B2FFF7F5FB23
:101160001812FFF7F2FBD8B2FFF7EFFBED498889C1
:10117000FFF7E8FB2012FFF7E8FBE0B2FFF7E5FB23
:101180002012FFF7E2FBE0B2FFF7DFFB36E0E548B5
:10119000808846F6040188421DD1E2488079012802
:1011A00004D1E0480088401EC01A83B2DD49488956
:1011B000FFF7C8FB1812FFF7C8FBD8B2FFF7C5FB53
:1011C000D8498889FFF7BEFB2012FFF7BEFBE0B2CB
:1011D000FFF7BBFB12E0D3488079012804D1D14846
:1011E0000088401EC01A83B2CE4948891946FFF7CD
:1011F000B8FBCC4988892146FFF7B3FBC948008971
:10120000C9490880881C058030BD2DE9F047044697
:10121000BE20FFF797FB0520FFF797FB204607F05E
:1012200081FE07464FF06632C04B07F0CBFE054605
:1012300007F034FE1FFA80F94846FFF786FB0120CD
:10124000FFF783FBFF20FFF780FB0020FFF77DFB0C
:101250000020FFF77AFBBDE8F08710B50446002CAC
:1012600066D1B0498871F02008804FF4A0704880A2
:101270000846808849F2413188420BD0A9488088CD
:1012800046F60401884205D0A648808845F2103110
:1012900088421AD12C20A34908812A2048812B207A
:1012A00088810846808846F60401884205D09D481A
:1012B000808845F21031884206D14FF4A0709949D8
:1012C00008804FF4F0704880A1E09648808845F28D
:1012D0001051884210D14FF43050924908814FF498
:1012E000285048814FF42C5088814FF4F0700880CA
:1012F0004FF4487048808AE08A48808841F663113C
:1013000088420DD12C20874908812B2048812A2032
:1013100088814FF4F07008804FF44870488076E080
:1013200022208049088120204881212088816EE088
:1013300001207C4988714FF4A0700880F02048801B
:101340000846808849F24131884205D07548808836
:1013500045F21031884207D12C20724908812A2099
:1013600048812B2088813FE06E48808846F6040142
:10137000884207D12C206B4908812B2048812A20E4
:10138000888131E06748808845F21051884210D149
:101390004FF43050634908814FF4285048814FF48E
:1013A0002C5088814FF4487008804FF4F0704880CA
:1013B0001AE05C48808841F6631188420DD12C20E8
:1013C000584908812A2048812B2088814FF4487091
:1013D00008804FF4F070488006E0222051490881CF
:1013E00021204881202088814E48808846F60401CB
:1013F000884205D04B48808845F21031884206D19A
:101400004FF4F070474908804FF4A07048800020E6
:10141000FFF7B9FC10BD2DE9F04F86B004460D462C
:101420009046994604EB0800401E86B205EB090081
:10143000401E87B23B48808849F24131884215D02E
:101440003848808845F2103188420FD0354880886E
:1014500046F60401884209D032488079012826D115
:101460003048808841F66311884220D12D4948894F
:10147000FFF768FA2012FFF768FAE0B2FFF765FAA3
:101480003012FFF762FAF0B2FFF75FFA2549888958
:10149000FFF758FA2812FFF758FAE8B2FFF755FAA3
:1014A0003812FFF752FAF8B2FFF74FFABEE01D48C4
:1014B000808841F6631188423AD11A480088A0EB2F
:1014C0000800001B84B205EB0900401E1FFA80F9DA
:1014D00014494889FFF736FA2012FFF736FAE0B2CE
:1014E000FFF733FA04EB0801491EC1F30F20FFF7A1
:1014F0002CFA04EB0801491EC8B2FFF726FA094985
:101500008889FFF71FFA2812FFF71FFAE8B2FFF7E2
:101510001CFA4FEA2920FFF718FA09F0FF00FFF73D
:1015200014FA83E08C000020FE07006C666604401D
:10153000FE48808845F21051884244D1FB494889D1
:10154000FFF700FA2012FFF700FAF8494989491C11
:1015500088B2FFF7F7F9E0B2FFF7F7F9F3494989E5
:10156000891C88B2FFF7EEF93012FFF7EEF9EF4968
:101570004989C91C88B2FFF7E5F9F0B2FFF7E5F930
:10158000EA498889FFF7DEF92812FFF7DEF9E74913
:101590008989491C88B2FFF7D5F9E8B2FFF7D5F978
:1015A000E2498989891C88B2FFF7CCF93812FFF724
:1015B000CCF9DE498989C91C88B2FFF7C3F9F8B2B2
:1015C000FFF7C3F932E0D948807901280ED1AA4645
:1015D000BB46D6480088801B401E80B20190D3488D
:1015E0000088001B401E80B2009003E0A246B34674
:1015F00001950097502005905120049052200390AF
:101600005320029051460598FFF7ABF959460498CC
:10161000FFF7A7F901990398FFF7A3F9009902983A
:10162000FFF79FF929462046FFF7C8F906B0BDE845
:10163000F08F70B504460026BC48058840884543B5
:10164000BA48808846F60401884216D1B7488079A6
:10165000012812D10020B54988712A2048812B2009
:10166000888100210846FFF7A9F90120AF49887158
:101670002B2048812A20888103E000210846FFF7BB
:101680009DF9FFF77EF9002602E0A9480480761C48
:10169000AE42FAD370BD00B59FB00121080206F03A
:1016A000B8FE01214FF4B47006F0C0FE0120ADF881
:1016B000780010208DF87B0003208DF87A001EA999
:1016C0009C4806F0F7FB4CF23370ADF87800182018
:1016D0008DF87B0003208DF87A001EA9964806F04D
:1016E000E9FB4FF68070ADF8780018208DF87B008C
:1016F00003208DF87A001EA9904806F0DBFB41F22A
:101700000100ADF8780018208DF87B0003208DF8DB
:101710007A001EA98A4806F0CDFB0120089000201F
:1017200009900F200A9000200B900C900D900E90C5
:1017300001900290032003900020049005900690F1
:10174000079006200F90002010901190102012900A
:101750000020139015901490169017904FF480501D
:101760001890002019904FF480401A9000201B9090
:1017700008A81C9001A81D900FA806F081F801216F
:10178000062006F0E5F9322005F0D3FE0020FFF731
:10179000EDF86649888008468088FF280ADB0846FD
:1017A00080884FF6FF71884204D060488088B0F589
:1017B000134F7CD1D320FFF7C5F8FFF7CAF85B4978
:1017C0008880FFF7C6F859498880FFF7C2F8574963
:1017D0008880084680884FF6FF7101EA002053494F
:1017E0008880FFF7B6F85149898808434F498880B7
:1017F0000846808849F24131884258D0BF20FFF71F
:10180000A1F8FFF7A6F849498880FFF7A2F84749F1
:101810008880FFF79EF845498880FFF79AF843498A
:101820008880084680884FF6FF7101EA00203F4912
:101830008880FFF78EF83D49898808433B498880B6
:101840000846808846F60401884230D0D420FFF74D
:1018500079F8FFF77EF835498880FFF77AF8334941
:101860008880FFF776F831498880084680884FF6EF
:10187000FF7101EA00202D498880FFF76AF82B49A3
:1018800089880843294988800846808845F21031B4
:10189000884263D04FF45A40FFF754F8FFF759F8E5
:1018A000224988804FF45B40FFF74CF800E055E098
:1018B000FFF74FF81D498880084680884FF6FF7172
:1018C00001EA0020194988804FF45C40FFF73AF89C
:1018D000FFF73FF81549898808431449888008466E
:1018E0008088B0F5004F02D145F2105088800F4833
:1018F000808845F21051884230D0A120FFF722F8AD
:10190000FFF727F809498880FFF723F807498880FF
:10191000084680884FF6FF7101EA0020034988805D
:10192000FFF717F80149898808430BE08C00002075
:101930000008006C000C0140001401400018014038
:1019400000200140FE4988800846808845F2617188
:10195000884203D141F66310F9498880F8488188AC
:10196000F8A006F0CDFFF648808849F24131884260
:101970007ED1CF20FEF7E6FF0020FEF7E6FFC12074
:10198000FEF7E3FF3020FEF7E0FFED20FEF7DAFF81
:101990006420FEF7DAFF0320FEF7D7FF1220FEF7E0
:1019A000D4FF8120FEF7D1FFE820FEF7CBFF852092
:1019B000FEF7CBFF1020FEF7C8FF7A20FEF7C5FF29
:1019C000CB20FEF7BFFF3920FEF7BFFF2C20FEF72C
:1019D000BCFF0020FEF7B9FF3420FEF7B6FF02205F
:1019E000FEF7B3FFF720FEF7ADFF2020FEF7ADFFB7
:1019F000EA20FEF7A7FF0020FEF7A7FF0020FEF772
:101A0000A4FFC020FEF79EFF1B20FEF79EFFC12013
:101A1000FEF798FF0120FEF798FFC520FEF792FF22
:101A20003020FEF792FF3020FEF78FFFC720FEF731
:101A300089FFB720FEF789FF3620FEF783FF482095
:101A4000FEF783FF3A20FEF77DFF5520FEF77DFF6E
:101A5000B120FEF777FF0020FEF777FF1A20FEF790
:101A600074FFB620FEF76EFF0A20FEF76EFF00E05F
:101A700097E0A220FEF769FFF220FEF763FF002047
:101A8000FEF763FF2620FEF75DFF0120FEF75DFFF6
:101A9000E020FEF757FF0F20FEF757FF2A20FEF742
:101AA00054FF2820FEF751FF0820FEF74EFF0E20BE
:101AB000FEF74BFF0820FEF748FF5420FEF745FFD6
:101AC000A920FEF742FF4320FEF73FFF0A20FEF762
:101AD0003CFF0F20FEF739FF0020FEF736FF002005
:101AE000FEF733FF0020FEF730FF0020FEF72DFF4A
:101AF000E120FEF727FF0020FEF727FF1520FEF765
:101B000024FF1720FEF721FF0720FEF71EFF1120FC
:101B1000FEF71BFF0620FEF718FF2B20FEF715FF30
:101B20005620FEF712FF3C20FEF70FFF0520FEF7C0
:101B30000CFF1020FEF709FF0F20FEF706FF3F20E5
:101B4000FEF703FF3F20FEF700FF0F20FEF7FDFE2C
:101B50002B20FEF7F7FE0020FEF7F7FE0020FEF731
:101B6000F4FE0120FEF7F1FE3F20FEF7EEFE2A20F4
:101B7000FEF7E8FE0020FEF7E8FE0020FEF7E5FE97
:101B80000020FEF7E2FEEF20FEF7DFFE1120FEF759
:101B9000D9FE782005F0CDFC2920FEF7D3FE03F016
:101BA00022B96748808846F6040188427ED1112018
:101BB000FEF7C8FE142005F0BCFCD020FEF7C2FEE4
:101BC0000720FEF7C2FE4220FEF7BFFE1D20FEF7F3
:101BD000BCFED120FEF7B6FE0020FEF7B6FE1A20AE
:101BE000FEF7B3FE0920FEF7B0FED220FEF7AAFEF4
:101BF0000120FEF7AAFE2220FEF7A7FEC020FEF776
:101C0000A1FE1020FEF7A1FE3B20FEF79EFE002065
:101C1000FEF79BFE0220FEF798FE1120FEF795FED0
:101C2000C520FEF78FFE0320FEF78FFEC820FEF7CB
:101C300089FE0020FEF789FE2520FEF786FE212082
:101C4000FEF783FE0520FEF780FE0020FEF77DFEF6
:101C50000A20FEF77AFE6520FEF777FE2520FEF7C4
:101C600074FE7720FEF771FE5020FEF76EFE0F2007
:101C7000FEF76BFE0020FEF768FEF820FEF762FE1E
:101C80000120FEF762FEFE20FEF75CFE0020FEF75C
:101C90005CFE0220FEF759FE2020FEF753FE3620A0
:101CA000FEF750FE0820FEF750FE00E02AE03A2042
:101CB000FEF748FE5520FEF748FE2B20FEF742FEB9
:101CC0000020FEF742FE0020FEF73FFE0120FEF757
:101CD0003CFE3F20FEF739FE2A20FEF733FE0020AF
:101CE000FEF733FE0020FEF730FE0120FEF72DFE4A
:101CF000DF20FEF72AFE782005F01BFC2920FEF7E6
:101D000021FE4CE70E48808845F21031884240F0B1
:101D10008487ED20FEF716FE0120FEF716FEFE205A
:101D2000FEF713FEEE20FEF70DFEDE20FEF70DFEA1
:101D30002120FEF70AFEF120FEF704FE012009E053
:101D40008C000020204C43442049443A25780D0A59
:101D500000000000FEF7F9FDDF20FEF7F3FD102084
:101D6000FEF7F3FDC420FEF7EDFD8F20FEF7EDFD3D
:101D7000C620FEF7E7FD0020FEF7E7FDE220FEF7B4
:101D8000E4FDE220FEF7E1FDE220FEF7DEFDBF20EC
:101D9000FEF7D8FDAA20FEF7D8FDB020FEF7D2FD51
:101DA0000D20FEF7D2FD0020FEF7CFFD0D20FEF73F
:101DB000CCFD0020FEF7C9FD1120FEF7C6FD002076
:101DC000FEF7C3FD1920FEF7C0FD0020FEF7BDFDA4
:101DD0002120FEF7BAFD0020FEF7B7FD2D20FEF70B
:101DE000B4FD0020FEF7B1FD3D20FEF7AEFD002062
:101DF000FEF7ABFD5D20FEF7A8FD0020FEF7A5FD78
:101E00005D20FEF7A2FD0020FEF79FFDB120FEF74A
:101E100099FD8020FEF799FD0020FEF796FD8B20AE
:101E2000FEF793FD0020FEF790FD9620FEF78DFD56
:101E30000020FEF78AFDB220FEF784FD0020FEF7A9
:101E400084FD0020FEF781FD0220FEF77EFD0020CC
:101E5000FEF77BFD0320FEF778FD0020FEF775FD01
:101E6000B320FEF76FFD0020FEF76FFD0020FEF7A8
:101E70006CFD0020FEF769FD0020FEF766FD0020E6
:101E8000FEF763FD0020FEF760FD0020FEF75DFD1C
:101E90000020FEF75AFD0020FEF757FD0020FEF758
:101EA00054FD0020FEF751FD0020FEF74EFD0020FE
:101EB000FEF74BFD0020FEF748FD0020FEF745FD34
:101EC0000020FEF742FD0020FEF73FFD0020FEF758
:101ED0003CFD0020FEF739FD0020FEF736FD002016
:101EE000FEF733FD0020FEF730FD0020FEF72DFD4C
:101EF0000020FEF72AFDB420FEF724FD8B20FEF71C
:101F000024FD0020FEF721FD9620FEF71EFD002097
:101F1000FEF71BFDA120FEF718FD0020FEF715FDC2
:101F2000B520FEF70FFD0220FEF70FFD0020FEF7A3
:101F30000CFD0320FEF709FD0020FEF706FD04203E
:101F4000FEF703FD0020FEF700FDB620FEF7FAFCC9
:101F50000020FEF7FAFC0020FEF7F7FCB720FEF7A2
:101F6000F1FC0020FEF7F1FC0020FEF7EEFC3F2024
:101F7000FEF7EBFC0020FEF7E8FC5E20FEF7E5FC38
:101F80000020FEF7E2FC6420FEF7DFFC0020FEF7F5
:101F9000DCFC8C20FEF7D9FC0020FEF7D6FCAC2040
:101FA000FEF7D3FC0020FEF7D0FCDC20FEF7CDFCD2
:101FB0000020FEF7CAFC7020FEF7C7FC0020FEF7E9
:101FC000C4FC9020FEF7C1FC0020FEF7BEFCEB2015
:101FD000FEF7BBFC0020FEF7B8FCDC20FEF7B5FCEA
:101FE0000020FEF7B2FCB820FEF7ACFC0020FEF7A4
:101FF000ACFC0020FEF7A9FC0020FEF7A6FC0020A8
:10200000FEF7A3FC0020FEF7A0FC0020FEF79DFCDD
:102010000020FEF79AFC0020FEF797FCBA20FEF79E
:1020200091FC2420FEF791FC0020FEF78EFC00209E
:10203000FEF78BFC0020FEF788FCC120FEF782FC37
:102040002020FEF782FC0020FEF77FFC5420FEF7E4
:102050007CFC0020FEF779FCFF20FEF776FC0020D8
:10206000FEF773FCC220FEF76DFC0A20FEF76DFC44
:102070000020FEF76AFC0420FEF767FC0020FEF754
:1020800064FCC320FEF75EFC3C20FEF75EFC0020F3
:10209000FEF75BFC3A20FEF758FC0020FEF755FCEB
:1020A0003920FEF752FC0020FEF74FFC3720FEF7E8
:1020B0004CFC0020FEF749FC3C20FEF746FC0020CB
:1020C000FEF743FC3620FEF740FC0020FEF73DFC07
:1020D0003220FEF73AFC0020FEF737FC2F20FEF7F7
:1020E00034FC0020FEF731FC2C20FEF72EFC0020F3
:1020F000FEF72BFC2920FEF728FC0020FEF725FC2C
:102100002620FEF722FC0020FEF71FFC2420FEF70D
:102110001CFC0020FEF719FC2420FEF716FC002012
:10212000FEF713FC2320FEF710FC0020FEF70DFC49
:102130003C20FEF70AFC0020FEF707FC3620FEF7E5
:1021400004FC0020FEF701FC3220FEF7FEFB00201D
:10215000FEF7FBFB2F20FEF7F8FB0020FEF7F5FB58
:102160002C20FEF7F2FB0020FEF7EFFB2920FEF704
:10217000ECFB0020FEF7E9FB2620FEF7E6FB002043
:10218000FEF7E3FB2420FEF7E0FB0020FEF7DDFB7B
:102190002420FEF7DAFB0020FEF7D7FB2320FEF712
:1021A000D4FB0020FEF7D1FBC420FEF7CBFB62205E
:1021B000FEF7CBFB0020FEF7C8FB0520FEF7C5FBB2
:1021C0000020FEF7C2FB8420FEF7BFFB0020FEF7D5
:1021D000BCFBF020FEF7B9FB0020FEF7B6FB182091
:1021E000FEF7B3FB0020FEF7B0FBA420FEF7ADFB2B
:1021F0000020FEF7AAFB1820FEF7A7FB0020FEF741
:10220000A4FB5020FEF7A1FB0020FEF79EFB0C2054
:10221000FEF79BFB0020FEF798FB1720FEF795FBCF
:102220000020FEF792FB9520FEF78FFB0020FEF7C3
:102230008CFBF320FEF789FB0020FEF786FBE620EF
:10224000FEF783FB0020FEF780FBC520FEF77AFB3C
:102250003220FEF77AFB0020FEF777FB4420FEF7E2
:1022600074FB0020FEF771FB6520FEF76EFB00207B
:10227000FEF76BFB7620FEF768FB0020FEF765FBA0
:102280008820FEF762FB0020FEF75FFBC620FEF70A
:1022900059FB2020FEF759FB0020FEF756FB1720C4
:1022A000FEF753FB0020FEF750FB0120FEF74DFB2D
:1022B0000020FEF74AFBC720FEF744FB0020FEF794
:1022C00044FB0020FEF741FB0020FEF73EFB002010
:1022D000FEF73BFBC820FEF735FB0020FEF735FB81
:1022E0000020FEF732FB0020FEF72FFB0020FEF758
:1022F0002CFBC920FEF726FB0020FEF726FB002062
:10230000FEF723FB0020FEF720FB0020FEF71DFB5D
:102310000020FEF71AFB0020FEF717FB0020FEF757
:1023200014FB0020FEF711FB0020FEF70EFB00203F
:10233000FEF70BFB0020FEF708FB0020FEF705FB75
:102340000020FEF702FB0020FEF7FFFA0020FEF758
:10235000FCFA0020FEF7F9FAE020FEF7F3FA162067
:10236000FEF7F3FA0020FEF7F0FA1C20FEF7EDFA74
:102370000020FEF7EAFA2120FEF7E7FA0020FEF738
:10238000E4FA3620FEF7E1FA0020FEF7DEFA4620F6
:10239000FEF7DBFA0020FEF7D8FA5220FEF7D5FA56
:1023A0000020FEF7D2FA6420FEF7CFFA0020FEF7F5
:1023B000CCFA7A20FEF7C9FA0020FEF7C6FA8B2085
:1023C000FEF7C3FA0020FEF7C0FA9920FEF7BDFA27
:1023D0000020FEF7BAFAA820FEF7B7FA0020FEF7B1
:1023E000B4FAB920FEF7B1FA0020FEF7AEFAC42025
:1023F000FEF7ABFA0020FEF7A8FACA20FEF7A5FA0E
:102400000020FEF7A2FAD220FEF79FFA0020FEF786
:102410009CFAD920FEF799FA0020FEF796FAE02000
:10242000FEF793FA0020FEF790FAF320FEF78DFAFC
:102430000020FEF78AFAE120FEF784FA1620FEF764
:1024400084FA0020FEF781FA1C20FEF77EFA0020B5
:10245000FEF77BFA2220FEF778FA0020FEF775FAE5
:102460003620FEF772FA0020FEF76FFA4520FEF7DD
:102470006CFA0020FEF769FA5220FEF766FA002097
:10248000FEF763FA6420FEF760FA0020FEF75DFABB
:102490007A20FEF75AFA0020FEF757FA8B20FEF753
:1024A00054FA0020FEF751FA9920FEF74EFA002068
:1024B000FEF74BFAA820FEF748FA0020FEF745FA8F
:1024C000B920FEF742FA0020FEF73FFAC420FEF7DB
:1024D0003CFA0020FEF739FACA20FEF736FA00204F
:1024E000FEF733FAD220FEF730FA0020FEF72DFA7D
:1024F000D820FEF72AFA0020FEF727FAE020FEF7A0
:1025000024FA0020FEF721FAF320FEF71EFA00203D
:10251000FEF71BFAE220FEF715FA0520FEF715FA82
:102520000020FEF712FA0B20FEF70FFA0020FEF74C
:102530000CFA1B20FEF709FA0020FEF706FA3420F9
:10254000FEF703FA0020FEF700FA4420FEF7FDF93B
:102550000020FEF7FAF94F20FEF7F7F90020FEF70A
:10256000F4F96120FEF7F1F90020FEF7EEF9792089
:10257000FEF7EBF90020FEF7E8F98820FEF7E5F911
:102580000020FEF7E2F99720FEF7DFF90020FEF7C2
:10259000DCF9A620FEF7D9F90020FEF7D6F9B7201E
:1025A000FEF7D3F90020FEF7D0F9C220FEF7CDF9EF
:1025B0000020FEF7CAF9C720FEF7C7F90020FEF792
:1025C000C4F9D120FEF7C1F90020FEF7BEF9D620EC
:1025D000FEF7BBF90020FEF7B8F9DD20FEF7B5F9EC
:1025E0000020FEF7B2F9F320FEF7AFF90020FEF766
:1025F000ACF9E320FEF7A6F90520FEF7A6F90020C6
:10260000FEF7A3F90A20FEF7A0F90020FEF79DF9D6
:102610001C20FEF79AF90020FEF797F93320FEF709
:1026200094F90020FEF791F94420FEF78EF900207E
:10263000FEF78BF95020FEF788F90020FEF785F9A8
:102640006220FEF782F90020FEF77FF97820FEF77E
:102650007CF90020FEF779F98820FEF776F9002052
:10266000FEF773F99720FEF770F90020FEF76DF979
:10267000A620FEF76AF90020FEF767F9B720FEF7FB
:1026800064F90020FEF761F9C220FEF75EF9002030
:10269000FEF75BF9C720FEF758F90020FEF755F961
:1026A000D120FEF752F90020FEF74FF9D520FEF7B2
:1026B0004CF90020FEF749F9DD20FEF746F900202D
:1026C000FEF743F9F320FEF740F90020FEF73DF94D
:1026D000E420FEF737F90120FEF737F90020FEF776
:1026E00034F90120FEF731F90020FEF72EF902201F
:1026F000FEF72BF90020FEF728F92A20FEF725F92E
:102700000020FEF722F93C20FEF71FF90020FEF71B
:102710001CF94B20FEF719F90020FEF716F95D2091
:10272000FEF713F90020FEF710F97420FEF70DF9FB
:102730000020FEF70AF98420FEF707F90020FEF7D3
:1027400004F99320FEF701F90020FEF7FEF8A2201D
:10275000FEF7FBF80020FEF7F8F8B320FEF7F5F8D7
:102760000020FEF7F2F8BE20FEF7EFF80020FEF79B
:10277000ECF8C420FEF7E9F80020FEF7E6F8CD20DB
:10278000FEF7E3F80020FEF7E0F8D320FEF7DDF8CF
:102790000020FEF7DAF8DD20FEF7D7F80020FEF77C
:1027A000D4F8F320FEF7D1F80020FEF7CEF8E520AC
:1027B000FEF7C8F80020FEF7C8F80020FEF7C5F8BD
:1027C0000020FEF7C2F80020FEF7BFF80220FEF757
:1027D000BCF80020FEF7B9F82920FEF7B6F8002073
:1027E000FEF7B3F83C20FEF7B0F80020FEF7ADF896
:1027F0004B20FEF7AAF80020FEF7A7F85D20FEF7B1
:10280000A4F80020FEF7A1F87420FEF79EF800203F
:10281000FEF79BF88420FEF798F80020FEF795F865
:102820009320FEF792F80020FEF78FF8A220FEF723
:102830008CF80020FEF789F8B320FEF786F8002018
:10284000FEF783F8BE20FEF780F80020FEF77DF843
:10285000C420FEF77AF80020FEF777F8CD20FEF7C7
:1028600074F80020FEF771F8D320FEF76EF8002010
:10287000FEF76BF8DC20FEF768F80020FEF765F83D
:10288000F320FEF762F80020FEF75FF8E620FEF77F
:1028900059F81120FEF759F80020FEF756F83420B9
:1028A000FEF753F80020FEF750F85620FEF74DF8DB
:1028B0000020FEF74AF87620FEF747F80020FEF7E2
:1028C00044F87720FEF741F80020FEF73EF8662036
:1028D000FEF73BF80020FEF738F88820FEF735F8C1
:1028E0000020FEF732F89920FEF72FF80020FEF7BF
:1028F0002CF8BB20FEF729F80020FEF726F89920D7
:10290000FEF723F80020FEF720F86620FEF71DF8FA
:102910000020FEF71AF85520FEF717F80020FEF702
:1029200014F85520FEF711F80020FEF70EF84520A8
:10293000FEF70BF80020FEF708F84320FEF705F835
:102940000020FEF702F84420FDF7FFFF0020FDF70E
:10295000FCFFE720FDF7F6FF3220FDF7F6FF002031
:10296000FDF7F3FF5520FDF7F0FF0020FDF7EDFF29
:102970007620FDF7EAFF0020FDF7E7FF6620FDF770
:10298000E4FF0020FDF7E1FF6720FDF7DEFF0020F8
:10299000FDF7DBFF6720FDF7D8FF0020FDF7D5FF2F
:1029A0008720FDF7D2FF0020FDF7CFFF9920FDF72C
:1029B000CCFF0020FDF7C9FFBB20FDF7C6FF0020BC
:1029C000FDF7C3FF9920FDF7C0FF0020FDF7BDFF15
:1029D0007720FDF7BAFF0020FDF7B7FF4420FDF791
:1029E000B4FF0020FDF7B1FF5620FDF7AEFF002039
:1029F000FDF7ABFF2320FDF7A8FF0020FDF7A5FFA3
:102A00003320FDF7A2FF0020FDF79FFF4520FDF7D3
:102A10009CFF0020FDF799FFE820FDF793FF0020C1
:102A2000FDF793FF0020FDF790FF9920FDF78DFF44
:102A30000020FDF78AFF8720FDF787FF0020FDF7C4
:102A400084FF8820FDF781FF0020FDF77EFF7720BF
:102A5000FDF77BFF0020FDF778FF6620FDF775FF8F
:102A60000020FDF772FF8820FDF76FFF0020FDF7C3
:102A70006CFFAA20FDF769FF0020FDF766FFBB2071
:102A8000FDF763FF0020FDF760FF9920FDF75DFF74
:102A90000020FDF75AFF6620FDF757FF0020FDF7E5
:102AA00054FF5520FDF751FF0020FDF74EFF552044
:102AB000FDF74BFF0020FDF748FF4420FDF745FFE1
:102AC0000020FDF742FF4420FDF73FFF0020FDF707
:102AD0003CFF5520FDF739FF0020FDF736FFE920C8
:102AE000FDF730FFAA20FDF730FF0020FDF72DFF96
:102AF0000020FDF72AFF0020FDF727FF0020FDF74B
:102B000021FFAA20FDF721FFCF20FDF71BFF0020AA
:102B1000FDF71BFF0020FDF718FF0020FDF715FF54
:102B20000020FDF712FF0020FDF70FFF0020FDF74A
:102B30000CFF0020FDF709FF0020FDF706FF002035
:102B4000FDF703FF0020FDF700FF0020FDF7FDFE6D
:102B50000020FDF7FAFE0020FDF7F7FE0020FDF74C
:102B6000F4FE0020FDF7F1FE0020FDF7EEFE002050
:102B7000FDF7EBFEF020FDF7E5FE0020FDF7E5FE9A
:102B80005020FDF7E2FE0020FDF7DFFE0020FDF7FC
:102B9000DCFE0020FDF7D9FEF320FDF7D3FE002078
:102BA000FDF7D3FEF920FDF7CDFE0620FDF7CDFEA3
:102BB0001020FDF7CAFE2920FDF7C7FE0020FDF713
:102BC000C4FE3A20FDF7BEFE5520FDF7BEFE1120E3
:102BD000FDF7B8FE642004F0ACFC2920FDF7B2FE3E
:102BE0003520FDF7AFFE0020FDF7AFFE5120FDF7C9
:102BF000A9FEFF20FDF7A9FE5320FDF7A3FE2C2020
:102C0000FDF7A3FE5520FDF79DFE8220FDF79DFEFA
:102C10002C20FDF797FE02F0E6B8FE48808845F2CA
:102C2000105188427ED155214FF47040FDF799FE36
:102C3000AA214FF20100FDF794FE52214FF202004B
:102C4000FDF78FFE08214FF20300FDF78AFE0121F8
:102C50004FF20400FDF785FE0D214FF43040FDF7E3
:102C600080FE0D214BF20100FDF77BFE0D214BF2A2
:102C70000200FDF776FE34214FF43640FDF771FE79
:102C800034214BF20160FDF76CFE34214BF20260FF
:102C9000FDF767FE0D214FF43140FDF762FE0D2177
:102CA0004BF20110FDF75DFE0D214BF20210FDF716
:102CB00058FE34214FF43740FDF753FE34214BF2D8
:102CC0000170FDF74EFE34214BF20270FDF749FE14
:102CD00000214FF43240FDF744FE00214BF2012069
:102CE000FDF73FFE00214BF20220FDF73AFE2421C2
:102CF0004FF43840FDF735FE24214BF60100FDF777
:102D000030FE24214BF60200FDF72BFE01214FF48B
:102D10003F40FDF726FE0F214FF43340FDF721FE23
:102D20000F2100E0FEE34BF20130FDF71AFE0F2108
:102D30004BF20230FDF715FE34214FF43940FDF718
:102D400010FE34214BF60110FDF70BFE34214BF63B
:102D50000210FDF706FE08214FF43540FDF701FE95
:102D600008214BF20150FDF7FCFD08214BF2025007
:102D7000FDF7F7FD03214FF44240FDF7F2FD24215A
:102D80004FF43A40FDF7EDFD24214BF60120FDF70D
:102D9000E8FD24214BF60220FDF7E3FD00214FF46E
:102DA0003C40FDF7DEFD78214BF60140FDF7D9FDF3
:102DB00000214BF60240FDF7D4FD00214FF43D40C9
:102DC000FDF7CFFD78214BF60150FDF7CAFD00213C
:102DD0004BF60250FDF7C5FD00214FF43E40FDF7D4
:102DE000C0FD64214BF60160FDF7BBFD00214FF4EF
:102DF0005140FDF7B6FD33214DF20110FDF7B1FD55
:102E000000214DF20210FDF7ACFD34214DF203100C
:102E1000FDF7A7FD00214DF20410FDF7A2FD3A21B8
:102E20004DF20510FDF79DFD00214DF20610FDF756
:102E300098FD4A214DF20710FDF793FD00214DF258
:102E40000810FDF78EFD5C214DF20910FDF789FD9C
:102E500000214DF20A10FDF784FD81214DF20B1087
:102E6000FDF77FFD00214DF20C10FDF77AFDA62144
:102E70004DF20D10FDF775FD00214DF20E10FDF71E
:102E800070FDE5214DF20F10FDF76BFD01214DF2B4
:102E90001010FDF766FD13214DF21110FDF761FDD5
:102EA00001214DF21210FDF75CFD54214DF213107B
:102EB000FDF757FD01214DF21410FDF752FD82215F
:102EC0004DF21510FDF74DFD01214DF21610FDF7E5
:102ED00048FDCA214DF21710FDF743FD02214DF2C6
:102EE0001810FDF73EFD00214DF21910FDF739FDD8
:102EF00002214DF21A10FDF734FD01214DF21B1095
:102F0000FDF72FFD02214DF21C10FDF72AFD3421A3
:102F10004DF21D10FDF725FD02214DF21E10FDF7AB
:102F200020FD67214DF21F10FDF71BFD02214DF220
:102F30002010FDF716FD84214DF22110FDF711FD43
:102F400002214DF22210FDF70CFDA4214DF22310B9
:102F5000FDF707FD02214DF22410FDF702FDB72118
:102F60004DF22510FDF7FDFC02214DF22610FDF774
:102F7000F8FCCF214DF22710FDF7F3FC02214DF2B2
:102F80002810FDF7EEFCDE214DF22910FDF7E9FCDB
:102F900002214DF22A10FDF7E4FCF2214DF22B1034
:102FA000FDF7DFFC02214DF22C10FDF7DAFCFE21CB
:102FB0004DF22D10FDF7D5FC03214DF22E10FDF73B
:102FC000D0FC10214DF22F10FDF7CBFC03214DF268
:102FD0003010FDF7C6FC33214DF23110FDF7C1FC76
:102FE00003214DF23210FDF7BCFC6D214DF2331080
:102FF000FDF7B7FC00214FF45240FDF7B2FC33213E
:103000004DF20120FDF7ADFC00214DF20220FDF74D
:10301000A8FC01E08C00002034214DF20320FDF7D4
:10302000A0FC00214DF20420FDF79BFC3A214DF25B
:103030000520FDF796FC00214DF20620FDF791FCDE
:103040004A214DF20720FDF78CFC00214DF20820AB
:10305000FDF787FC5C214DF20920FDF782FC002181
:103060004DF20A20FDF77DFC81214DF20B20FDF78A
:1030700078FC00214DF20C20FDF773FCA6214DF2E7
:103080000D20FDF76EFC00214DF20E20FDF769FCCE
:10309000E5214DF20F20FDF764FC01214DF21020D7
:1030A000FDF75FFC13214DF21120FDF75AFC0121C1
:1030B0004DF21220FDF755FC54214DF21320FDF77F
:1030C00050FC01214DF21420FDF74BFC82214DF202
:1030D0001520FDF746FC01214DF21620FDF741FCBD
:1030E000CA214DF21720FDF73CFC02214DF21820B9
:1030F000FDF737FC00214DF21920FDF732FC0221CB
:103100004DF21A20FDF72DFC01214DF21B20FDF799
:1031100028FC02214DF21C20FDF723FC34214DF246
:103120001D20FDF71EFC02214DF21E20FDF719FCAB
:1031300067214DF21F20FDF714FC02214DF22020E3
:10314000FDF70FFC84214DF22120FDF70AFC02213E
:103150004DF22220FDF705FCA4214DF22320FDF7BE
:1031600000FC02214DF22420FDF7FBFBB7214DF2BC
:103170002520FDF7F6FB02214DF22620FDF7F1FB9D
:10318000CF214DF22720FDF7ECFB02214DF2282044
:10319000FDF7E7FBDE214DF22920FDF7E2FB0221DE
:1031A0004DF22A20FDF7DDFBF2214DF22B20FDF739
:1031B000D8FB02214DF22C20FDF7D3FBFE214DF26E
:1031C0002D20FDF7CEFB03214DF22E20FDF7C9FB8C
:1031D00010214DF22F20FDF7C4FB03214DF23020CA
:1031E000FDF7BFFB33214DF23120FDF7BAFB032180
:1031F0004DF23220FDF7B5FB6D214DF23320FDF786
:10320000B0FB00214FF45340FDF7ABFB33214DF2EF
:103210000130FDF7A6FB00214DF20230FDF7A1FBC6
:1032200034214DF20330FDF79CFB00214DF20430B8
:10323000FDF797FB3A214DF20530FDF792FB002197
:103240004DF20630FDF78DFB4A214DF20730FDF7B8
:1032500088FB00214DF20830FDF783FB5C214DF225
:103260000930FDF77EFB00214DF20A30FDF779FBB6
:1032700081214DF20B30FDF774FB00214DF20C3033
:10328000FDF76FFBA6214DF20D30FDF76AFB002123
:103290004DF20E30FDF765FBE5214DF20F30FDF7E5
:1032A00060FB01214DF21030FDF75BFB13214DF265
:1032B0001130FDF756FB01214DF21230FDF751FBA5
:1032C00054214DF21330FDF74CFB01214DF2143027
:1032D000FDF747FB82214DF21530FDF742FB01213E
:1032E0004DF21630FDF73DFBCA214DF21730FDF7C8
:1032F00038FB02214DF21830FDF733FB00214DF26F
:103300001930FDF72EFB02214DF21A30FDF729FB93
:1033100001214DF21B30FDF724FB02214DF21C3040
:10332000FDF71FFB34214DF21D30FDF71AFB022182
:103330004DF21E30FDF715FB67214DF21F30FDF7F2
:1033400010FB02214DF22030FDF70BFB84214DF2E2
:103350002130FDF706FB02214DF22230FDF701FB83
:10336000A4214DF22330FDF7FCFA02214DF2243066
:10337000FDF7F7FAB7214DF22530FDF7F2FA0221F9
:103380004DF22630FDF7EDFACF214DF22730FDF753
:10339000E8FA02214DF22830FDF7E3FADE214DF282
:1033A0002930FDF7DEFA02214DF22A30FDF7D9FA75
:1033B000F2214DF22B30FDF7D4FA02214DF22C30E0
:1033C000FDF7CFFAFE214DF22D30FDF7CAFA0321A9
:1033D0004DF22E30FDF7C5FA10214DF22F30FDF7DA
:1033E000C0FA03214DF23030FDF7BBFA33214DF224
:1033F0003130FDF7B6FA03214DF23230FDF7B1FA64
:103400006D214DF23330FDF7ACFA00214FF45440FA
:10341000FDF7A7FA33214DF20140FDF7A2FA002192
:103420004DF20240FDF79DFA34214DF20340FDF7C5
:1034300098FA00214DF20440FDF793FA3A214DF23B
:103440000540FDF78EFA00214DF20640FDF789FA9E
:103450004A214DF20740FDF784FA00214DF2084061
:10346000FDF77FFA5C214DF20940FDF77AFA002161
:103470004DF20A40FDF775FA81214DF20B40FDF740
:1034800070FA00214DF20C40FDF76BFAA6214DF2C7
:103490000D40FDF766FA00214DF20E40FDF761FA8E
:1034A000E5214DF20F40FDF75CFA01214DF210408D
:1034B000FDF757FA13214DF21140FDF752FA0121A1
:1034C0004DF21240FDF74DFA54214DF21340FDF735
:1034D00048FA01214DF21440FDF743FA82214DF2E2
:1034E0001540FDF73EFA01214DF21640FDF739FA7D
:1034F000CA214DF21740FDF734FA02214DF218406F
:10350000FDF72FFA00214DF21940FDF72AFA0221AA
:103510004DF21A40FDF725FA01214DF21B40FDF74F
:1035200020FA00E004E302214DF21C40FDF719FAF5
:1035300034214DF21D40FDF714FA02214DF21E40D8
:10354000FDF70FFA67214DF21F40FDF70AFA02213D
:103550004DF22040FDF705FA84214DF22140FDF7A0
:1035600000FA02214DF22240FDF7FBF9A4214DF2B1
:103570002340FDF7F6F902214DF22440FDF7F1F961
:10358000B7214DF22540FDF7ECF902214DF226401E
:10359000FDF7E7F9CF214DF22740FDF7E2F90221CF
:1035A0004DF22840FDF7DDF9DE214DF22940FDF70F
:1035B000D8F902214DF22A40FDF7D3F9F2214DF25C
:1035C0002B40FDF7CEF902214DF22C40FDF7C9F951
:1035D000FE214DF22D40FDF7C4F903214DF22E409E
:1035E000FDF7BFF910214DF22F40FDF7BAF9032185
:1035F0004DF23040FDF7B5F933214DF23140FDF782
:10360000B0F903214DF23240FDF7ABF96D214DF2D7
:103610003340FDF7A6F900214FF45540FDF7A1F91D
:1036200033214DF20150FDF79CF900214DF202507B
:10363000FDF797F934214DF20350FDF792F900217F
:103640004DF20450FDF78DF93A214DF20550FDF78A
:1036500088F900214DF20650FDF783F94A214DF219
:103660000750FDF77EF900214DF20850FDF779F97A
:103670005C214DF20950FDF774F900214DF20A501A
:10368000FDF76FF981214DF20B50FDF76AF900212A
:103690004DF20C50FDF765F9A6214DF20D50FDF7E6
:1036A00060F900214DF20E50FDF75BF9E5214DF276
:1036B0000F50FDF756F901214DF21050FDF751F969
:1036C00013214DF21150FDF74CF901214DF212502A
:1036D000FDF747F954214DF21350FDF742F901214E
:1036E0004DF21450FDF73DF982214DF21550FDF7D2
:1036F00038F901214DF21650FDF733F9CA214DF288
:103700001750FDF72EF902214DF21850FDF729F957
:1037100000214DF21950FDF724F902214DF21A5003
:10372000FDF71FF901214DF21B50FDF71AF9022197
:103730004DF21C50FDF715F934214DF21D50FDF7E7
:1037400010F902214DF21E50FDF70BF967214DF2E1
:103750001F50FDF706F902214DF22050FDF701F947
:1037600084214DF22150FDF7FCF802214DF2225048
:10377000FDF7F7F8A4214DF22350FDF7F2F80221EE
:103780004DF22450FDF7EDF8B7214DF22550FDF72D
:10379000E8F802214DF22650FDF7E3F8CF214DF273
:1037A0002750FDF7DEF802214DF22850FDF7D9F839
:1037B000DE214DF22950FDF7D4F802214DF22A50B6
:1037C000FDF7CFF8F2214DF22B50FDF7CAF8022198
:1037D0004DF22C50FDF7C5F8FE214DF22D50FDF7AE
:1037E000C0F803214DF22E50FDF7BBF810214DF229
:1037F0002F50FDF7B6F803214DF23050FDF7B1F828
:1038000033214DF23150FDF7ACF803214DF2325027
:10381000FDF7A7F86D214DF23350FDF7A2F8002116
:103820004FF45640FDF79DF833214DF20160FDF74E
:1038300098F800214DF20260FDF793F834214DF223
:103840000360FDF78EF800214DF20460FDF789F862
:103850003A214DF20560FDF784F800214DF2066033
:10386000FDF77FF84A214DF20760FDF77AF8002155
:103870004DF20860FDF775F85C214DF20960FDF727
:1038800070F800214DF20A60FDF76BF881214DF2CE
:103890000B60FDF766F800214DF20C60FDF761F852
:1038A000A6214DF20D60FDF75CF800214DF20E608F
:1038B000FDF757F8E5214DF20F60FDF752F80121B1
:1038C0004DF21060FDF74DF813214DF21160FDF738
:1038D00048F801214DF21260FDF743F854214DF2F2
:1038E0001360FDF73EF801214DF21460FDF739F841
:1038F00082214DF21560FDF734F801214DF216607A
:10390000FDF72FF8CA214DF21760FDF72AF80221C2
:103910004DF21860FDF725F800214DF21960FDF712
:1039200020F802214DF21A60FDF71BF801214DF23B
:103930001B60FDF716F802214DF21C60FDF711F82F
:1039400034214DF21D60FDF70CF802214DF21E608E
:10395000FDF707F867214DF21F60FDF702F802211D
:103960004DF22060FCF7FDFF84214DF22160FCF751
:10397000F8FF02214DF22260FCF7F3FFA4214DF283
:103980002360FCF7EEFF02214DF22460FCF7E9FF13
:10399000B7214DF22560FCF7E4FF02214DF22660CD
:1039A000FCF7DFFFCF214DF22760FCF7DAFF0221A1
:1039B0004DF22860FCF7D5FFDE214DF22960FCF7BF
:1039C000D0FF02214DF22A60FCF7CBFFF2214DF22D
:1039D0002B60FCF7C6FF02214DF22C60FCF7C1FF03
:1039E000FE214DF22D60FCF7BCFF03214DF22E604D
:1039F000FCF7B7FF10214DF22F60FCF7B2FF032157
:103A00004DF23060FCF7ADFF33214DF23160FCF731
:103A1000A8FF03214DF23260FCF7A3FF6D214DF2A8
:103A20003360FCF79EFF55214FF47040FCF799FF7F
:103A3000AA214FF20100FCF794FF52214FF202003D
:103A4000FCF78FFF08214FF20300FCF78AFF0021EB
:103A50004FF20400FCF785FFCC214FF43140FCF716
:103A600080FF00214BF20110FCF77BFF05214FF492
:103A70003640FCF776FF70214FF43740FCF771FFBA
:103A800070214BF20170FCF76CFF01214FF43840BC
:103A9000FCF767FF03214BF60100FCF762FF0321EF
:103AA0004BF60200FCF75DFF03214BF60300FCF729
:103AB00058FF02214FF43C40FCF753FF00214BF626
:103AC0000140FCF74EFF00214BF60240FCF749FF96
:103AD000D0214FF44940FCF744FF02214CF601107D
:103AE000FCF73FFF50214CF60210FCF73AFF502143
:103AF0004CF60310FCF735FF50214CF60410FCF790
:103B000030FF00214FF45450FCF72BFF55214FF4A8
:103B10006850FCF726FF4FF48850FCF713FF78201D
:103B200003F0E3FC4FF42450FCF70CFF01F05BB909
:103B3000FE48808849F2253188427DD147F6F00160
:103B4000E520FCF70EFF4FF480710120FCF709FF20
:103B50004FF4E0610220FCF704FF41F23001032042
:103B6000FCF7FFFE00210420FCF7FBFE40F20221DF
:103B70000820FCF7F6FE00210920FCF7F2FE0021E8
:103B80000A20FCF7EEFE00210C20FCF7EAFE0021E3
:103B90000D20FCF7E6FE00210F20FCF7E2FE0021DD
:103BA0001020FCF7DEFE07211120FCF7DAFE0021D1
:103BB0001220FCF7D6FE00211320FCF7D2FE0021D4
:103BC0000720FCF7CEFE41F290611020FCF7C9FE01
:103BD00040F227211120FCF7C4FE9D211220FCF7A2
:103BE000C0FE4FF4C8511320FCF7BBFE252129204D
:103BF000FCF7B7FE0D212B20FCF7B3FE0721302088
:103C0000FCF7AFFE40F203313120FCF7AAFE03219E
:103C10003220FCF7A6FE40F206213520FCF7A1FE7B
:103C200008213620FCF79DFE40F206413720FCF7C4
:103C300098FE4FF4417100E058E03820FCF791FE07
:103C400007213920FCF78DFE40F202613C20FCF791
:103C500088FE08213D20FCF784FE00215020FCF75F
:103C600080FEEF215120FCF77CFE00215220FCF762
:103C700078FE40F23F115320FCF773FE4FF42741CA
:103C80006020FCF76EFE01216120FCF76AFE002136
:103C90006A20FCF766FE00218020FCF762FE00210E
:103CA0008120FCF75EFE00218220FCF75AFE0021F5
:103CB0008320FCF756FE00218420FCF752FE0021F1
:103CC0008520FCF74EFE10219020FCF74AFE4FF4B1
:103CD000C0619220FCF745FE40F233110720FCF74B
:103CE00040FE22210020FCF73CFE1FE78F48808821
:103CF00049F2283188427DD141F28F01EC20FCF756
:103D000030FE41F23421EF20FCF72BFE4FF480719E
:103D10000120FCF726FE4FF4E0610220FCF721FEB3
:103D200041F230010320FCF71CFE00210420FCF7C7
:103D300018FE40F202210820FCF713FE00210920A2
:103D4000FCF70FFE00210A20FCF70BFE01210C20DE
:103D5000FCF707FE00210D20FCF703FE00210F20D9
:103D6000FCF7FFFD00211020FCF7FBFD07211120CF
:103D7000FCF7F7FD00211220FCF7F3FD00211320D2
:103D8000FCF7EFFD01210720FCF7EBFD322003F0EB
:103D9000D0FB41F290411020FCF7E3FD40F22721D7
:103DA0001120FCF7DEFD322003F0C3FB8A21122034
:103DB000FCF7D7FD322003F0BCFB4FF4D0511320A9
:103DC000FCF7CFFD06212920FCF7CBFD0D212B2090
:103DD000FCF7C7FD322003F0ACFB00212020FCF7EC
:103DE000C0FD00212120FCF7BCFD322003F0A1FB27
:103DF000002100E075E03020FCF7B3FD40F20461E3
:103E00003120FCF7AEFD40F205313220FCF7A9FD70
:103E100000213520FCF7A5FD40F609413620FCF7CE
:103E2000A0FD4FF401713720FCF79BFD40F20131FA
:103E30003820FCF796FD40F207713920FCF791FD20
:103E400000213C20FCF78DFD40F60A213D20FCF7C7
:103E500088FD322003F06DFB00215020FCF781FD2E
:103E6000EF215120FCF77DFD00215220FCF779FD68
:103E700040F23F115320FCF774FD4FF427416020BE
:103E8000FCF76FFD01216120FCF76BFD00216A202A
:103E9000FCF767FD00218020FCF763FD00218120F5
:103EA000FCF75FFD00218220FCF75BFD00218320F1
:103EB000FCF757FD00218420FCF753FD00218520ED
:103EC000FCF74FFD10219020FCF74BFD4FF4C06133
:103ED0009220FCF746FD40F233110720FCF741FD2C
:103EE00024E61248808849F2203188427ED10021A0
:103EF0000846FCF736FD4FF480710120FCF731FDD8
:103F00004FF4E0610220FCF72CFD41F23001032068
:103F1000FCF727FD00210420FCF723FD40F20221DD
:103F20000820FCF71EFD0021092001E08C00002084
:103F3000FCF717FD00210A20FCF713FD01210C20DE
:103F4000FCF70FFD00210D20FCF70BFD00210F20D9
:103F5000FCF707FD322003F0ECFA40F201110720D4
:103F6000FCF7FFFC322003F0E4FA4FF486511020F6
:103F7000FCF7F7FC07211120FCF7F3FC4FF48871E4
:103F80001220FCF7EEFC4FF430611320FCF7E9FC43
:103F900000212920FCF7E5FC44F210012B20FCF75E
:103FA000E0FC00215020FCF7DCFCEF215120FCF765
:103FB000D8FC00215220FCF7D4FC40F23F115320E2
:103FC000FCF7CFFC4FF41C516020FCF7CAFC012128
:103FD0006120FCF7C6FC00216A20FCF7C2FC00212E
:103FE0008020FCF7BEFC0021812000E030E0FCF7DF
:103FF000B8FC00218220FCF7B4FC00218320FCF7F0
:10400000B0FC00218420FCF7ACFC00218520FCF7EB
:10401000A8FC10219020FCF7A4FC00219220FCF7C2
:10402000A0FC01219320FCF79CFC4FF488719520A3
:10403000FCF797FC00219720FCF793FC00219820C7
:10404000FCF78FFC40F273110720FCF78AFC6DE54A
:10405000FE48808849F2313188427DD141F2140115
:10406000E720FCF77EFC4FF480710120FCF779FC1F
:104070004FF400710220FCF774FC41F23801032078
:10408000FCF76FFC40F202210820FCF76AFC0021DB
:104090000920FCF766FC00210A20FCF762FC0021E5
:1040A0000C20FCF75EFC00210D20FCF75AFC0021DF
:1040B0000F20FCF756FC00211020FCF752FC0721D2
:1040C0001120FCF74EFC00211220FCF74AFC0021D5
:1040D0001320FCF746FCC82003F02BFA41F2906154
:1040E0001020FCF73EFC40F227211120FCF739FCA0
:1040F000322003F01EFA0C211220FCF732FC322091
:1041000003F017FA4FF400611320FCF72AFC112189
:104110002920FCF726FC0B212B20FCF722FC322067
:1041200003F007FA00212020FCF71BFC40F23F11AE
:104130002120FCF716FC00213020FCF712FC4FF484
:1041400083713120FCF70DFC00213220FCF709FCC3
:104150004FF40171352000E064E0FCF702FC41F20D
:104160000A613620FCF7FDFB40F207713720FCF7AF
:10417000F8FB4FF483713820FCF7F3FB40F2077132
:104180003920FCF7EEFB40F202413C20FCF7E9FB52
:1041900040F60F413D20FCF7E4FB00215020FCF7E6
:1041A000E0FBEF215120FCF7DCFB00215220FCF763
:1041B000D8FB40F23F115320FCF7D3FB4FF41C51C6
:1041C0006020FCF7CEFB01216120FCF7CAFB002137
:1041D0006A20FCF7C6FB00218020FCF7C2FB00210F
:1041E0008120FCF7BEFB00218220FCF7BAFB0021F6
:1041F0008320FCF7B6FB00218420FCF7B2FB0021F2
:104200008520FCF7AEFB10219020FCF7AAFB4FF4B1
:10421000C0619220FCF7A5FB40F233110720FCF7A8
:10422000A0FB83E48948808845F2084188427DD11B
:104230004FF480710120FCF794FB4FF4E061022001
:10424000FCF78FFB41F230010320FCF78AFB0021D1
:104250000420FCF786FB40F207210820FCF781FBD5
:1042600000210920FCF77DFB00210A20FCF779FBE7
:1042700000210C20FCF775FB00210D20FCF771FBE1
:1042800000210F20FCF76DFB142003F052F941F2DE
:10429000B0611020FCF765FB01211120FCF761FBE8
:1042A00001211720FCF75DFB4FF49C711220FCF7F5
:1042B00058FB4FF400611320FCF753FB0921292020
:1042C000FCF74FFB09212A20FCF74BFB0021A4201F
:1042D000FCF747FB00215020FCF743FBEF21512066
:1042E000FCF73FFB00215220FCF73BFB40F23F1163
:1042F0005320FCF736FB4FF41C516020FCF731FBD8
:1043000001216120FCF72DFB00216A20FCF729FB2D
:1043100000218020FCF725FB00218120FCF721FBF8
:1043200000218220FCF71DFB002100E024E0832017
:10433000FCF717FB00218420FCF713FB00218520EC
:10434000FCF70FFB13219020FCF70BFB00219220C0
:10435000FCF707FB03219320FCF703FB4FF4887164
:104360009520FCF7FEFA40F273110720FCF7F9FAEA
:10437000322003F0DEF8B8E43448808841F2055179
:1043800088427DD100210720FCF7EBFA322003F0B0
:10439000D0F84FF48E711220FCF7E3FA0121A4202B
:1043A000FCF7DFFA0F210820FCF7DBFA08210A20CE
:1043B000FCF7D7FA08210D20FCF7D3FA40F2077179
:1043C0003020FCF7CEFA07213120FCF7CAFA40F280
:1043D00003613220FCF7C5FA4FF4E0613320FCF7AB
:1043E000C0FA40F202213420FCF7BBFA022135204A
:1043F000FCF7B7FA41F60F713620FCF7B2FA40F23B
:1044000007713720FCF7ADFA00213820FCF7A9FA34
:1044100000213920FCF7A5FA40F207713A20FCF799
:10442000A0FA00213B20FCF79CFA07213C20FCF776
:1044300098FA00213D20FCF794FA322003F079F835
:1044400001210720FCF78DFA012101E08C000020FA
:104450001720FCF786FA322003F06BF84FF4BD51B9
:104460001020FCF77EFA40F217211120FCF779FAB0
:104470004FF48F711220FCF774FA4FF4706100E072
:1044800098E01320FCF76DFA00212A20FCF769FA66
:104490000A212920FCF765FA4FF49F711220FCF7DE
:1044A00060FA00215020FCF75CFAEF215120FCF764
:1044B00058FA00215220FCF754FA40F23F115320E1
:1044C000FCF74FFA4FF41C516020FCF74AFA012127
:1044D0006120FCF746FA00216A20FCF742FA00212D
:1044E0008020FCF73EFA00218120FCF73AFA0021F7
:1044F0008220FCF736FA00218320FCF732FA0021F3
:104500008420FCF72EFA00218520FCF72AFA1321DB
:104510009020FCF726FA4FF440719220FCF721FA24
:1045200005219320FCF71DFA00219520FCF719FACC
:1045300000219720FCF715FA00219820FCF711FACA
:104540004FF480710120FCF70CFA4FF4E061022077
:10455000FCF707FA41F238010320FCF702FA0021C8
:104560000420FCF7FEF900210C20FCF7FAF90021E9
:104570000F20FCF7F6F900212020FCF7F2F90021CA
:104580002120FCF7EEF921210720FCF7EAF914209D
:1045900002F0CFFF61210720FCF7E3F9142002F0BD
:1045A000C8FF40F273110720FCF7DBF9142002F07A
:1045B000C0FF95E4FE4880884BF2055188427CD1CB
:1045C00000210846FCF7CDF900210846FCF7C9F99F
:1045D00000210846FCF7C5F900210846FCF7C1F99F
:1045E0000121A420FCF7BDF9142002F0A2FF4FF432
:1045F0001C516020FCF7B5F940F202210820FCF7BD
:10460000B0F94FF405713020FCF7ABF943F21571A6
:104610003120FCF7A6F940F204613220FCF7A1F941
:1046200040F616613320FCF79CF942F21121342048
:10463000FCF797F94FF4A8513520FCF792F948F2AE
:1046400007513620FCF78DF941F207413720FCF77E
:1046500088F941F203413820FCF783F92021392001
:10466000FCF77FF91A219020FCF77BF9002110203C
:10467000FCF777F907211120FCF773F900211220CC
:10468000FCF76FF900211320FCF76BF9142002F0FE
:1046900050FF4FF4E6611020FCF763F940F2371148
:1046A0001120FCF75EF9142002F043FF4FF4DC7197
:1046B0001220FCF756F9142000E085E002F039FFE3
:1046C0004FF470611320FCF74CF980212A20FCF78D
:1046D00048F948212920FCF744F9142002F029FF69
:1046E0004FF480710120FCF73CF94FF4E0610220A7
:1046F000FCF737F941F238010320FCF732F940F2B8
:1047000002210820FCF72DF900210A20FCF729F9E5
:1047100000210C20FCF725F900210D20FCF721F9E0
:1047200030210E20FCF71DF900215020FCF719F96B
:10473000EF215120FCF715F900215220FCF711F967
:1047400040F23F115320FCF70CF94FF41C5160204C
:10475000FCF707F901216120FCF703F900216A2029
:10476000FCF7FFF811219020FCF7FBF84FF4C06133
:104770009220FCF7F6F840F202419320FCF7F1F8A2
:1047800002219420FCF7EDF8142002F0D2FE012162
:104790000720FCF7E6F8142002F0CBFE6121072089
:1047A000FCF7DFF840F273110720FCF7DAF800217C
:1047B0002020FCF7D6F800212120FCF7D2F8222196
:1047C0000020FCF7CEF80EE3794880884CF20551C2
:1047D00088427CD100210846FCF7C3F80021084636
:1047E000FCF7BFF8142002F0A4FE00210846FCF7F5
:1047F000B8F800210846FCF7B4F800210846FCF799
:10480000B0F800210846FCF7ACF80121A420FCF721
:10481000A8F8142002F08DFE4FF41C516020FCF724
:10482000A0F840F606010820FCF79BF840F203715F
:104830003020FCF796F801213120FCF792F8042192
:104840003220FCF78EF84FF481713320FCF789F8A1
:104850004FF440713420FCF784F840F20311352006
:10486000FCF77FF81F213620FCF77BF840F203713C
:104870003720FCF776F801213820FCF772F8042184
:104880003920FCF76EF815219020FCF76AF84FF4F8
:1048900082611020FCF765F840F247211120FCF7F7
:1048A00060F84FF4DE711220FCF75BF84FF46061A2
:1048B0001320FCF756F8782002F03BFE4FF480718D
:1048C0000120FCF74EF84FF40071022000E052E0A6
:1048D000FCF747F841F230010320FCF742F80821C9
:1048E0000A20FCF73EF800210C20FCF73AF82021C2
:1048F0000E20FCF736F800210F20FCF732F80021DB
:104900002020FCF72EF800212120FCF72AF83D2179
:104910002A20FCF726F8142002F00BFE2D21292076
:10492000FCF71FF800215020FCF71BF84DF2EF01B7
:104930005120FCF716F800215220FCF712F840F243
:104940003F115320FCF70DF800216120FCF709F816
:1049500000216A20FCF705F84FF440719220FCF723
:1049600000F805219320FBF7FCFF4FF4807107202E
:10497000FBF7F7FF37E20E48808844F23151884256
:104980007ED101210020FBF7ECFF0A2002F0D1FDCF
:1049900041F228611020FBF7E4FF0E211220FBF703
:1049A000E0FF40F639211320FBF7DBFF0A2001E08E
:1049B0008C00002002F0BDFD40211120FBF7D1FF4B
:1049C00050211520FBF7CDFF0A2002F0B2FD1E2179
:1049D0001220FBF7C6FF0A2002F0ABFD4FF4B151E5
:1049E0001020FBF7BEFF42F639211320FBF7B9FF79
:1049F0000A2002F09EFD4FF480710120FBF7B1FF09
:104A00004FF440710220FBF7ACFF41F23801032064
:104A1000FBF7A7FF40F202210820FBF7A2FF0821C5
:104A20000A20FBF79EFF00213020FBF79AFF40F29F
:104A300002413120FBF795FF4FF483713220FBF7E1
:104A400090FF40F203513320FBF78BFF4FF482714C
:104A50003420FBF786FF40F201313520FBF781FF60
:104A600040F207713620FBF77CFF40F2053137201A
:104A7000FBF777FF4FF402713820FBF772FF00E07D
:104A80003EE040F60B713920FBF76BFF022141201D
:104A9000FBF767FF4FF41C516020FBF762FF012119
:104AA0006120FBF75EFF4FF404719020FBF759FF84
:104AB0004FF485719220FBF754FF04219320FBF7FC
:104AC00050FF4FF48071A020FBF74BFF012107201E
:104AD000FBF747FF21210720FBF743FF2321072096
:104AE000FBF73FFF33210720FBF73BFF40F2331179
:104AF0000720FBF736FF0021A020FBF732FF72E111
:104B0000FA48808844F2355188427CD13021152002
:104B1000FBF727FF10219A20FBF723FF202111200C
:104B2000FBF71FFF43F228411020FBF71AFF022179
:104B30001220FBF716FF41F238011320FBF711FF9B
:104B4000282002F0F6FC12210846FBF70AFF282075
:104B500002F0EFFC43F220411020FBF702FF43F28A
:104B600038011320FBF7FDFE462002F0E2FC002195
:104B70003020FBF7F6FE40F202413120FBF7F1FE58
:104B800040F207313220FBF7ECFE4FF44171332045
:104B9000FBF7E7FE04213420FBF7E3FE40F201417E
:104BA0003520FBF7DEFE40F207713620FBF7D9FE19
:104BB00040F205313720FBF7D4FE4FF4C2613820B4
:104BC000FBF7CFFE4FF4C2613920FBF7CAFE4FF46A
:104BD00080710120FBF7C5FE4FF440710220FBF706
:104BE000C0FE41F230010320FBF7BBFE40F6080196
:104BF0000820FBF7B6FE08210A20FBF7B2FE4FF4AF
:104C00001C51602000E033E0FBF7ABFE0121612086
:104C1000FBF7A7FE4FF49F719020FBF7A2FE4FF425
:104C200080719220FBF79DFE4FF480719320FBF77B
:104C300098FE4FF44051A020FBF793FE1021A320D3
:104C4000FBF78FFE01210720FBF78BFE21210720B8
:104C5000FBF787FE23210720FBF783FE3321072084
:104C6000FBF77FFE40F233110720FBF77AFEBAE034
:104C70009E48808841F663118842F8D1E220FBF714
:104C800061FE2320FBF761FE0220FBF75EFE04209D
:104C9000FBF75BFE642002F028FCE020FBF752FEED
:104CA0000120FBF752FE0A2002F043FCE020FBF754
:104CB00049FE0320FBF749FE0C2002F03AFC0120DC
:104CC000FBF740FE0A2002F034FCE620FBF73AFE38
:104CD0000320FBF73AFEFF20FBF737FEFF20FBF730
:104CE00034FEB020FBF72EFE2020FBF72EFE002026
:104CF000FBF72BFE0320FBF728FE40F21F30FBF7EB
:104D000024FE0120FBF721FE40F2DF10FBF71DFE21
:104D10000020FBF71AFEB420FBF714FE0420FBF77B
:104D200014FE40F21F40FBF710FE0020FBF70DFEC3
:104D3000D220FBF70AFE0020FBF707FE0020FBF75E
:104D400004FE0020FBF701FE0020FBF7FEFDB6206D
:104D5000FBF7F8FD0220FBF7F8FD4FF40370FBF7BB
:104D6000F4FD0020FBF7F1FD2220FBF7EEFD09200A
:104D7000FBF7EBFD0020FBF7E8FD0020FBF7E5FD6E
:104D8000F020FBF7DFFD0320FBF7DFFD2920FBF719
:104D9000D9FDD020FBF7D6FD0020FBF7D6FDBE20C5
:104DA000FBF7D0FD0520FBF7D0FDFE20FBF7CDFD86
:104DB0000120FBF7CAFDFF20FBF7C7FD0020FBF732
:104DC000C4FDB820FBF7BEFD0F20FBF7BEFD0120A0
:104DD000FBF7BBFDBA20FBF7B5FD0120FBF7B5FDE6
:104DE0006420FCF712FA0020FCF737FA0120404952
:104DF00008604FF6FF70FCF71CFC1FB000BD2DE9EA
:104E0000FC4F05460E4617469846DDF82C900020CC
:104E100001903648808846F60401884229D13348FB
:104E20008079012825D1AB46354630480088C01B23
:104E3000401E86B247462D480088A0EB0B00401E5E
:104E40001FFA80F80020294988712A2048812B20E8
:104E5000888143463A4631462846CDF80090FFF710
:104E6000CEFF0120214988712B2048812A2088818A
:104E70001CE0781B401C80B20190344614E02146AF
:104E80002846FBF79BFDFBF77CFD4FF0000A06E090
:104E90001848A0F800900AF101001FFA80FA019862
:104EA0008245F5DB601C84B24445E8DDBDE8FC8F3B
:104EB0002DE9F84F07460D4690469946DDF828B093
:104EC000A8EB0700401C1FFA80FAA9EB0500401C64
:104ED00080B2009000241BE0281981B23846FBF70D
:104EE0006DFDFBF74EFD00260EE000008C0000205B
:104EF000808121420008006C04FB0A603BF810002E
:104F0000F7490880701C86B25645F5DB601C84B2F8
:104F100000988442E0DBBDE8F88F2DE9FF4F84B0B4
:104F200081468A460020039002900698A0EB09056E
:104F30000798A0EB0A06CDF80490CDF800A0002D4C
:104F400001DD012705E00DB9002702E04FF0FF3732
:104F50006D42002E02DD4FF0010806E016B94FF059
:104F6000000802E04FF0FF387642B54201DD2C46E2
:104F700000E034464FF0000B21E0009A91B2019A14
:104F800090B2FCF774F803982844039002983044D8
:104F900002900398A04205DD0398001B039001983E
:104FA000384401900298A04205DD0298001B02904F
:104FB0000098404400900BF101001FFA80FB601C38
:104FC0008345DADD08B0BDE8F08FF0B504460D4644
:104FD00016461F462B46324629462046FFF79DFFC0
:104FE0003B46224629462046FFF797FF3B4632467E
:104FF00039462046FFF791FF3B4632462946304668
:10500000FFF78BFFF0BD2DE9F04306460F469046B3
:10501000002445460320A0EB48093CE07A1B91B2EE
:10502000321990B2FCF723F83A1B91B2721990B280
:10503000FCF71DF83A1991B2721990B2FCF717F803
:105040007A1991B2321990B2FCF711F87A1991B22B
:10505000321B90B2FCF70BF83A1991B2721B90B266
:10506000FCF705F87A1B91B2321B90B2FBF7FFFFF9
:105070003A1B91B2721B90B2FBF7F9FF641CB9F1B5
:10508000000F03DAA000801D814404E0601B800053
:105090000A3081446D1EAC42C0DDBDE8F0832DE9CD
:1050A000F84F80460E4617461C46B3462046E31787
:1050B00004EB5373DB1021464FEAE47C04EB5C7C89
:1050C0004FEAEC0CA4EBCC0CBCF1000F02D04FF07B
:1050D000010C01E04FF0000C6344224604EBD27C4B
:1050E0004FEA6C0C03FB0CF3DBB20093A7F120003A
:1050F000C7B2002556E00C2C07D107EB47007949D1
:1051000001EB800010F8059013E0102C05D17648D3
:1051100000EB071010F805900BE0182C07D107EBF7
:10512000C700724901EB800010F8059001E0BDE86E
:10513000F88F4FF0000A2FE009F0800030B16C4882
:10514000028831464046FBF7A0FF07E00A9828B9DD
:105150006848028831464046FBF797FF4FEA4960AE
:105160004FEA1069701C86B263484088B04200DC88
:10517000DDE7A6EB0B00A0420AD15E4608F1010074
:105180001FFA80F85C480088404500DCCFE706E065
:105190000AF1010000F0FF0ABAF1080FCCDB00BFF2
:1051A000681CC5B200988542A5DB00BFBFE710B5FB
:1051B0000246012000E050430B1EA1F10104E1B2C0
:1051C000F9D110BD2DE9FF4F81B0074691461E462B
:1051D0000E9D4FF0000A002439E0301B401EC1B282
:1051E0000A20FFF7E4FFB9FBF0F00A21B0FBF1F26F
:1051F00001FB1208BAF1000F16D1701EA04213DD98
:10520000B8F1000F0ED10020AB4605EBDB71491061
:1052100001FB0471009088B22B4620220299FFF70F
:105220003EFF12E04FF0010A0020AB4605EBDB71B8
:10523000491001FB0471009088B208F13001CAB234
:105240002B460299FFF72BFF00BF601CC4B2B4428B
:10525000C3DB05B0BDE8F08F2DE9FF4F82B00646F5
:1052600092461F46DDE90F480020019000255CE0D2
:10527000781B401EC1B20A20FFF799FFBAFBF0F07D
:105280000A21B0FBF1F201FB12090198B0BB781EB4
:10529000A84236DDB9F1000F31D108F0800078B1B5
:1052A00008F00100A34604EBDB71491001FB056126
:1052B000009088B2234630220399FFF7F0FE0EE0FB
:1052C00008F00100A34604EBDB71491001FB056106
:1052D000009088B2234620220399FFF7E0FE22E0E7
:1052E0000008006CD69B00084AA000083AA60008F7
:1052F0002A0000202C0000208C00002001E001206A
:10530000019008F00100A34604EBDB71491001FB9A
:105310000561009088B209F13001CAB223460399B1
:10532000FFF7BDFE00BF681CC5B2BD42A0DB06B0E2
:10533000BDE8F08F2DE9F84704460D4690469946A2
:10534000DDE9096704F0FF0A08EB04001FFA80F8A2
:1053500009EB05001FFA80F916E0444502DB5446CC
:10536000A81985B24D4500DB14E0012000903A7881
:10537000334629462046FFF792FE304606EBD071B1
:1053800004EB61018CB27F1C38787E2802DC38780F
:105390002028E2DA00BFBDE8F887000008B5012147
:1053A000082003F043F8C020ADF8000010208DF86D
:1053B000030003208DF802006946904802F07AFD50
:1053C000C0218E4802F023FE08BD10B58B4800684E
:1053D00020F07040894908600846006840F040505D
:1053E00008600120864908608649C1F898010420B8
:1053F00002F07BF8002082490860042002F075F872
:1054000000208049C1F8980110BD10B57B480068A4
:1054100020F07040794908600846006840F040502C
:10542000086000207649091F08607649C1F89C0190
:10543000042002F05AF801207149091F08607149DF
:10544000C1F89C01042002F050F810BD10B50024F2
:105450006A48006820F070406849086008460068A3
:1054600040F00040086001206549086002F03DF806
:1054700001206449C1F8980102F037F807E0601C88
:10548000C4B2FA2C03DDFFF7C0FF012010BD5C4859
:10549000803800680028F2D15949091F086000BF10
:1054A000F4E710B500205649091F0860534800680A
:1054B00020F07040514908600846006840F04050B4
:1054C000086000204F49C1F89C01022002F00DF84D
:1054D00001204B49091F0860022002F006F8002055
:1054E0004849C1F8980110BD10B500204449091F72
:1054F00008604248006820F0704040490860084653
:10550000006840F04050086001203E49C1F89C010D
:10551000022001F0EAFF01203949091F086002203A
:1055200001F0E3FF00203749C1F8980110BD70B5C4
:1055300004463248006820F0704030490860084650
:10554000006840F04050086000202D49091F0860A5
:1055500000251DE0E00918B101202949086002E09A
:105560000020274908606006040E022001F0BDFFFC
:1055700001202349091F0860022001F0B6FF002026
:105580002049C1F89801022001F0AFFF681CC5B2A4
:10559000082DDFDB70BD70B5054600241748006894
:1055A00020F07040154908600846006840F000404F
:1055B0000860002617E000201149091F086002203A
:1055C00001F093FF01200F49C1F898016006040E15
:1055D0000B488038006808B1601CC4B2012001F09B
:1055E00084FF701CC6B2082EE5DB15B9FFF77CFFFF
:1055F00001E0FFF756FF204670BD0000000C01409F
:105600009C8121420080214210B5FFF7C7FE10BDEA
:1056100070B504460026FFF7D8FE2546E11704EBD7
:1056200011610912A02202EB4101C8B2FFF77FFF0E
:10563000FFF70CFFE11704EB11610912A4EB012144
:10564000C8B2FFF774FFFFF701FFFFF7BEFEA1200E
:10565000FFF76DFFFFF7FAFE0020FFF79CFF0646FD
:10566000FFF7D3FE304670BD70B504460E46FFF717
:10567000ACFE2546E11704EB11610912A02202EBF2
:105680004101C8B2FFF753FFFFF7E0FEE11704EB5B
:1056900011610912A4EB0121C8B2FFF748FFFFF71F
:1056A000D5FE3046FFF743FFFFF7D0FEFFF7ADFE14
:1056B0000A2001F03EFF70BD2DE9F04105460E467F
:1056C0001746002409E0E20026FA02F2D1B22A19B4
:1056D00090B2FFF7C9FF601CC4B2BC42F3DBBDE867
:1056E000F0812DE9F04107460C460026002509E02F
:1056F00036023919491B491E88B2FFF789FF064453
:10570000681CC5B2A542F3DB3046BDE8F08110B598
:10571000FF20FFF77DFF0446552C01D1002010BD6E
:105720005521FF20FFF7A0FFFF20FFF771FF044680
:10573000552C01D10020F2E70120F0E770B50646B4
:105740000C46154608E03046721C96B2FFF760FF23
:1057500004F8010B681E85B2002DF4D170BD70B540
:1057600005460C46164606E021782846FFF77CFFE2
:10577000681C85B2641C301EA6F101018EB2F3D103
:1057800070BD000070B50446002500BF17E004F0AE
:10579000800018B10120FE49086002E00020FC49A9
:1057A00008606006040E0020FA490860012001F03C
:1057B0009CFE0120F849C1F88401681CC5B2082D7F
:1057C000E5DB70BD70B50646002500240020F149D8
:1057D0000860F249C1F8A401ED490831086030467B
:1057E000FFF7D0FF062001F080FE0020EA49C1F853
:1057F0008401012001F079FE0120E649086001F0F2
:1058000074FE0020E449C1F8840100BF15E04FF6A2
:10581000FF7000EA44040020DE490860012001F026
:1058200064FE0120DC49C1F88401DA487C38006854
:1058300008B1601C84B2681CC5B2102DE7DB2411CE
:105840000120D34908310860204670BD2DE9FE4390
:1058500080460027002406E04046FFF7B3FF2DF8FE
:105860001400601C84B2052CF6DB002416E0601CDA
:1058700085B20FE03DF814003DF81510884207DDB1
:105880003DF814603DF815002DF814002DF8156052
:10589000681C85B2052DEDDB601C84B2042CE6DBB0
:1058A0000027012405E03DF81400384487B2601C4D
:1058B00084B2042CF7DB032097FBF0F086B230466D
:1058C000BDE8FE832DE9F04104460D46B44800785A
:1058D000FFF7BCFF0646B3480078FFF7B7FF07465F
:1058E00026802F800120BDE8F0817FB504460D465B
:1058F00002A903A8FFF7E6FF064616B9002004B088
:1059000070BD694601A8FFF7DDFF06460EB900200D
:10591000F5E7BDF80400BDF80C10884206DCBDF8C0
:105920000C10BDF80400323081420CDBBDF80C00D5
:10593000BDF80410884236DCBDF80410BDF80C0038
:10594000323081422FDABDF80000BDF808108842DD
:1059500006DCBDF80810BDF80000323081420CDBD7
:10596000BDF80800BDF8001088421CDCBDF800102E
:10597000BDF808003230814215DABDF80C10BDF8D0
:105980000420881800EBD071C1F34F012180BDF8CD
:105990000810BDF80020881800EBD071C1F34F014A
:1059A00029800120ABE70020A9E770B504460D4629
:1059B00016467D48068004F10D018AB2193988B275
:1059C0002B462946FFF7A9FA05F10D0083B21938D5
:1059D00081B222462046FFF7A0FA6A1C91B2621CEF
:1059E00090B2FBF744FB6A1C91B2621E90B2FBF7C7
:1059F0003EFB6A1E91B2621C90B2FBF738FB6A1E36
:105A000091B2621E90B2FBF732FB06222946204675
:105A1000FFF7F9FA70BD70B504460D4616466248A8
:105A2000068029462046FBF722FB611C88B22946E6
:105A3000FBF71DFB681C81B22046FBF718FB6A1CB4
:105A400091B2621C90B2FBF712FB70BD2DE9F041E0
:105A500004464F487C380068002856D12CB1534981
:105A6000A1F10A00FFF741FF3DE05049A1F10A0012
:105A7000FFF73BFFB8B34D491639B1F92C0003F0DD
:105A80003DFF074649491639888903F04FFF804694
:105A900046481638416A404603F05CFF06463946E0
:105AA00003F0CCFD054603F009FF40491639888113
:105AB000B1F92E0003F022FF07463C491639C88A87
:105AC00003F034FF804639481638816A404603F0B7
:105AD00041FF0646394603F0B1FD054603F0EEFEF0
:105AE00032491639C8823148163890F8200000F043
:105AF000800038BBC0202D49163981F820000846A7
:105B000081898182C18AC1831CE02848163890F8B7
:105B1000200000F0800050B12448163890F8200092
:105B200020F080002149163981F820000AE0002188
:105B30001E4816388182C1834FF6FF701B49163903
:105B40008881C8821948163890F8200000F080003B
:105B5000BDE8F08110B50E2214490E312820FFF760
:105B6000FEFD0A213620FFF77FFD10BD10B536205F
:105B7000FFF74EFD04460A2C2AD10E220B490E31A6
:105B80002820FFF7DBFD0948163890F830000FE0B9
:105B9000A48123428481214200802142008023424B
:105BA00064000020650000202A000020460000203C
:105BB00030B19020FE490870D020FE49087005E001
:105BC000D020FB4908709020FA490870012010BDD0
:105BD0000020FCE72DE9FC5F04460D4617461E46F3
:105BE000DDE90EABDDE90C894FF47840F24908801D
:105BF000F2A01021CDE90010F14843880288A021CD
:105C00002820FFF797FBEFA01021CDE90010EC480A
:105C100043880288A0217820FFF78CFBEAA010219E
:105C2000CDE90010E64843880288B4212820FFF718
:105C300081FBE6A01021CDE90010E14843880288ED
:105C4000B4217820FFF776FBE1A01021CDE9001008
:105C5000DB4843880288C8212820FFF76BFBDDA0C2
:105C60001021CDE90010D64843880288C821782049
:105C7000FFF760FBD8A01021CDE90010D048438881
:105C80000288DC212820FFF755FBD4A01021CDE9A4
:105C90000010CB4843880288DC217820FFF74AFBBC
:105CA000CFA01021CDE90010C54843880288F0211B
:105CB0002820FFF73FFB102004232246A02100905C
:105CC0004020FFF77FFA102004232A46A0210090ED
:105CD0009020FFF777FA102004233A46B421009071
:105CE0004020FFF76FFA102004233246B4210090C1
:105CF0009020FFF767FA102004234246C821009045
:105D00004020FFF75FFA102004234A46C821009084
:105D10009020FFF757FA102004235246DC21009010
:105D20004020FFF74FFA102004235A46DC21009050
:105D30009020FFF747FA102003230090F021602005
:105D4000109AFFF73FFABDE8FC9F00B597B000201E
:105D500012900B9012901F20974908804FF6FF7009
:105D6000A1490880FBF765FC4FF478409249088010
:105D70004FF6FF70FBF75DFC00208F4908809B48C1
:105D8000006810216423A022CDE9001028210846D4
:105D9000FFF7D0FA4FF4784214210846FFF705FECA
:105DA0000020934981F820004862F2E3904840685F
:105DB0000A9001200A9988478D4890F8200000F049
:105DC000C00040286FD100200B90894890F8200037
:105DD00020F04000864981F820000846818913AAF6
:105DE000129822F820108248C18A129802EB800093
:105DF00041801298401CC0B212901298012806D01F
:105E0000022815D0032829D0042810D141E04FF6EC
:105E1000FF7214210846FFF7C8FD6948008814384E
:105E200080B24FF4784214210A90FFF7BEFDA0E340
:105E300063480088143880B24FF6FF7214210A902C
:105E4000FFF7B3FD5E484088143880B24FF47842C3
:105E500001460A901420FFF7A8FD8AE358484088BD
:105E6000143880B24FF6FF7201460A901420FFF7F3
:105E70009CFD53484088143880B20A9050480088EE
:105E8000143880B24FF4784209900A99FFF78DFDDB
:105E90006FE3BDF84C00BDF85010401A0A9000287E
:105EA00002DB0A9802E065E30A9840420F90BDF8D1
:105EB0004E1013A8C088081A0A90002801DB0A981F
:105EC00001E00A9840420E900F9840430F900E98C0
:105ED00040430E90DDE90E100844059003F022F8CF
:105EE000CDE9060102F000FFCDE9080102F0D6FF7E
:105EF00080B21190BDF85400BDF85810401A0A90B5
:105F0000002801DB0A9801E00A9840420F9013A88C
:105F10004189C089081A0A90002801DB0A9801E02B
:105F20000A9840420E900F9840430F900E984043BD
:105F30000E90DDE90E100844059002F0F3FFCDE964
:105F4000060102F0D1FECDE9080102F0A7FF80B200
:105F50001090109803F0EAFC0990119803F0E6FC09
:105F60000890099903F0CCFB0A9003F03BFBCDE9C4
:105F70000C014FF066321F4BDDE90C0102F0E6FF29
:105F80000AD31D4A1D4BDDE90C0103F019F903D3B7
:105F9000119808B1109898BB0020129008484088CA
:105FA000143880B20A9006480088143880B228E07D
:105FB00064000020650000202A00002078313A00AB
:105FC0008C00002079313A0078323A0079323A0078
:105FD00078333A0079333A0078343A0079343A0029
:105FE0006661632069733A002C00002098B30008B2
:105FF000300000206666EE3FCDCCCCCCCCCCF03F60
:1060000035E04FF6FF7209900A99FFF7CEFC4FF486
:10601000784214210846FFF7C8FC0022FE4BDDE958
:106020000C0102F0CFFFCDE9080102F037FF80B28A
:1060300013A90A90C989BDF8582013AB5B89CDE933
:106040000132CDE90310BDF85400009013A8C088B8
:106050000990BDF850000890BDF84E000790BDF8BB
:106060004C00069007A90EC9FFF7B4FD91E2BDF8F8
:106070004C00BDF85410401A0A90002801DB0A9821
:1060800001E00A9840420F90BDF84E1013A84089D5
:10609000081A0A90002801DB0A9801E00A98404299
:1060A0000E900F9840430F900E9840430E90DDE9FC
:1060B0000E100844059002F035FFCDE9060102F00C
:1060C00013FECDE9080102F0E9FE80B21190BDF89F
:1060D0005000BDF85810401A0A90002801DB0A98B9
:1060E00001E00A9840420F9013A8C188C089081A9D
:1060F0000A90002801DB0A9801E00A9840420E90BD
:106100000F9840430F900E9840430E90DDE90E101B
:106110000844059002F006FFCDE9060102F0E4FD17
:10612000CDE9080102F0BAFE80B21090109803F099
:10613000FDFB0990119803F0F9FB0890099903F011
:10614000DFFA0A9003F04EFACDE90C014FF0663207
:10615000B24BDDE90C0102F0F9FE06D3B04AB14BB7
:10616000DDE90C0103F02CF840D200201290AE487B
:106170004088143880B20A90AB480088143880B246
:106180004FF6FF7209900A99FFF70FFC4FF478421F
:1061900014210846FFF709FC00229F4BDDE90C01A2
:1061A00002F010FFCDE9080102F078FE80B213A9D9
:1061B0000A90C989BDF8582013AB5B89CDE901323B
:1061C000CDE90310BDF85400009013A8C0880990D1
:1061D000BDF850000890BDF84E000790BDF84C0087
:1061E000069007A90EC9FFF7F5FCD2E1BDF85000F3
:1061F000BDF85410401A0A90002801DB0A9801E00B
:106200000A9840420F9013A8C1884089081A0A9042
:10621000002801DB0A9801E00A9840420E900F988E
:1062200040430F900E9840430E90DDE90E10084455
:10623000059002F077FECDE9060102F055FDCDE9AB
:10624000080102F02BFE80B21190BDF84C00BDF8A1
:106250005810401A0A90002801DB0A9801E00A98B9
:1062600040420F90BDF84E1013A8C089081A0A903A
:10627000002801DB0A9801E00A9840420E900F982E
:1062800040430F900E9840430E90DDE90E100844F5
:10629000059002F047FECDE9060102F025FDCDE9AB
:1062A000080102F0FBFD80B21090109803F03EFB55
:1062B0000990119803F03AFB0890099903F020FA2D
:1062C0000A9003F08FF9CDE90C014FF06632534B81
:1062D000DDE90C0102F03AFE06D3514A514BDDE9EB
:1062E0000C0102F06DFF40D2002012904E48408811
:1062F000143880B20A904C480088143880B24FF6A7
:10630000FF7209900A99FFF750FB4FF4784214216D
:106310000846FFF74AFB00223F4BDDE90C0102F083
:1063200051FECDE9080102F0B9FD80B213A90A902F
:10633000C989BDF8582013AB5B89CDE90132CDE99D
:106340000310BDF85400009013A8C0880990BDF850
:1063500050000890BDF84E000790BDF84C00069024
:1063600007A90EC9FFF736FC13E1BDF85000BDF8D0
:106370004C10401A089003F0C1FA0A902A4800888D
:106380002838089003F0BAFA09900A9903F0B8F98E
:1063900026494862BDF85000BDF84C1008440590ED
:1063A00003F0ACFA06902148406A01460590069831
:1063B00003F0D0FA08901C480088069003F0B6FA63
:1063C0000790089903F092FB4FF08041099003F089
:1063D00097F90A9003F056FA00B21449888513A879
:1063E0004089BDF84E10401A089003F087FA0A90D1
:1063F0000D4840882838089003F080FA09900A99DF
:1064000003F07EF90949886213A84089BDF84E104F
:10641000084405900CE00000000059406666EE3F1D
:10642000CDCCCCCCCCCCF03F8C0000203000002078
:1064300003F064FA0690AB48806A0146059006981E
:1064400003F088FA0890A8484088069003F06EFA96
:106450000790089903F04AFB4FF08041099003F040
:106460004FF90A9003F00EFA00B29E49C88508461B
:10647000406A089003F006FA0990002801DB0998A9
:1064800001E00998404202280DDC9648806A089095
:1064900003F0F8F90A90002801DB0A9801E00A9855
:1064A0004042022842DD002012908F484088143874
:1064B00080B20A908C480088143880B24FF6FF7280
:1064C00009900A99FFF771FA4FF4784214210846AF
:1064D000FFF76BFA85A01021CDE9001082484088B3
:1064E0000A9081480088099002461A2128200A9BB8
:1064F000FEF720FF7B4890F8300008B9012000E04B
:106500000020784981F83000084690F8300030B11A
:1065100090207B490870D0207A49087005E0D0208F
:106520007749087090207749087032E01F2076493B
:1065300008804FF6FF70FBF77CF874A01021CDE9BE
:106540000010694840880A90674800880990024610
:106550006E2123200A9BFEF7EDFE4FF47A7000F0C7
:10656000E8FFFFF7F7FA4FF6FF70FBF762F817B096
:1065700000BD00BF0A2000F0DCFF0B98401C80B279
:106580000B900B98B0F57A7F02DDFFF7EFFA01E090
:1065900000BF0BE400BF00BFE9E708B552488088A0
:1065A00045F21051884220D100F0E4FD18B95D4851
:1065B0004C49486004E000F06EFA5B484949486085
:1065C000484890F8300040F08000464981F830009B
:1065D000084690F830004449897901F001010843E8
:1065E000404981F83000002008BD3F48808841F6CE
:1065F0006311884218D100F0ECFB4C4839494860DF
:10660000084690F8300040F0800081F830000846DD
:1066100090F830003449897901F00101084331498B
:1066200081F830000020DFE70121882001F0FEFE24
:106630000220ADF8000010208DF8030003208DF833
:10664000020069463A4801F035FC0221384801F061
:10665000DEFC0420ADF8000048208DF803006946F8
:10666000334801F027FC0421314801F0D0FC4FF4FD
:106670002060ADF8000010208DF8030003208DF895
:10668000020069462B4801F015FC4FF420612948AF
:1066900001F0BDFC4FF48060ADF8000048208DF89B
:1066A00003006946234801F005FC4FF4806121484E
:1066B00001F0ADFC0B491631A1F10A00FFF702F918
:1066C000FEF7A2FFFFF752FA08B100208CE74FF661
:1066D000FF70FAF7AEFFFFF738FBFFF747FA00BF8E
:1066E000012081E7300000208C0000205450204E13
:1066F00065656420726561646A75737421000000C9
:1067000064000020650000202A000020546F75639B
:10671000682053637265656E2041646A75737420E6
:106720004F4B210081720008336B0008AB6E0008EC
:10673000000C0140001C014010B5052000F0D5FE02
:1067400010BD08B50121882001F070FE0220ADF8CF
:10675000000010208DF8030003208DF80200694628
:10676000904801F0A7FB02218E4801F050FC4FF445
:106770000070ADF8000069468B4801F09BFB4FF4B8
:106780000071894801F043FC08BD10B58648001D22
:10679000006820F0F0008449091D08600846006880
:1067A00040F0300008600120804908608049C1F84D
:1067B00084011E2000F099FE00207C490860FFF74C
:1067C000BBFF00207A49C1F8840110BD10B576489E
:1067D000001D006820F0F0007349091D086008469C
:1067E000006840F0300008600120724908601E20F7
:1067F00000F07BFE00207049C1F8A401FFF79CFF68
:1068000001206A49086010BD10B500246648001DCB
:10681000006820F0F0006449091D0860084600681F
:1068200040F0800008600120604908606049C1F8BC
:106830008401FFF781FF09E0601CC4B2FA2C03DD7C
:10684000FFF7C4FF012010BDFFF776FF57488038DF
:1068500000680028F0D15749086000BFF3E710B581
:106860000020544908605048001D006820F0F000E6
:106870004D49091D08600846006840F03000086076
:10688000FFF75AFF00204C49C1F8A401FFF754FF5D
:10689000012048490860FFF74FFF00204449C1F834
:1068A000840110BD10B50020424908603E48001D1B
:1068B000006820F0F0003C49091D086008460068A7
:1068C00040F030000860FFF737FF01203A49C1F877
:1068D000A401FFF731FF012036490860FFF72CFFC4
:1068E00000203349C1F8840110BD70B504462E481C
:1068F000001D006820F0F0002B49091D08600846C3
:10690000006840F03000086000202A490860FFF766
:1069100013FF002511E0E009244908606006040E19
:1069200001202349C1F88401FFF706FF0020214917
:106930000860FFF701FF681CC5B2082DEBDB70BDD6
:1069400070B5054600241848001D006820F0F000CE
:106950001549091D08600846006840F0800008607D
:106960001E2000F0C2FD002612E000201149086040
:10697000FFF7E2FE01200E49C1F884016006040E13
:106980000A488038006808B1601CC4B2701CC6B2E6
:10699000082EEADB15B9FFF785FF01E0FFF75FFF7F
:1069A000204670BD000C0140001C0140A481234220
:1069B0000080214284812142008023422DE9F04160
:1069C00004460E4617464FF00008FFF7DEFEB220E1
:1069D000FFF78BFFFFF718FF2012FFF786FFFFF787
:1069E00013FFE0B2FFF781FFFFF70EFF00250BE07A
:1069F000705DFFF77AFFFFF707FF8046B8F1000FE1
:106A000000D003E0681CC5B2BD42F1DB00BFFFF758
:106A1000DDFE4046BDE8F0812DE9F04105460F4618
:106A20001646FFF7B2FEB220FFF75FFFFFF7ECFE5E
:106A30002812FFF75AFFFFF7E7FEE8B2FFF755FF0E
:106A4000FFF7E2FEFFF7A1FEB320FFF74EFFFFF7CF
:106A5000DBFE00240BE0711EA14201D0012100E009
:106A600000210846FFF76CFF3855601CC4B2B442E1
:106A7000F1DBFFF7ABFEBDE8F08138B5044600203E
:106A800000900CB180200090012269464FF45060C4
:106A9000FFF794FF38BD1CB5002001900121802034
:106AA00001F0C4FC4FF40060ADF8000010208DF838
:106AB000030003208DF8020069468D4801F0FAF9C1
:106AC00002218B4801F0A3FA4FF48060ADF800007A
:106AD00048208DF803006946854801F0EBF94FF432
:106AE0008061834801F093FAFFF72BFE0020814973
:106AF0000860642000F01DFD01207F49C1F8AC0151
:106B0000642000F016FD0120FFF7B7FF012201A964
:106B10004FF45060FFF780FF9DF8041077A001F05C
:106B2000EFFE9DF80400802801D100201CBD01204B
:106B3000FCE72DE9F14F82B04FF0000AD3467248CE
:106B40000078401C70490870084600780A2190FBC4
:106B5000F1F201FB120018B16B4800780A287DDAC7
:106B6000012202A90020FFF757FF9DF8080000F05E
:106B70001F00002872D09DF8080000F01F0040F0B0
:106B8000C000624981F820004FF0000A76E05F48BB
:106B900090F82000012101FA0AF10840002869D08C
:106BA0005B4931F81A00042201A9FFF735FF574865
:106BB00090F8300000F0010078B39DF807109DF8C0
:106BC000062001EB022002F096F90646514A524B8C
:106BD00002F0F8F9044602F061F981B24B48163030
:106BE00020F81A109DF805109DF8042001EB0220F2
:106BF00002F081F90646494A494B02F0E3F9804622
:106C00000022484B02F012FB044602F047F981B221
:106C10003E480C3020F81A102CE0FFE79DF80710D2
:106C20009DF8062001EB022002F065F90646394A7C
:106C3000394B02F0C7F9044602F030F981B233480B
:106C40000C3020F81A109DF805109DF8042001EB77
:106C5000022002F050F90646304A00E01EE0304BB8
:106C600002F0B0F9044602F019F981B22748163053
:106C700020F81A100AF1010000F0FF0ABAF1050F1E
:106C800085DB4FF0010B2148808920B91F48C08A5D
:106C900008B90020029000201B4908709DF80800E8
:106CA00000F01F00D0B9194890F8200000F08000D3
:106CB00040B1164890F8200020F08000134981F878
:106CC00020000BE04FF6FF7010498881C88208460B
:106CD00090F8200000F0E00081F820000A480078D9
:106CE000F02802DD0A20084908705846BDE8FE8FEA
:106CF000001C0140AC8123420080234243545020B9
:106D000049443A25780D0A00660000203000002032
:106D10009CB300087B14AE47E17AD43FD881734618
:106D200094F6D23F000089402DE9F04105460E4619
:106D300017464FF00008FFF728FD7020FFF7D5FD3C
:106D4000FFF762FDE8B2FFF7D0FDFFF75DFD00241D
:106D50000BE0305DFFF7C9FDFFF756FD8046B8F147
:106D6000000F00D003E0601CC4B2BC42F1DB00BFE6
:106D7000FFF72CFD4046BDE8F0812DE9F0410646C5
:106D80000F461546FFF701FD7020FFF7AEFDFFF738
:106D90003BFDF0B2FFF7A9FDFFF736FDFFF7F5FC6D
:106DA0007120FFF7A2FDFFF72FFD00240BE0691E05
:106DB000A14201D0012100E000210846FFF7C0FDFB
:106DC0003855601CC4B2AC42F1DBFFF7FFFCBDE8F4
:106DD000F0811CB50121802001F028FB4FF40060F8
:106DE000ADF8000010208DF8030003208DF802009C
:106DF0006946924801F05EF80221904801F007F9D7
:106E00004FF48060ADF8000048208DF8030069461B
:106E10008A4801F04FF84FF48061884801F0F7F894
:106E2000FFF78FFC002086490860142000F081FBEA
:106E300001208449C1F8AC01322000F07AFB002027
:106E40008DF80400012201A9FFF76EFF012201A9BC
:106E5000A420FFF769FF16208DF80400012201A984
:106E60008020FFF761FF0C208DF80400012201A9AA
:106E70008820FFF759FF022201A9A120FFF77DFF1B
:106E80009DF8040030280ED19DF8050003280AD192
:106E90009DF805009DF8042000EB02216AA001F096
:106EA0002FFD00201CBD0120FCE771B581B000243E
:106EB000002668480078401C66490870084600783B
:106EC0000A2190FBF1F201FB120018B16148007831
:106ED0000A2866DA012201A90220FFF74EFF9DF879
:106EE000040000F00F0000287ED09DF8040000F0A0
:106EF0000F00062878DA9DF8040000F00F01FF204B
:106F00008840C5B2E843C0B240F0C000524981F8A1
:106F1000200000245AE0504890F820000121A140B0
:106F20000840E8B34D4931F8140004226946FFF7E0
:106F300024FF494890F8300000F00100C0B19DF8EE
:106F400001009DF8001001F00F0100EB0120424903
:106F5000163121F814009DF803009DF8021001F08D
:106F60000F0100EB01213C480C3020F814101DE00B
:106F70009DF801009DF8001001F00F0100EB0120C9
:106F8000C0F5F07081B234480C3020F814109DF830
:106F900003009DF8021001F00F0100EB012101E058
:106FA00012E021E02C48163020F814109DF8000063
:106FB00000F0F000802807D000212748163020F884
:106FC00014100A3820F81410601CC4B2052CA2DB7F
:106FD00001262148808920B91F48C08A08B90020AD
:106FE000019000201B4908709DF8040000F01F006C
:106FF000D0B9194890F8200000F0800040B1164840
:1070000090F8200020F08000134981F820000BE068
:107010004FF6FF7010498881C882084690F820001A
:1070200000F0E00081F820000A480078F02802DD36
:107030000A200849087030467CBD0000001C014051
:10704000AC812342008023424354502049443A25D6
:10705000780D0A006700002030000020A6B3000869
:107060002DE9F04104460E4617464FF00008FFF7A1
:107070008CFB2820FFF739FCFFF7C6FB2012FFF737
:1070800034FCFFF7C1FBE0B2FFF72FFCFFF7BCFBBE
:1070900000250BE0705DFFF728FCFFF7B5FB80468D
:1070A000B8F1000F00D003E0681CC5B2BD42F1DBAF
:1070B00000BFFFF78BFB4046BDE8F08138B50546C1
:1070C000002400208DF800008DF8015000BF09E079
:1070D0009DF80000E649095D0844C0B28DF8000043
:1070E000601CC4B2B82CF3D39DF80000C043401C10
:1070F000C0B28DF80000B822DD4948F24700FFF722
:10710000AFFF0222694648F2FF00FFF7A9FF002007
:1071100038BD2DE9F04105460F461646FFF735FB11
:107120002820FFF7E2FBFFF76FFB2812FFF7DDFBDC
:10713000FFF76AFBE8B2FFF7D8FBFFF765FBFFF745
:1071400024FB2920FFF7D1FBFFF75EFB00240BE0B7
:10715000711EA14201D0012100E000210846FFF785
:10716000EFFB3855601CC4B2B442F1DBFFF72EFBD5
:10717000BDE8F0810EB50121802001F057F94FF4F0
:107180000060ADF8000010208DF8030003208DF89A
:1071900002006946B74800F08DFE0221B54800F0B4
:1071A00036FF4FF48060ADF8000048208DF80300F2
:1071B0006946B04800F07EFE4FF48061AD4800F0B3
:1071C00026FFFFF7BEFA0020AB4908600A2000F056
:1071D000B0F90120A949C1F8AC010A2000F0A9F9D1
:1071E0004FF48060ADF8000028208DF80300694658
:1071F000A04800F05FFE4FF480619E4800F009FF58
:10720000642000F096F9042201A948F24010FFF72B
:1072100080FF00208DF8080001A999A001F070FB03
:107220009AA101A801F03EFC40BB02208DF80400A9
:10723000012201A948F24000FFF712FF012201A933
:1072400048F24700FFF765FF9DF80400602807DA61
:107250009DF804108FA001F053FB0120FFF72EFFD3
:107260000A2000F066F900208DF80400012201A92F
:1072700048F24000FFF7F4FE00200EBD0120FCE7BD
:1072800071B583B00024002687480078401C8649E9
:107290000870084600780A2190FBF1F201FB120009
:1072A00018B1814800780A287EDA012203A948F241
:1072B0004E10FFF72EFF9DF80C0000F0800068B123
:1072C0009DF80C0000F00F00062807DA002001905E
:1072D000012201A948F24E10FFF7C2FE9DF80C00F2
:1072E00000F00F0000285FD09DF80C0000F00F00A8
:1072F0000628D9DA9DF80C0000F00F01FF20884025
:10730000C0B20190694890F820509DF80400C04335
:10731000C0B240F0C000654981F82000084681896C
:107320008182C18AC183002446E0604890F8200031
:107330000121A140084020B35D4931F81400042226
:1073400002A9FFF7E6FE594890F8300000F001006E
:10735000C0B19DF808009DF8091000EB012081B232
:107360005248163020F814109DF80A009DF80B10B2
:1073700000EB0120C0F5487081B24C480C3020F879
:10738000141017E09DF808009DF8091000EB01208B
:1073900081B246480C3020F814109DF80A009DF880
:1073A0000B1000EB012000E036E081B23F481630C0
:1073B00020F81410601CC4B2052CB6DB01263B4833
:1073C00080893C490988884205DC3848C08A3949A7
:1073D000498888421DDD9DF80C0000F00F0001284F
:1073E0000ADD3248C089314988810846008BC8824D
:1073F00000202D4908700FE02C48808A2B49888195
:107400000846C08BC88280200390084680F8205030
:1074100002E00020244908709DF80C0000F08F0065
:1074200080281AD1214890F8200000F0800040B157
:107430001E4890F8200020F080001C4981F82000B0
:107440000BE04FF6FF7019498881C882084690F812
:10745000200000F0E00081F8200013480078F028B8
:1074600002DD0A2010490870304604B070BD0000EB
:10747000B0B30008001C0140AC81234200802342CD
:107480004354502049443A25730D0A0039313437AA
:107490000000000044656661756C74205665723AA0
:1074A00025640D0A00000000680000203000002064
:1074B00068B400088C00002010B56FF0040000F0E4
:1074C00074F92E4800682E49B0FBF1F02D49087080
:1074D0000846007800EB4001C1EBC0104FF6FF7189
:1074E00001EAC0002849088010BD0146254A1278EB
:1074F0004A434FF0E0235A6100229A611A4612690A
:1075000042F001021A6100BF4FF0E022106900F062
:1075100001021AB100F48032002AF5D04FF0E022C7
:10752000126922F001024FF0E0231A6100229A61F1
:1075300070470146144A12884A434FF0E0235A61CB
:1075400000229A611A46126942F001021A6100BFD4
:107550004FF0E022106900F001021AB100F480320D
:10756000002AF5D04FF0E022126922F001024FF01C
:10757000E0231A6100229A61704700001400002085
:1075800000127A006A0000206C00002000BF7047E3
:1075900000BF4A4A128802F04002002AF9D0C2B263
:1075A000464B1B1D1A80704710B586B0044601215A
:1075B00044F2040000F03AFF4FF40070ADF81400FC
:1075C00003208DF8160018208DF8170005A93C48F7
:1075D00000F070FC4FF48060ADF8140004208DF8CA
:1075E000170005A9364800F065FC25208DF800003D
:1075F00003208DF801008DF8020001208DF80300B2
:10760000684600F088F801940020ADF80800ADF855
:107610000A00ADF80C00ADF810000C20ADF80E001B
:1076200001A9264800F0A9FF012240F22551234874
:1076300001F03BF80121214801F02BF806B010BD04
:1076400010B540F225511D4801F014F910B31B4844
:1076500001F090F8C4B21B48008800F40040C8B99B
:107660001848008800F4804060B10A2C03D0002044
:107670001449088020E01348008840F40040114974
:10768000088019E00D2C06D10E48008840F4804097
:107690000C49088010E00B480088C0F30D000A492F
:1076A0000C5408480088401C064908800846008899
:1076B000C72801DD0020088010BD0000003801400F
:1076C00000080140740000209A000020094880470B
:1076D00009480047FEE7FEE7FEE7FEE7FEE7FEE7B4
:1076E000FEE7FEE7FEE7FEE704480549054A064BCC
:1076F000704700001F07000831010008C801002082
:10770000C8070020C8030020C803002031490143F6
:10771000314A1160704770B5002100230F22C478F0
:1077200004B32D4C246804F4E064C4F5E064210A39
:10773000C1F10403CA40447804FA03F18478144088
:1077400021430901254C0678A155047804F01F0552
:107750000124AC4005786D11AD0005F1E025C5F8B8
:10776000004109E0047804F01F050124AC401C4DE1
:107770000678761145F8264070BD1A4A0A40024341
:10778000154B1B1F1A60704739B1134A121D12683E
:107790000243114B1B1D1A6006E00F4A121D1268AE
:1077A00082430D4B1B1D1A607047042808D14FF00F
:1077B000E021096941F004014FF0E022116107E086
:1077C0004FF0E021096921F004014FF0E02211613E
:1077D000704700000000FA050CED00E000E400E056
:1077E00080E100E080FFFF1F30B943F2DB0281003F
:1077F000A1F1C0410A6005E043F2D2028100A1F18B
:10780000C0410A606FF07042411C8900A1F1C04183
:107810000A608100A1F1C041C1F80421704710281D
:107820000AD118214FF020421166402151664FF0D5
:10783000FC319166D16610E01821F74A11604021B1
:107840004FF02042C2F884104FF0FC31F24A083267
:1078500011604FF02042C2F88C1070471820EE499A
:107860002031086000200906C1F8A4004FF0FC3068
:10787000E94928310860091D0860091D0860704742
:10788000D0E901121143C2681143026911434269F0
:10789000114382691143C2691143026A1143426A6A
:1078A0001143826A1143C26A1143026B1143026899
:1078B0009200A2F1C0421160816808290BD10168D1
:1078C0008900A1F1C041096841F0400201688900C6
:1078D000A1F1C0410A60416B0968426B526841EAFC
:1078E0000211426B926841EA0221426B928941EA9D
:1078F0000241426B128A41EA0251426B127D41EA17
:107900000261426B926911430268521C9200A2F11B
:10791000C0421160C16AB1F5804F1BD1816B09680B
:10792000826B526841EA0211826B926841EA02213D
:10793000826B128A41EA0251826B127D41EA026136
:10794000826B9269114302689200A2F1C042C2F8B0
:10795000041107E06FF0704201688900A1F1C04195
:10796000C1F80421704730B500210022002344688B
:1079700044F0080485682C43C5682C4305692C43F2
:10798000456944EA4524856944EA4531C469246867
:10799000C5696D6844EA0524C5692D8944EA054432
:1079A000C5692D7B44EA0562046A2468056A6D682E
:1079B00044EA0524056A2D8944EA0544056A2D7BBD
:1079C00044EA05630468102C05D14FF02044216679
:1079D000A266E36608E0904C21604FF02044C4F8B2
:1079E00088208D4C0C34236030BD016841F01001BB
:1079F000426841EA4221826841EA4231864A2032A5
:107A00001160C1680968C268526841EA0221C2680F
:107A1000128941EA0241C268127B41EA02617E4A50
:107A200028321160016909680269526841EA02213D
:107A30000269128941EA02410269127B41EA02614C
:107A4000754A2C321160416909684269526841EAFD
:107A500002214269128941EA02414269127B41EAEC
:107A600002614FF02042C2F8B0107047002101605F
:107A70000221416000218160C16001614161816139
:107A8000C16101624FF4805141624900816200216D
:107A9000C16201630F21426B1160426B5160FF2193
:107AA000426B91600F21426BD160426B1161426B5E
:107AB00051610021426B91610F21826B1160826BD9
:107AC0005160FF21826B91600F21826BD160826BCC
:107AD0001161826B51610021826B916170471021AD
:107AE0000160002141608160C1600161416181618B
:107AF000FC21C2691160C2695160C2699160C269AA
:107B0000D160026A1160026A5160026A9160026A81
:107B1000D16070470021016041608160FC21C26832
:107B20001160C2685160C2689160C268D160026928
:107B3000116002695160026991600269D160426915
:107B4000116042695160426991604269D160704739
:107B500051B18200A2F1C042126842F001038200DA
:107B6000A2F1C042136009E08200A2F1C042126893
:107B70002A4B1A408300A3F1C0431A60704799B1A1
:107B8000102808D14FF02042126E42F004024FF04C
:107B900020431A661DE0204A126842F004024FF0AA
:107BA0002043C3F8802014E0102809D14FF0204270
:107BB000126E1A4BDB1E1A404FF020431A6608E083
:107BC000154A1268154BDB1E1A404FF02043C3F8CC
:107BD0008020704748B110492031096841F0040104
:107BE0004FF02042C2F8A01009E00B49203109688B
:107BF0000A4AD21E11404FF02042C2F8A01070472E
:107C0000B9B110280CD14FF02042126E42F0400260
:107C10004FF020431A661FE0800000A0FEFF0F0017
:107C2000724A126842F040024FF02043C3F88020AD
:107C300012E0102808D14FF02042126E6C4B1A400F
:107C40004FF020431A6607E0684A1268684B1A40F2
:107C50004FF02043C3F880207047014600201029D0
:107C600003D14FF02042506F02E0604A1432106896
:107C7000704710B5F2B1102807D14FF020435B6E6A
:107C80000B434FF02044636632E0B0F5807F08D1AB
:107C9000564B1B1D1B680B434FF02044C4F8843027
:107CA00026E0524B24331B680B434FF02044C4F8AA
:107CB000A4301DE0102807D14FF020435B6E8B43AA
:107CC0004FF02044636613E0B0F5807F08D1474B46
:107CD0001B1D1B688B434FF02044C4F8843007E021
:107CE000424B24331B688B434FF02044C4F8A4302C
:107CF00010BD10B5024600200023102A03D14FF01A
:107D00002044636E09E0B2F5807F03D1374C241D17
:107D1000236802E0354C2434236803EA01040CB1E3
:107D2000012000E0002010BD102807D14FF02042B4
:107D3000526E8A434FF020435A6613E0B0F5807FBD
:107D400008D12A4A121D12688A434FF02043C3F813
:107D5000842007E0254A243212688A434FF02043EA
:107D6000C3F8A420704770B5024600200023002409
:107D70000025102A03D14FF02046736E09E0B2F5BA
:107D8000807F03D1194E361D336802E0174E24362A
:107D9000336803EA010403EAD10514B10DB10120EF
:107DA00000E0002070BD102808D14FF02042526E34
:107DB00022EAD1024FF020435A6615E0B0F5807FE9
:107DC00009D10A4A121D126822EAD1024FF020435B
:107DD000C3F8842008E0054A2432126822EAD1025E
:107DE0004FF02043C3F8A42070470000800000A09B
:107DF000BFFF0F0010B50446CC48844208D10121D2
:107E0000042000F02DFB0021042000F029FB46E0B7
:107E1000C748844208D10121082000F021FB00213D
:107E2000082000F01DFB3AE0C248844208D101213D
:107E3000102000F015FB0021102000F011FB2EE0B7
:107E4000BD48844208D10121202000F009FB002117
:107E5000202000F005FB22E0B848844208D101212F
:107E6000402000F0FDFA0021402000F0F9FA16E071
:107E7000B348844208D10121802000F0F1FA0021AA
:107E8000802000F0EDFA0AE0AE48844207D10121DB
:107E9000801500F0E5FA0021A01500F0E1FA10BD10
:107EA00010B50121084600F0DBFA0021012000F0A6
:107EB000D7FA10BD2DE9F04102460025002600202A
:107EC00000230024002791F803C00CF00F0591F85F
:107ED00003C00CF0100CBCF1000F03D091F802C0ED
:107EE0004CEA050591F800C0BCF1000F31D01468D0
:107EF00000202BE04FF0010C0CFA00F3B1F800C0A9
:107F00000CEA03069E4220D183004FF00F0C0CFABE
:107F100003F7BC4305FA03FC4CEA040491F803C0E0
:107F2000BCF1280F06D14FF0010C0CFA00FCC2F88E
:107F300014C00AE091F803C0BCF1480F05D14FF01E
:107F4000010C0CFA00FCC2F810C0401C0828D1D368
:107F50001460B1F800C0BCF1FF0F34DD546800209C
:107F60002EE000F1080C4FF0010808FA0CF3B1F80C
:107F700000C00CEA03069E4221D183004FF00F0C93
:107F80000CFA03F7BC4305FA03FC4CEA040491F82D
:107F900003C0BCF1280F05D100F1080C08FA0CF859
:107FA000C2F8148091F803C0BCF1480F07D100F16A
:107FB000080C4FF0010808FA0CF8C2F81080401CB9
:107FC0000828CED35460BDE8F0814FF6FF710180E0
:107FD000022181700421C17070470246002093681D
:107FE0000B400BB1012000E000207047014688687B
:107FF00080B2704702460020D3680B400BB10120CD
:1080000000E0002070470146C86880B270470161F7
:108010007047416170470AB1016100E041617047FA
:10802000C16070474FF480320A438261816182618E
:1080300082698269704702460020434B18684FF6F8
:108040008073184040EA021008433F4B18607047A5
:108050003E49C8617047F0B50A460023002400215C
:10806000002500F00046B6F1004F02D1364EF1690E
:1080700001E0354E7168C0F3034583B200F4401649
:10808000B6F5401F08D121F070612F4E766826F0BA
:1080900070662D4F7E6012E000F48016B6F5801FEA
:1080A00006D1032606FA05F4A14341F0706106E00B
:1080B000460D360103FA06F6B14341F0706122B174
:1080C000460D360103FA06F6314300F00046B6F1DC
:1080D000004F02D11C4EF16101E01B4E7160F0BDFA
:1080E00030B500228B071C0F0F2303FA04F2164B46
:1080F00008338C1053F824309343134C08348D10FC
:1081000044F8253023468C1053F824308C07240F74
:1081100000FA04F423430C4C08348D1044F8253045
:1081200030BD0A49DC31086070470000000801409A
:10813000000C0140001001400014014000180140F3
:10814000001C0140002001400000014000002042CE
:10815000DF48006840F00100DD49086008464068DB
:10816000DC490840DA49486008460068DA490840B6
:10817000D74908600846006820F480200860084657
:10818000406820F4FE0048604FF41F00886070478C
:10819000CF49096821F48031CD4A11601146096840
:1081A00021F480211160B0F5803F03D0B0F5802F1D
:1081B0000ED106E0C649096841F48031C44A116015
:1081C00007E0C349096841F4A021C14A116000E0F9
:1081D00000BF00BF704710B50146002200230020F9
:1081E0004A11012A02D1BA4C236806E0022A02D1C0
:1081F000B74C236A01E0B64C636A01F01F02012408
:1082000094401C400CB1012000E0002010BD38B5A6
:10821000002000900024002500BF3120FFF7DBFF85
:1082200005460098401C00900098B0F5A06F01D062
:10823000002DF2D03120FFF7CEFF08B1012400E07D
:108240000024204638BD01460020A14A106820F0D5
:10825000F80040EAC10010607047A049086070470C
:10826000024600209A4B586820F47C1042EA010331
:108270001843974B58607047984908667047014605
:108280000020934A506820F0030008435060704774
:108290008F48406800F00C007047014600208C4A6F
:1082A000506820F0F00008435060704701460020FD
:1082B000874A506820F4E0600843506070470146E8
:1082C0000020834A506820F4605040EAC1005060AA
:1082D000704729B17E4A527A02437D4B5A7204E0BC
:1082E0007B4A527A82437A4B5A7270477B49D83123
:1082F0000860704701460020754A506820F44040ED
:108300000843506070470021714A20321170704A52
:1083100082F82010012802D004280AD104E00121AB
:108320006B4A2032117005E00521694A2032117034
:1083300000E000BF00BF70476949086070476449AA
:10834000096A0143624A116270476549443908600D
:10835000704730B500210022002400235C4D6D6879
:1083600005F00C0121B1042905D0082923D105E02D
:108370005C4D056022E05B4D05601FE0544D6D686B
:1083800005F47012524D6D6805F48034022505EB3A
:1083900092421CB9544D554305600BE04C4D6D683D
:1083A00005F400351DB1504D5543056002E04D4DBB
:1083B0005543056002E04B4D056000BF00BF444DD2
:1083C0006D6805F0F0010909484D6B5C0568DD40FA
:1083D00045603F4D6D6805F4E061090A434D6B5CF3
:1083E0004568DD4085603A4D6D6805F46051C90A05
:1083F0003E4D6B5C4568DD40C560354D6D6805F4EC
:108400004041890B3A4D6B5CC568B5FBF3F50561DE
:1084100030BD29B12E4A526902432D4B5A6104E006
:108420002B4A526982432A4B5A61704729B1284A24
:1084300092690243264B9A6104E0254A926982437D
:10844000234B9A61704729B1214AD2690243204BDC
:10845000DA6104E01E4AD26982431D4BDA6170473B
:1084600029B11B4AD2680243194BDA6004E0184A6A
:10847000D2688243164BDA60704729B1144A1269F8
:108480000243134B1A6104E0114A12698243104BF4
:108490001A61704712494039086070470F49C86433
:1084A00070470B49C87170470948406A40F08070B6
:1084B00007494862704701460020054A92680A4011
:1084C0000AB1012000E0002070470149887270471E
:1084D000001002400000FFF8FFFFF6FE00004242DD
:1084E0008004424200127A0000093D00760000201C
:1084F0008600002010B50446FB48844209D10121C2
:108500008803FFF7ADFF00214FF48040FFF7A8FF7D
:1085100032E0F648844209D101214804FFF7ADFF5B
:1085200000214FF40030FFF7A8FF25E0F048844217
:1085300009D101218804FFF7A0FF00214FF480201A
:10854000FFF79BFF18E0EB48844209D10121C804E2
:10855000FFF793FF00214FF40020FFF78EFF0BE0A1
:10856000E548844208D101210805FFF786FF002174
:108570004FF48010FFF781FF10BD2DE9F04786B062
:1085800005460E460024A24600BFA1460027B0893A
:1085900000B100BF2F462C8A4CF6FF700440F088D3
:1085A00004432C82AC894EF6F3100440B088318924
:1085B0000843718908430443AC81AC8A4FF6FF40FD
:1085C0000440B0890443AC8201A8FFF7C2FEC6484C
:1085D000874202D1DDF810A001E0DDF80CA0A889E7
:1085E00000F4004040B10AEBCA0000EB0A10316809
:1085F0004900B0FBF1F807E00AEBCA0000EB0A10F3
:1086000031688900B0FBF1F86420B8FBF0F0040198
:108610002009642101FB1089A88900F4004040B1C1
:10862000322000EBC900B0FBF1F000F0070004437A
:1086300008E0322000EB09106421B0FBF1F000F0FB
:108640000F0004432C8106B0BDE8F0874FF41651AB
:10865000016000218180C18001810C2141810021C4
:108660008181704710B502460020108A4FF2FF0347
:1086700018400B884C8823438C882343CC882343A1
:108680001843108210BD0021018041808180C1808B
:10869000704721B1828942F40052828104E08289CC
:1086A0004DF6FF731A4082817047F0B503460024EF
:1086B00000260025002040F66A17B94200D100BF0D
:1086C0001846C1F3421401F01F06012707FA06F508
:1086D000012C01D10C3004E0022C01D1103000E05B
:1086E00014301AB107682F43076002E00768AF43F0
:1086F0000760F0BD1AB1838A0B43838202E0838A4C
:108700008B4383827047028A4FF6F0731A400282CD
:10871000028A0A430282704782894FF2FF731A402D
:10872000828182890A438281704721B1828942F025
:108730000202828104E082894FF6FD731A40828131
:108740007047028A4FF6DF731A400282028A0A4398
:108750000282704721B1028A42F48042028204E020
:10876000028A4BF6FF731A4002827047C1F3080277
:108770008280704701468888C0F30800704781896D
:1087800041F0010181817047028BD2B20283028BDA
:1087900042EA012202837047028B02F47F42028385
:1087A000028B0A430283704721B1828A42F0200281
:1087B000828204E0828A4FF6DF731A408282704719
:1087C00021B1828A42F01002828204E0828A4FF64E
:1087D000EF731A408282704721B1828A42F0080208
:1087E000828204E0828A4FF6F7731A4082827047D1
:1087F00021B1828942F40042828103E08289C2F37E
:108800000E028281704721B1828A42F40062828224
:1088100004E0828A4FF2FF731A4082827047828A94
:108820004FF6FB731A408282828A0A438282704723
:1088300021B1828A42F00202828204E0828A4FF6EB
:10884000FD731A408282704702460020B1F5007F16
:1088500000D100BF13880B400BB1012000E00020C5
:10886000704701F40072B2F5007F00D100BFCA4327
:108870000280704770B502460024002300250020C6
:1088800040F66A16B14200D100BFC1F3421501F0B3
:108890001F03012606FA03F3012D02D19689334006
:1088A00006E0022D02D1168A334001E0968A334059
:1088B0000C12012606FA04F41688344013B10CB1E8
:1088C000012000E0002070BD10B50022002340F61A
:1088D0006A14A14200D100BF0A1201249440A3B23D
:1088E000DC43048010BD000000380140004400401B
:1088F00000480040004C004000500040704700001D
:108900000FB4044910B503AA029800F089F910BC0D
:108910005DF814FB700000202DE9F0410E4604467E
:10892000002020622046E168884730B3252805D022
:10893000D4E901219047206A401CF2E7E168204613
:1089400000278847050018D0A5F14100192802D852
:1089500020354FF400673246294620462760F7F756
:1089600021FC40B1012804D0F61D26F00706083688
:10897000D8E7361DD6E72846DAE7206ABDE8F08159
:1089800070B50C460546012A05D02878800600D52A
:10899000EA69002302E0012305E05B1C934202D256
:1089A000E05C0028F9D1A869E618C01AA861286A15
:1089B000184428622846AFF3008004E0D5E901217D
:1089C00014F8010B9047B442F8D32846AFF3008067
:1089D00070BD00002DE9F04106460024106875299D
:1089E000314616A510D0AFF30080002802DA4042CD
:1089F00013A507E031688A0701D512A502E04907EF
:108A000004D511A5012401E0AFF3008000210A2262
:108A100006F1240709E0B0FBF2FCB0FBF2F302FB25
:108A20001C00303078541846491C0028F3D12346E6
:108A30002A463046BDE8F04100F083B8000000004F
:108A40002D0000002B0000002000000070B504463F
:108A50000D4621461068AFF300802188090502D534
:108A60000F4A7A4402E00E4A7A440E32002104F1A1
:108A7000240305E000F00F060009965D5E54491CD2
:108A80000028F7D120780023000704D5702D02D0EC
:108A900009B1022311322046BDE8704000F051B800
:108AA0000C2A00004FF0013C50F8042B51F8043B15
:108AB0009A4221D1A2EB0C03934313EACC1317D1B2
:108AC00050F8042B51F8043B9A4215D1A2EB0C0349
:108AD000934313EACC130BD150F8042B51F8043B09
:108AE0009A4209D1A2EB0C03934313EACC13DBD0D7
:108AF0004FF00000704700BFD01A01BAB1FA81F1FF
:108B000001F0180122FA01F0CB40C1F12001DBB2E3
:108B1000C0B2C01A2CFA01F3D11A914311EAC31161
:108B2000E6D17047704770477047704710B500F046
:108B300089F8006810BD10B5044600F083F80460A1
:108B400010BD2DE9F0470D4699469246044600F1C6
:108B500024080168880604D5E06921F0100121602D
:108B600000E00120A84201DD471B00E00027A169C9
:108B70007A1902EB0900081AA0612078C00602D415
:108B80002046AFF30080002608E0D4E901211AF85E
:108B900006009047206A401C761C20624E45F4DB9C
:108BA0002078C0060AD52046AFF3008006E0D4E95D
:108BB000012130209047206A401C2062381EA7F116
:108BC0000107F4DC07E0D4E9012118F8050090471B
:108BD000206A401C2062281EA5F10105F3DC204616
:108BE000AFF300802078000602D50220BDE8F087B0
:108BF0000120FBE710B5436913B1AFF3008001E03A
:108C0000FFF7BEFE012010BD127800F124010A70AA
:108C100000224A700122EDE711684FF0FF32E9E7C8
:108C2000074B70B50D467B4400F015F80446284606
:108C300000F024F810B14FF0FF3070BD204670BD39
:108C400067E9FFFF004870476401002001694A1C82
:108C500002610878704700B58FB0CDE9013100217D
:108C6000059105497944CDE9031011466846FFF79F
:108C700053FE0FB000BD0000E5FFFFFF007B00F0DA
:108C80008000704700487047640100207546FFF778
:108C9000F9FFAE4605006946534620F007008546B9
:108CA00018B020B5FEF720FDBDE820404FF00006CB
:108CB0004FF000074FF000084FF0000B21F00701C4
:108CC000AC46ACE8C009ACE8C009ACE8C009ACE807
:108CD000C0098D46704710B50446AFF300802046AA
:108CE000BDE81040F7F776BA2DE9F04106460F4689
:108CF00000F0A8FA041E0D4618BF0120284320F0FA
:108D00000040C0F17F6000F1E040C00F0ED0301C89
:108D100018BF0120384320F00040C0F17F6000F10F
:108D2000E040C00F04BF0120FFF705FF20462946A1
:108D3000BDE8F08110B591EA030F48BF83F000430E
:108D400000F16E83841A71EB030C05D2121943EB08
:108D50000C03001B61EB0C01DFF824E14FEA115416
:108D6000A4EB135C1EEA430F18BF9EEA445F73D066
:108D700023EA0E03DCF1200E21EA045143F48013B0
:108D800032D322FA0CFE10EB0E0023FA0CFE41EB5C
:108D90000E01CCF1200E03FA0EFE10EB0E0051F185
:108DA0000001B1F5801FCCF1200E32D201EB04514D
:108DB00012FA0EF2BDE8104058BF7047401C38BF91
:108DC0005FEA420218BF7047002814BF20F001007C
:108DD00041F100014FEA410313F5001F38BF70470E
:108DE000A1F1C04100F0E6B9012A43EB0302ACF166
:108DF000200CDCF11F0E32BF4FF0000E23FA0CF3F3
:108E000010EB030041EB0451B4EB115FD0D0A1EBA8
:108E1000045101F5801149085FEA300001EB04516B
:108E20000ED350F1000038BF12FA0EFE08D1BDE893
:108E30001040C9E7401C38BF5FEA4202CAD1C3E70D
:108E4000BDE810404FEA410313F5001F38BF7047DB
:108E5000A1F1C04100F0AEB99EEA445F08D011EA2A
:108E60005E0FBDE8104004BF01F0004100207047D4
:108E7000BDE8104070B500F04FF900BF64FBBE3E86
:108E80000000E0FF491058BFC1F140415B1058BFDE
:108E9000C3F140438B42EFF3008070474FEA115318
:108EA000A3F58063D3F11E03A8BFD3F1200C08DB28
:108EB0004FF0004242EAC12252EA505232FA03F025
:108EC000704709420BD4102BC4BF0020704703F534
:108ED000787CBCF1FF3F05D04FF0FF3070474FF07A
:108EE0000000704770B500F017F900BF4992248068
:108EF00000207047F0E710F0004248BF4042B0FA4F
:108F000080F310FA03F10AD0C3F11D0303F5806367
:108F10004FEA415002EB035202EBD12170474FF070
:108F200000007047B0FA80F310FA03F10AD0C3F1E1
:108F30001D0303F580634FEA41504FEA035202EBF1
:108F4000D12170474FF000007047000051EA030C38
:108F500017D41CF5801F58BFBCF5801F00F1068098
:108F6000994218BF704708BF9042704707D711F564
:108F7000801F58BF13F5801F19D49942704789424A
:108F800070471CF5801F08D5BCF5801FF7D58B42B4
:108F900018BF704708BF824270474FF4001C1CEB9B
:108FA000410F38BF1CEB430F01D28B42704770B5A5
:108FB00000F0B2F8922449004FF000514FF0805376
:108FC000FFF760BFDFF848C170B51CEA111E1EBF75
:108FD0001CEA13159EEA0C0F95EA0C0F00F06F8047
:108FE00081EA030423EA4C134EEAD47E21EA4C11B1
:108FF00041F4801143F48013AE44A1FB024CA0FB6A
:109000000365AEF17F7E361955EB0C05A1FB034CD1
:109010004CF10003A0FB021C16EB0C06654153F15A
:109020000003094218BF46F0010613F4007F0BD17C
:109030004FEA03314FEA0530340341EA155140EA63
:1090400016506FF003020AE04FEAC3214FEAC52031
:10905000F40241EA555140EA56506FF0020202EB29
:109060002E4201EB025585EACE710AD05FEA440C2C
:1090700018BF24F0004450F1000041F1000120EA43
:10908000D47040F2FE7C624500D270BDA84214BF8D
:109090004FF080444FF04044002E08BF0024BEF142
:1090A000806FA8BFA1F1C041BDE8704080F282800E
:1090B0004FF0000001F1C04101F0004170479EEA0D
:1090C0000C0F0CEA131518BF95EA0C0F06D04FF0E1
:1090D000000081EA030E0EF0004170BD00F01CF8A4
:1090E0008900013E00F007B800F009B84FEA430CD0
:1090F0005FEA5C5C08D081EA030100F05BB84FEAEC
:10910000410C5FEA5C5CF6D14FF00000014970470A
:109110000000FF070000F87F0EF1020E2EF0030E94
:109120005EF8046B364205D4012A43EB030515F5BE
:10913000001F12D8012841EB010C1CF5001F0CD8B0
:109140000ED14FEAD17C15F5001F0CEB4C0C0CF145
:10915000020C08BF4CEBD37C04E04FF0080C01E09C
:109160004FEAD37C0CEB4C0526FA05F606F0070611
:10917000B6F1040C06D20EEB860CBDE870404CF044
:10918000010C6047DFE80CF0090B02024FF00041D0
:109190004FF00000A1F5002170BD194610460128CE
:1091A00051EB010418BFD4F5001484BF002001F076
:1091B000004170BD0808A0F500114FEA3101704769
:1091C00053EA010C17D41CF5801F58BFBCF5801F53
:1091D00000F106808B4218BF704708BF824270477B
:1091E00007D713F5801F58BF11F5801F19D48B4284
:1091F00070479B4270471CF5801F08D5BCF5801F47
:10920000F7D5994218BF704708BF904270474FF496
:10921000001C1CEB430F38BF1CEB410F01D29942DD
:1092200070470FB40CBC03BCFFF7C1BE91EA030F3B
:1092300010B581F000413FF585AD83F0004300F0AB
:10924000EFB800002DE9F04101F5801CBCF5001FCE
:10925000C0F2C3804FEA115C21EA0C510CF1FD0C05
:1092600041F480115FEA5C0C0CF5C07C01D3400036
:1092700049413DA4890241EA905187028E0E0A0CB1
:10928000A45D04FB04F602FB06F6C6F14046A4FB0F
:109290000662F60D46EA422606FB06F4A4FB01230D
:1092A0005242C3F1404338BF5B1EA6FB024200247A
:1092B000E6FB0324D20B42EA4446A6FB0623A1FBAD
:1092C00002E2A3FB07E4A4184FF0000252F10002EF
:1092D000E3FB01426442C2F1404E38BFAEF1010EE1
:1092E000A6FB04234FF00002E6FB0E32A2FB03466E
:1092F0004FF00004B61954F10004E2FB0264A1FB34
:1093000006E6A4FB07E816EB08064FF0000858F144
:109310000008E4FB01687642C8F1405838BFA8F164
:109320000108A2FB06E4A3FB08E52D194FF0000499
:1093300054F10004E2FB0854A1FB05E6A7FB04E896
:1093400018EB06084FF0000656F10006E1FB048614
:1093500018F1200556F10006A809A8F11B08B1096B
:1093600008F03F08B8F10A0F40EA86601CD901EB0B
:109370000C51BDE8F08100BFFCF5EEE8E2DDD8D38A
:10938000CFCBC7C3C0BDB9B6B4B1AEACA9A7A5A376
:10939000A19F9D9B9A9896959392908F8D8C8B8987
:1093A0008887868584838281A0FB006800FB01F2A8
:1093B00008EB4208B8EB872807D5341858EB0104AE
:1093C000D5D5401C51F10001D1E7341A78EB0104E6
:1093D000CDD4401E71F10001C9E75FEA4C0C5FEA91
:1093E0009C5C0DD105D34FF0000001F00041BDE8B9
:1093F000F081BDE8F04170B5FFF78EFE6DDBFFBE7A
:10940000BDE8F0414FF00000004970470000F87FD0
:1094100010B591EA030F48BF83F000433FF592ACCB
:10942000841A71EB030C07D212198CF0004C43EB39
:109430000C03001B61EB0C01DFF8A4E14FEA1154AF
:10944000A4EB135C1EEA430F18BF9EEA445F00F0D2
:10945000B08023EA6E03524221EA0451C3EB6E034B
:1094600038BF5B1EDCF1200E25D322FA0CFE10EB78
:109470000E0043FA0CFE41EB0E01CCF1200E03FA74
:109480000EFE10EB0E0051F10001CCF1200E29D49C
:1094900012FA0EF201EB0451BDE8104058BF7047BC
:1094A000401C1CBFB2F1004F704700280CBF491C84
:1094B00020F00100704712EB020E43EB030218BFCD
:1094C0004FF0010E4EEA4202ACF1200CDCF11E0E10
:1094D00054D943FA0CFE10EB0E0051F1FF31CCF1E0
:1094E0001E0ED5D50EF1010E12FA0EFE404141EBD3
:1094F000010101EB445C5FEA5C5C10D910EBDE70AB
:1095000001EB045138BFBEF1004FBDE8104018BF59
:10951000704700280CBF491C20F00100704730D272
:109520004FEAD42C11F5001124F400641BD0B1FAD9
:1095300081F20B3AA41AA41ED2F12003914030FA12
:1095400003F31943904001EBCC71002C01EB045163
:10955000BDE81040A8BF704701F1C0414FF00000C6
:1095600001F000417047B0FA80F310FA03F100D126
:1095700010BDE41A173C4805C90AE4E701EB0451A1
:1095800010BD491001EB0451BDE810404FEA300016
:1095900002E04FF0000170474A0008BF0042F8D0D7
:1095A000B2F5001F28BF704701F000414FF00000E6
:1095B00070479EEA445F07D011EA5E0FBDE8104095
:1095C00004BF002100207047BDE8104070B5FFF7D0
:1095D000A3FD00BF40DFF63E83F000411046704718
:1095E0000000E0FF43004FEAD30C4FEA3C0C43403D
:1095F0001FBF40070CF1605113F0FE4F70471CF085
:10960000006F03D100200CF0004170470CF00043C4
:1096100043EA507010B540EACC0000F01CFA00BFDD
:10962000000000924FEA0001FFF7C4BD4FF0004177
:109630004FF00000A1F500217047000090EA010FF3
:1096400048BF81F0004100F15882421A3CBF801AA5
:1096500089184FEAD0524FF07F4C1CEA410FA2EB21
:10966000D15318BF9CEA026F00F03B804FF0004CD2
:109670004CEA00204CEA012121FA03FC10EB0C0C0F
:109680001ED202F1FF325FEA1C2040EBC25038BF0D
:1096900070471CF07F0F4FEA400C18BFBCF17F4FA2
:1096A00038BF7047C3F12003994008BF20F0010084
:1096B000BCF17F4F38BF7047A0F1C04000F011BA35
:1096C0004FEA3C00000A40EBC25028BF1CF0FF0FDD
:1096D0004FEA400CE6D018BFBCF17F4F38BF70474F
:1096E000EAE79CEA026F05D010EA5C0F08BF00F0C1
:1096F0000040704710B500F0AEF900BF64FBBE3EFD
:109700004FF47F0C1CEAD0121EBF1CEAD11392EA60
:109710000C0F93EA0C0F00F0858090EA010F48BF10
:1097200042F4807240F4000C41F400002CF07F41C0
:1097300020F07F4000B58142A2EB03020FF2081C2B
:10974000ACEB504EC0F100009EF800E04FEA4E0E28
:1097500000FB0EFC38BF49004FEA2C1C02F5FA0250
:109760000CFB0EF34FEACE1E4FEA112C4FEAC1213B
:109770000EEB635E42EB22420EFB0CFC4FEA1C53E5
:1097800000FB03114FEA112C4FEA01310EFB0CFCD8
:109790004FEADC4C00FB0C11C14228BF09184CEB0E
:1097A00003335DF804EB10EB410143EBC250B2F51B
:1097B0007C0F38BF704729D512F0F00F1CBF00F1A5
:1097C000C04000F000407047008182838485868716
:1097D00088898B8C8D8E8F919293959697999A9C70
:1097E0009D9FA0A2A3A5A7A8AAACAEB0B2B3B5B7DF
:1097F000B9BCBEC0C2C5C7C9CCCED1D4D7D9DCDFB5
:10980000E2E6E9ECF0F3F7FAFE0000004FEA400C64
:109810000CF1807CBCF17E4F28BF7047B0F1C04096
:1098200000F05FB990EA010F0CEAD11348BF42F48F
:109830008072624538BF634507D213F47F0F16D09C
:1098400080EA010000F00040704710B500F003F915
:10985000097EFC3E00F005B880EA010000F00040FF
:10986000704780EA010000F0004000F03AB912F4BD
:109870007F0F04BF0248704780EA010000F031B951
:109880000000C07F41000B0ED3F19E0208D950F4B6
:1098900000034FEA032323FA02F048BF4042704717
:1098A00010B500F0D8F800BF49922480002070471E
:1098B0006FF0004282EA200070470000C10DD1F134
:1098C0009E0206DB4FEA002343F0004323FA02F036
:1098D0007047004207D54FEA4001B1F1FE4F02D276
:1098E0004FF00000704710B500F0B5F849922480A1
:1098F000002070476FEA20007047000010F0004120
:1099000048BF4042B0FA80F310FA03F2C3F19D035E
:109910000BD051EAC35101EB1220530638BF7047F8
:1099200000F1010008BF20F001007047B0FA80F399
:1099300010FA03F2C3F19D030AD0D90501EB1220FE
:10994000530638BF704700F1010008BF20F0010046
:10995000704700004FF47F0C1CEAD0121EBF1CEAB7
:10996000D11392EA0C0F93EA0C0F00F0478090EAB3
:10997000010F48BF42F480724FF0004C4CEA0020C7
:109980004CEA012102EB0302A0FB0113A2F5000245
:10999000002918BF43F001035B0028BF4FEA3303DF
:1099A00042EB22425FEA132C4CEBC2502EBFBCEBC1
:1099B000436FB2F57C0F70474FEA036CBCF1004F68
:1099C00008BF20F00100B2F57C0F38BF70470BD5FF
:1099D00082F0FF0212F5803FC8BF704700F1C0401F
:1099E000D8BF00F00040704700F5000C5FEA4C0C57
:1099F00048BF7047B0F1C04000F073B890EA010F63
:109A00000CEAD11348BF42F48072624538BF634507
:109A100004D280EA010000F00040704710B500F069
:109A20001AF800BF8900013E00F007B800F009B83D
:109A30005FEA410C5FEA1C6C08D080EA010000F08C
:109A400050B85FEA400C5FEA1C6CF6D14FF0004062
:109A5000A0F5800070470EF1020E2EF0030E5EF8A6
:109A6000044B244204D44FEA4102B2F17F4F11D893
:109A70004FEA4003B3F17F4F0CD80ED14FEAD07CB0
:109A8000B2F17F4F0CEB4C0C0CF1020C08BF4CEB0D
:109A9000D17C04E04FF0080C01E04FEAD17C0CEBE4
:109AA0004C0324FA03F404F00704B4F1040C06D2C6
:109AB0000EEB840CBDE810404CF0010C6047DFE871
:109AC0000CF0070802024FF00040A0F5800010BD26
:109AD0000846420018BFD2F1807288BF00F00040F3
:109AE00010BDFF2141EAD050C005704790EA010F38
:109AF00048BF81F000413FF5A8AD421A04D882F07A
:109B00000042A0EB020011444FEAD0524FF07F4CCC
:109B10001CEA410FA2EBD15318BF9CEA026F4AD056
:109B20004FF0004C4CEA00204CEA012121FA03FCE2
:109B3000B0EB0C0C0FD412F0FE0F36D05FEA4C00E5
:109B40001DD5001240EBC25038BF70471CF03F0FCC
:109B500018BF70470BE0A2F101025FEA1C2040EB46
:109B6000C25038BF70471CF07F0F18BF7047C3F159
:109B70002003994014BF401E20F001007047800868
:109B80004FEA122308BF7047B0FA80FCA2EB0C0228
:109B9000CCF1280C60FA0CF093EA122F04BF00EB12
:109BA000C25070474FEAC3707047130A5FEADC1077
:109BB00008BF7047F6E79CEA026F04D010EA5C0F1A
:109BC00008BF0020704710B5FFF745FF40DFF63EA5
:109BD00081F000407047000000000000000000001D
:109BE0000000000000003F400000000000000000F6
:109BF0003000400030004000000009000BC03D0074
:109C00000BC03D00090018C024407FE02240318095
:109C10000000180024C01B000D803240018003802A
:109C20001C4027401C8007400040100060000000DE
:109C30000000000000000000000000001F80204025
:109C400040200000402020401F800000000009004C
:109C500006001F80060009000000040004003F8089
:109C6000040004000000001000600000000000007C
:109C700000000400040004000400040000000000D0
:109C800000400000000000000000002001C00600AD
:109C90003800400000001F802040204020401F80EE
:109CA0000000000010403FC000400000000018C04D
:109CB00021402240244018400000108020402440D1
:109CC00024401B80000002000D0011003FC0014035
:109CD00000003C80244024402440238000001F805A
:109CE000244024403440038000003000200027C07E
:109CF0003800200000001B802440244024401B80AA
:109D000000001C0022C0224022401F8000000000F2
:109D10000000084000000000000000000000046097
:109D2000000000000000000004000A001100208074
:109D30004040090009000900090009000000000076
:109D40004040208011000A00040018002000234039
:109D50002400180000001F802040274029401F4099
:109D60000000004007C039000F0001C00040204043
:109D70003FC0244024401B8000001F802040204022
:109D800020403080000020403FC0204020401F8005
:109D9000000020403FC024402E4030C00000204042
:109DA0003FC024402E00300000000F0010802040F3
:109DB00022403380020020403FC0040004003FC026
:109DC0002040204020403FC0204020400000006054
:109DD000202020203FC02000200020403FC0244001
:109DE0000B0030C0204020403FC0204000400040D9
:109DF00000C03FC03C0003C03C003FC0000020400A
:109E00003FC00C4023003FC020001F802040204066
:109E100020401F80000020403FC024402400180044
:109E200000001F802140214020E01FA000002040B2
:109E30003FC02440260019C0004018C024402440E0
:109E4000224031800000300020403FC020403000E0
:109E5000000020003F80004000403F8020002000A4
:109E60003E0001C0070038002000380007C03C0059
:109E700007C038000000204039C0060039C020402B
:109E800000002000384007C038402000000030406B
:109E900021C02640384020C00000000000007FE0C4
:109EA000402040200000000070000C0003800040B3
:109EB00000000000402040207FE000000000000083
:109EC00020004000200000000000001000100010E2
:109ED0000010001000100000000040000000000012
:109EE0000000000002800540054003C00040200043
:109EF0003FC0044004400380000000000380044091
:109F000004400640000000000380044024403FC09D
:109F100000400000038005400540034000000000B1
:109F200004401FC0244024402000000002E00550EF
:109F300005500650042020403FC00440040003C0E8
:109F400000400000044027C0004000000000001056
:109F50000010041027E00000000020403FC0014036
:109F6000070004C00440204020403FC000400040A3
:109F7000000007C0040007C0040003C00000044044
:109F800007C00440040003C00040000003800440F8
:109F9000044003800000041007F0045004400380D4
:109FA0000000000003800440045007F0001004404B
:109FB00007C0024004000400000000000640054005
:109FC000054004C00000000004001F800440004061
:109FD0000000040007800040044007C00040040067
:109FE000070004C0018006000400060001C007004D
:109FF00001C006000000044006C0010006C0044085
:10A0000000000410071004E00180060004000000B6
:10A01000044005C0064004400000000000000400A9
:10A020007BE040200000000000000000FFF0000086
:10A030000000000040207BE0040000000000400021
:10A0400080004000200020004000000000000000D0
:10A050000000000000000000000000000000000000
:10A060001FCC000C000000000000000008003000C1
:10A0700060000800300060000000022003FC1E2089
:10A08000022003FC1E200220000000000E18110414
:10A090003FFF10840C78000000000F0010840F3880
:10A0A00000C0077818840078000000780F8410C47E
:10A0B00011240E9800E40084000808006800700075
:10A0C0000000000000000000000000000000000090
:10A0D00007E018182004400200000000400220049D
:10A0E000181807E000000000000002400240018054
:10A0F0000FF00180024002400000008000800080DC
:10A100000FF800800080008000000001000D000EAC
:10A11000000000000000000000000000008000803F
:10A12000008000800080008000800000000C000C97
:10A130000000000000000000000000000006001801
:10A1400000600180060018002000000007F00808E9
:10A1500010041004080807F00000000008040804B8
:10A160001FFC000400040000000000000E0C10148E
:10A170001024104411840E0C000000000C18100470
:10A180001104110412880C700000000000E003208C
:10A19000042408241FFC0024000000001F981084E1
:10A1A00011041104108810700000000007F00888E6
:10A1B0001104110418880070000000001C00100039
:10A1C00010FC13001C001000000000000E381144A9
:10A1D0001084108411440E38000000000700088C21
:10A1E00010441044088807F0000000000000000040
:10A1F000030C030C00000000000000000000000140
:10A200000106000000000000000000000080014086
:10A21000022004100808100400000220022002207E
:10A220000220022002200220000000001004080882
:10A230000410022001400080000000000E00120007
:10A24000100C106C10800F00000003E00C1813E4D9
:10A25000142417C4082807D000000004003C03C4DD
:10A260001C40074000E4001C000410041FFC110403
:10A27000110411040E880070000003E00C18100493
:10A280001004100410081C10000010041FFC10041F
:10A2900010041004080807F0000010041FFC11044B
:10A2A000110417C410040818000010041FFC110446
:10A2B000110017C010000800000003E00C18100483
:10A2C000100410441C780040000010041FFC10848F
:10A2D0000080008010841FFC100400001004100493
:10A2E0001FFC100410040000000000030001100116
:10A2F00010011FFE10001000000010041FFC1104CC
:10A3000003801464181C1004000010041FFC1004C7
:10A31000000400040004000C000010041FFC1F00D7
:10A3200000FC1F001FFC1004000010041FFC0C04A4
:10A33000030000E010181FFC100007F008081004CC
:10A3400010041004080807F0000010041FFC10841B
:10A350001080108010800F00000007F008181024F3
:10A360001024101C080A07F2000010041FFC11043E
:10A37000110011C011300E0C000400000E1C11045D
:10A380001084108410441C380000180010001004C1
:10A390001FFC100410001800000010001FF810042B
:10A3A0000004000410041FF8100010001E0011E04B
:10A3B000001C007013801C0010001FC0103C00E047
:10A3C0001F0000E0103C1FC000001004180C1634E1
:10A3D00001C001C01634180C100410001C00130436
:10A3E00000FC13041C00100000000804101C106482
:10A3F000108413041C04101800000000000000006A
:10A400007FFE4002400240020000000030000C00CD
:10A4100003800060001C00030000000040024002B6
:10A4200040027FFE0000000000000000000020004D
:10A430004000400040002000000000010001000139
:10A440000001000100010001000100004000400087
:10A45000200000000000000000000000009801241F
:10A4600001440144014400FC000410001FFC00886A
:10A4700001040104008800700000000000700088E2
:10A48000010401040104008800000000007000883D
:10A490000104010411081FFC0004000000F801443D
:10A4A00001440144014400C800000000010401040B
:10A4B0000FFC1104110411001800000000D601293E
:10A4C0000129012901C90106000010041FFC0084B4
:10A4D00001000100010400FC000400000104190453
:10A4E00019FC00040004000000000000000300014B
:10A4F0000101190119FE0000000010041FFC0024D6
:10A50000004001B4010C010400000000100410041C
:10A510001FFC0004000400000000010401FC010411
:10A52000010001FC0104010000FC010401FC0084A5
:10A5300001000100010400FC0004000000F8010417
:10A5400001040104010400F80000010101FF00857D
:10A550000104010400880070000000000070008801
:10A5600001040104010501FF00010104010401FCD3
:10A5700000840104010001800000000000CC0124DF
:10A5800001240124012401980000000001000100C1
:10A5900007F80104010400000000010001F80004B4
:10A5A00000040004010801FC0004010001800170A6
:10A5B000000C001001600180010001F0010C00306E
:10A5C00001C00030010C01F0010000000104018C09
:10A5D00000740170018C010400000101018101710E
:10A5E000000E001801600180010000000184010CD0
:10A5F000013401440184010C00000000000000004F
:10A60000000001003EFC400240020000000000008B
:10A610000000FFFF000000000000000040024002B8
:10A620003EFC01000000000000000000600080000F
:10A6300080004000400020002000000000000000DA
:10A64000000000000000000000000000000000000A
:10A6500000000000000000000000000000000000FA
:10A66000000000000000000000000000000F803823
:10A670000FFE380F803800000000000000000000CE
:10A6800000000000000000000100000600000C00B7
:10A69000003800003100000600000C000038000007
:10A6A0003000000000000000000061800067F80733
:10A6B000F980006180006180006180006180006736
:10A6C000F807F98000618000000000000000000031
:10A6D00001C0E003E0F00630080418081FFFFE0484
:10A6E0000E080787F00381E000000000000001F081
:10A6F00000060C00040408060C7001F9C0000E00EE
:10A70000003BE000EC18070808040C180003E00008
:10A7100000000001E00007F003F818041C0804170B
:10A720000807E1D003C0E00023B0003C0800200887
:10A7300000001000000000000001000031000032A5
:10A7400000001C00000000000000000000000000ED
:10A7500000000000000000000000000000000000F9
:10A76000000000000000000000007F0001FFC007A3
:10A7700080F00C001810000420000200000000000F
:10A78000002000021000040C00180780F001FFC038
:10A79000007F00000000000000000000000000003A
:10A7A0000000000000004200006600006600003C5F
:10A7B0000000180003FFC0001800003C0000660005
:10A7C00000660000420000000000080000080000D1
:10A7D000080000080000080001FFC0000800000891
:10A7E0000000080000080000080000000000000150
:10A7F00000003100003200001C00000000000000DA
:10A800000000000000000000000000000000000048
:10A810000000080000080000080000080000080010
:10A820000008000008000008000008000008000000
:10A8300000000000000000000000380000380000A8
:10A8400038000000000000000000000000000000D0
:10A8500000000000000000000000000600001C00D6
:10A860000070000180000E0000380000C0000700EA
:10A87000001C0000300000000000000000007F808D
:10A8800001FFE003807006001804000804000806B9
:10A89000001803807001FFE0007F800000000000CE
:10A8A0000000000001000801000801000803FFF893
:10A8B00007FFF80000080000080000080000000082
:10A8C000000000000001C03802C0580400980401D4
:10A8D00018040218040418061C1803F81801E0F8FC
:10A8E00000000000000000000001C0E003C0F00410
:10A8F000000804080804080806180803F41801E70B
:10A90000F00001E000000000000000000000030073
:10A91000000D00001100006100008108030108071C
:10A92000FFF80FFFF8000108000108000000000018
:10A93000000000E007FCD006080806100806100812
:10A94000061008061838060FF00607C000000000C1
:10A950000000000000003F8001FFE0038430020897
:10A9600018041008041008041008071810030FF04A
:10A970000007C000000000000000000003C0000746
:10A9800000000600000600F80607F806180006E0BA
:10A990000007000006000000000000000001E1E0E8
:10A9A00003F7F0063410041808041808040C08040F
:10A9B0000C0806161803F3F001C1E00000000000C7
:10A9C0000000F80003FC3003063804020804020803
:10A9D0000402080404100308F001FFC0007F000017
:10A9E0000000000000000000000000000000000067
:10A9F000000070380070380070380000000000005F
:10AA00000000000000000000000000000000000046
:10AA1000000000000000301A00301C0000000000A0
:10AA20000000000000000000000000000000000026
:10AA30000008000014000022000041000080800196
:10AA40000040020020040010080008000000000080
:10AA50000000210000210000210000210000210051
:10AA60000021000021000021000021000021000041
:10AA700000000000000000000800080400100200B0
:10AA800020010040008080004100002200001400EE
:10AA900000080000000000000003C00004C0000423
:10AAA0000000080038080F380808380810000C307B
:10AAB0000007E00003C000000000000000003F802D
:10AAC00000FFE0038070020F1006708804C0880445
:10AAD0008308047F8802C09003012000FE4000002C
:10AAE000080000180001F8003E0801C2000702003B
:10AAF00007E20000FE00001FC80001F80000380057
:10AB0000000804000807FFF807FFF8040808040815
:10AB10000804080804080806180803F41801E7F0F8
:10AB20000001E0000000000000003F8001FFE003A2
:10AB300080700200180400080400080400080400E3
:10AB4000100600200780C000000004000807FFF87E
:10AB500007FFF804000804000804000804001802B5
:10AB6000001003807001FFE0007F800000000400FF
:10AB70000807FFF807FFF804080804080804080895
:10AB8000040808043E0804000806001801006000DC
:10AB9000000004000807FFF807FFF804080804088D
:10ABA00000040800040800043E000600000600003F
:10ABB000018000000000000000003F8001FFE00372
:10ABC000807006001804000804020804020802034A
:10ABD000F00783F000020000020004000807FFF8FD
:10ABE00007FFF8040808000800000800000800003B
:10ABF000080004080807FFF807FFF8040008000031
:10AC00000000000004000804000804000807FFF822
:10AC100007FFF80400080400080400080000000012
:10AC20000000000000000006000007000001040012
:10AC30000104000104000307FFFE07FFFC040000FD
:10AC400004000004000004000807FFF807FFF804F0
:10AC50000C08001800003E0004C7800503C8060069
:10AC6000F804003804001800000804000807FFF882
:10AC700007FFF804000800000800000800000800B2
:10AC80000008000008000018000060000000040038
:10AC90000807FFF807800807FC00007FC00003F8E2
:10ACA0000007C000780007800807FFF807FFF804D6
:10ACB000000804000807FFF807000803C00000E0D0
:10ACC00000003800001E000007000001C00400F072
:10ACD00007FFF8040000000000007F8001FFE00390
:10ACE000807006001804000804000806001803001D
:10ACF0003001FFE0007F8000000004000807FFF83B
:10AD000007FFF80404080404000404000404000419
:10AD10000400060C0003F80001F000000000000031
:10AD200000007F8001FFE003807006008804008837
:10AD30000400C806003C03003E01FFE6007F8400DB
:10AD4000000004000807FFF807FFF80408080408DB
:10AD500000040C00040F00040BC00610F003F038D0
:10AD600001E00800000800000001E0F803F03006F0
:10AD70003010041808041808040C08040C08020613
:10AD8000180207F00781E0000000018000060000C3
:10AD900004000004000004000807FFF807FFF8049F
:10ADA0000008040000040000060000018000040008
:10ADB0000007FFE007FFF00400180000080000088B
:10ADC00000000800000800000804001007FFE0046D
:10ADD000000004000006000007E00007FE00041F5A
:10ADE000E00001F80000380001E0043E0007C00068
:10ADF00006000004000004000007E00007FFC00494
:10AE00001FF80007C007F80007FF80043FF800079D
:10AE1000C004F8000700000400000000000400085F
:10AE200006001807C07805F1C8003E00001F800426
:10AE300063E80780F806001804000800000004001A
:10AE40000006000007800007E008047C08001FF8E7
:10AE50000007F800180804E00807000006000004D6
:10AE600000000000000100080600380400F8040398
:10AE7000E8040F08047C0805F00807C0080700185C
:10AE8000040060000000000000000000000000005E
:10AE900000000000003FFFFE200002200002200012
:10AEA000022000022000020000000000000000005C
:10AEB00008000007000000C0000038000006000085
:10AEC00001C000003000000E000001000000000082
:10AED00000000000200002200002200002200002EA
:10AEE0002000023FFFFE0000000000000000000004
:10AEF000000000000000000000000008000010003A
:10AF000000300000200000300000100000080000A9
:10AF1000000000000000000001000001000001002E
:10AF2000000100000100000100000100000100001C
:10AF3000010000010000010000010000000000000D
:10AF400000000020000020000010000010000000A1
:10AF500000000000000000000000000000000000F1
:10AF6000000000F00019F8001B1800220800260855
:10AF7000002408002410003FF8001FF8000008001B
:10AF8000001800000004000007FFF80FFFF0001891
:10AF900018001008002008002008003018001FF0DA
:10AFA000000FC00000000000000007C0001FF000FC
:10AFB0001830002008002008002008003C08001C71
:10AFC000100000600000000000000000000007C04A
:10AFD000001FF00038180020080020080020080496
:10AFE000101007FFF80FFFF0000010000000000035
:10AFF000000000000007C0001FF0001230002218FF
:10B00000002208002208003208001E10000E200056
:10B01000000000000000200000200800200801FFC0
:10B02000F803FFF806200804200804200807200081
:10B0300003000000000000000000000E000E6E0083
:10B040001FF30031B10020B10020B1003191001F89
:10B0500013002E1E00200E00300000000004000827
:10B0600007FFF80FFFF80010080020000020000084
:10B070002008003FF8001FF8000008000000000052
:10B0800000000000002008002008002008063FF80B
:10B09000063FF8000008000008000008000000005B
:10B0A000000000000000000000000300000300207A
:10B0B00001002001002003063FFE063FFC000000C7
:10B0C00000000000000000000004000807FFF80F67
:10B0D000FFF8000188000300002FC00038F80020AE
:10B0E00038002008000008000000000000000000F8
:10B0F00004000804000804000807FFF80FFFF80028
:10B100000008000008000008000000000000002007
:10B1100008003FF8003FF8001008002000003FF84A
:10B12000003FF8001008002000003FF8003FF80042
:10B130000008000000002008003FF8003FF8001061
:10B1400008001000002000002008003FF8001FF851
:10B150000000080000000000000007C0000FF00021
:10B1600018300030080020080020080030080018BF
:10B1700030000FF00007C0000000000000002001B8
:10B18000003FFF003FFF00101100200900200800D1
:10B190002008003038001FF0000FC0000000000041
:10B1A000000007C0001FF000381800200800200829
:10B1B000002009001011001FFF003FFF00000100E8
:10B1C0000000002008002008002008003FF8003F91
:10B1D000F8000808001008002008002000003000D7
:10B1E000003000000000000000000000000C7800AB
:10B1F0001E180033080023080021080021880021C0
:10B20000980030F0003860000000000000002000CE
:10B2100000200000200000FFF003FFF800200800DD
:10B22000200800200800003000000000000000009E
:10B2300000002000003FF0007FF800001800000828
:10B24000000008002010003FF8007FF00000100010
:10B250000000000000002000003000003C00003F23
:10B26000800023F0000078000070002380003C0084
:10B27000003000002000002000003C00003FE00003
:10B2800023F80000E0002700003E00003FE000211E
:10B29000F80001E0003E000020000000000020084F
:10B2A000002008003838003E680027800003C800EE
:10B2B0002CF800383800201800200800000000009A
:10B2C00000002000003003003C01003F830023EC1D
:10B2D000000070002380003C0000200000200000DF
:10B2E00000000000000000000038080020380020A6
:10B2F000F80023E8002F88003E08003808002018D6
:10B3000000007000000000000000000000000000CD
:10B3100000000000000008000014001FF7FC3000CF
:10B3200006200002000000000000000000000000F5
:10B33000000000000000000000000000FFFFFF0010
:10B3400000000000000000000000000000000000FD
:10B35000000000002000023000061FF7FC0014006F
:10B3600000080000000000000000000000000000D5
:10B3700000000000001800006000004000004000D5
:10B38000002000001000000800000400000400007D
:10B390000C000010000000009CB400080001000533
:10B3A000001000140018030009000F0015001B0016
:10B3B00060E001200305350002081E08503C0F051F
:10B3C0000000FF67500000181A1E1489280A302E4A
:10B3D000BB0A03000002331D000000000000003221
:10B3E00000002A1C5A94C50207000000B51F0090F7
:10B3F0002800773200623F005250005200000000E7
:10B40000000000000000000000000000000000003C
:10B410000000000F0F03061042F80F140000000098
:10B420001A18161412100E0C0A0800000000000072
:10B4300000000000000000000000000000002928BB
:10B440002422201F1E1D0E0C0A080605040200FF00
:10B450000000000000000000000000FFFFFFFFFFF1
:10B46000FFFFFFFFFFFFFFFF508158816081688170
:10B4700070813031323334353637383941424344C4
:10B48000454640305800303132333435363738395C
:10B49000616263646566403078000000506C6561ED
:10B4A00073652075736520746865207374796C7595
:10B4B0007320636C69636B207468652063726F73BB
:10B4C00073206F6E207468652073637265656E2EDD
:10B4D0005468652063726F73732077696C6C2061A8
:10B4E0006C77617973206D6F766520756E74696C09
:10B4F000207468652073637265656E2061646A7587
:10B5000073746D656E7420697320636F6D706C6504
:10B510007465642E0000000038B5000800000020AB
:10B520008C0000006C010008C4B500088C000020ED
:10B530003C070000880100080100182800F807FCFB
:10B54000E0FFE007FF7F1F00122B000000A24A046B
:10B5500000000000000000000102030406070809C3
:10B5600001000000FFFF00009B6500084D5A000825
:10B570004B5D00080000000000000000000000001B
:10B5800000000000000000000000000000000000BB
:10B59000000000000000000000000000D09000004B
:10B5A000000000000000000000000000000000009B
:10B5B0000000010203040102030406070809020453
:04B5C0000608000079
:0400000508000131BD
:00000001FF
